:0400000045EF00F0D8
:100008005082FACF01F0FBCF02F0E9CF03F0EACF3C
:1000180004F0E1CF05F0E2CF06F0D9CF07F0DACF50
:1000280008F0F3CF09F0F4CF0AF0F6CF0BF0F7CFD2
:100038000CF0F8CF0DF0F5CF0EF0F2BC9DA003D078
:100048009EB069EC34F00EC0F5FF0DC0F8FF0CC08F
:10005800F7FF0BC0F6FF0AC0F4FF09C0F3FF08C0A2
:10006800DAFF07C0D9FF06C0E2FF05C0E1FF04C000
:10007800EAFF03C0E9FF02C0FBFF01C0FAFF50928C
:06008800110090EF34F0BE
:100F00000053504545440057415445520050524506
:100F1000535300564F4C54530068656C6C6F00522D
:100F20003138200055534544004655454C00544542
:100F30004D50004C415354004245535400424154DB
:100F400054004B5048004F494C0052504D004C410A
:100F50005000313000313100313200545000250052
:100F60002E003300340035003600370038003900D9
:050F70003A006B0000D7
:100F760025C00FF026C010F0030E126EE80E116E9B
:100F86007FEC32F00FC02EF010C02FF0000E126E64
:100F9600640E116E25C00FF026C010F07FEC32F003
:100FA6000FC017F010C018F0000E1A6E0A0E196E58
:100FB600FDEC32F017C02CF018C02DF0FF0E1E6E9F
:100FC600FF0E1F6EFF0E206E040E216E16EC34F01F
:100FD600090E1E6EFF0E1F6EFF0E206EFF0E216E97
:100FE60016EC34F0320E1E6E320E1F6E320E206E6E
:100FF600000E216E16EC34F0130E1E6EFF0E1F6EE1
:10100600FF0E206EFF0E216E16EC34F04DC027F059
:101016004EC028F0296A000E2724106E800E282064
:10102600116E100E2920126E000E146EF00E136E45
:10103600DBEC33F0020EA1EC34F04DC027F04EC0CD
:1010460028F0296A000E2724106E800E2820116EC3
:10105600100E2920126E000E146E730E136EDBEC4A
:1010660033F0020EA1EC34F04DC027F04EC028F04C
:10107600296A000E2724106E800E2820116E100E8D
:101086002920126E000E146E820E136EDBEC33F006
:10109600020EA1EC34F04DC027F04EC028F0296AAC
:1010A600000E2724106E800E2820116E100E2920A7
:1010B600126E510E146E000E136EDBEC33F0020E40
:1010C600A1EC34F04DC027F04EC028F0296A000E7E
:1010D6002724106E800E2820116E100E2920126E05
:1010E600000E146E0A0E136EDBEC33F0020EA1EC4A
:1010F60034F04DC027F04EC028F0296A000E272490
:10110600106E800E2820116E100E2920126E000E11
:10111600146E050E136EDBEC33F0020EA1EC34F008
:101126004DC027F04EC028F0296A000E2724106E05
:10113600800E2820116E100E2920126E000E146EDD
:10114600000E136EDBEC33F0020EA1EC34F04DC052
:1011560027F04EC028F0296A000E2724106E800E54
:101166002820116E100E2920126E000E146E320EFB
:10117600136EDBEC33F0020EA1EC34F0000E1E6EA3
:10118600000E1F6EFF0E206E040E216E16EC34F05C
:101196002FBE06D02F5003E1020E2E5CD8B0C3D06E
:1011A600130E1E6EFF0E1F6EFF0E206EFF0E216EBB
:1011B60016EC34F04DC027F04EC028F0296A000E18
:1011C6002724106E800E2820116E100E2920126E14
:1011D600000E146EF00E136EDBEC33F0020EA1EC73
:1011E60034F04DC027F04EC028F0296A000E27249F
:1011F600106E800E2820116E100E2920126E000E21
:10120600146E730E136EDBEC33F0020EA1EC34F0A9
:101216004DC027F04EC028F0296A000E2724106E14
:10122600800E2820116E100E2920126E000E146EEC
:10123600820E136EDBEC33F0020EA1EC34F04DC0DF
:1012460027F04EC028F0296A000E2724106E800E63
:101256002820116E100E2920126E310E146E000E0B
:10126600136EDBEC33F0020EA1EC34F04DC027F028
:101276004EC028F0296A000E2724106E800E282002
:10128600116E100E2920126E000E146E0A0E136EC9
:10129600DBEC33F0020EA1EC34F04DC027F04EC06B
:1012A60028F0296A000E2724106E800E2820116E61
:1012B600100E2920126E000E146E050E136EDBEC56
:1012C60033F0020EA1EC34F04DC027F04EC028F0EA
:1012D600296A000E2724106E800E2820116E100E2B
:1012E6002920126E2EC013F02FC014F0DBEC33F061
:1012F600020EA1EC34F04DC027F04EC028F0296A4A
:10130600000E2724106E800E2820116E100E292044
:10131600126E000E146E320E136EDBEC33F0020EFC
:10132600A1EC34F0E2D0FE0E2E240F6EFF0E2F201D
:10133600106E000E126E050E116E7DEC34F00FC0AD
:1013460027F010C028F02CC00FF02DC010F0000EB2
:10135600126E020E116E7FEC32F00F5027242A6EA9
:10136600105028202B6E130E1E6EFF0E1F6EFF0EE2
:10137600206EFF0E216E16EC34F04DC027F04EC0E5
:1013860028F0296A000E2724106E800E2820116E80
:10139600100E2920126E000E146EF00E136EDBEC8A
:1013A60033F0020EA1EC34F04DC027F04EC028F009
:1013B600296A000E2724106E800E2820116E100E4A
:1013C6002920126E000E146E730E136EDBEC33F0D2
:1013D600020EA1EC34F04DC027F04EC028F0296A69
:1013E600000E2724106E800E2820116E100E292064
:1013F600126E000E146E820E136EDBEC33F0020ECC
:10140600A1EC34F04DC027F04EC028F0296A000E3A
:101416002724106E800E2820116E100E2920126EC1
:10142600310E146E000E136EDBEC33F0020EA1ECDF
:1014360034F04DC027F04EC028F0296A000E27244C
:10144600106E800E2820116E100E2920126E000ECE
:10145600146E0A0E136EDBEC33F0020EA1EC34F0C0
:101466004DC027F04EC028F0296A000E2724106EC2
:10147600800E2820116E100E2920126E000E146E9A
:10148600050E136EDBEC33F0020EA1EC34F04DC00A
:1014960027F04EC028F0296A000E2724106E800E11
:1014A6002820116E100E2920126E2AC013F02BC0B0
:1014B60014F0DBEC33F0020EA1EC34F04DC027F053
:1014C6004EC028F0296A000E2724106E800E2820B0
:1014D600116E100E2920126E000E146E320E136E4F
:1014E600DBEC33F0020EA1EC34F0FF0E1E6EFF0EA5
:1014F6001F6EFF0E206E040E216E16EC34F02E0EBB
:101506001E6EFF0E1F6EFF0E206EFF0E216E16EC76
:1015160034F04DC027F04EC028F0296A000E27246B
:10152600106E800E2820116E100E2920126E000EED
:10153600146EED0E136EDBEC33F0020EA1EC34F0FC
:101546004DC027F04EC028F0296A000E2724106EE1
:10155600800E2820116E100E2920126E000E146EB9
:10156600590E136EDBEC33F0020EA1EC34F04DC0D5
:1015760027F04EC028F0296A000E2724106E800E30
:101586002820116E100E2920126E000E146E1F0EEA
:10159600136EDBEC33F0020EA1EC34F04DC027F0F5
:1015A6004EC028F0296A000E2724106E800E2820CF
:1015B600116E100E2920126E080E146E000E136E98
:1015C600DBEC33F0020EA1EC34F02EC01EF02FC07F
:1015D6001FF0000E1FBEFF0E206E216E16EC34F0BB
:1015E6002E0E1E6EFF0E1F6EFF0E206EFF0E216E5C
:1015F60016EC34F04DC027F04EC028F0296A000ED4
:101606002724106E800E2820116E100E2920126ECF
:10161600000E146EF30E136EDBEC33F0020EA1EC2B
:1016260034F04DC027F04EC028F0296A000E27245A
:10163600106E800E2820116E100E2920126E000EDC
:10164600146E590E136EDBEC33F0020EA1EC34F07F
:101656004DC027F04EC028F0296A000E2724106ED0
:10166600800E2820116E100E2920126E000E146EA8
:101676001F0E136EDBEC33F0020EA1EC34F04DC0FE
:1016860027F04EC028F0296A000E2724106E800E1F
:101696002820116E100E2920126E000E146E000EF8
:1016A600136EDBEC33F0020EA1EC34F02CC01EF00E
:1016B6002DC01FF0000E1FBEFF0E206E216E16EC11
:1016C60034F00C0E1E6EFF0E1F6EFF0E206EFF0E08
:1016D600216E16EC34F04DC027F04EC028F0296A72
:1016E600000E2724106E800E2820116E100E292061
:1016F600126E000E146EB70E136EDBEC33F0020E94
:10170600A1EC34F04DC027F04EC028F0296A000E37
:101716002724106E800E2820116E100E2920126EBE
:10172600000E146EA10E136EDBEC33F0020EA1EC6C
:1017360034F04DC027F04EC028F0296A000E272449
:10174600106E800E2820116E100E2920126E000ECB
:10175600146E1C0E136EDBEC33F0020EA1EC34F0AB
:101766004DC027F04EC028F0296A000E2724106EBF
:10177600800E2820116E100E2920126E000E146E97
:10178600000E136EDBEC33F0020EA1EC34F04DC00C
:1017960027F04EC028F0296A000E2724156E800E09
:1017A6002820166E100E2920176E590E186E0F0E71
:1017B600196EF5EC31F0A1EC34F00C0E1E6EFF0E36
:1017C6001F6EFF0E206EFF0E216E16EC34F04DC01C
:1017D60027F04EC028F0296A000E2724106E800ECE
:1017E6002820116E100E2920126E000E146EA00E07
:1017F600136EDBEC33F0020EA1EC34F04DC027F093
:101806004EC028F0296A000E2724106E800E28206C
:10181600116E100E2920126E000E146E820E136EBB
:10182600DBEC33F0020EA1EC34F04DC027F04EC0D5
:1018360028F0296A000E2724106E800E2820116ECB
:10184600100E2920126E000E146E1C0E136EDBECA9
:1018560033F0020EA1EC34F04DC027F04EC028F054
:10186600296A000E2724106E800E2820116E100E95
:101876002920126E000E146E000E136EDBEC33F090
:10188600020EA1EC34F04DC027F04EC028F0296AB4
:10189600000E2724156E800E2820166E100E2920A5
:1018A600176E620E186E0F0E196EF5EC31F0A1EC84
:1018B60034F00C0E1E6EFF0E1F6EFF0E206EFF0E16
:1018C600216E16EC34F04DC027F04EC028F0296A80
:1018D600000E2724106E800E2820116E100E29206F
:1018E600126E000E146E9B0E136EDBEC33F0020EBE
:1018F600A1EC34F04DC027F04EC028F0296A000E46
:101906002724106E800E2820116E100E2920126ECC
:10191600000E146E5C0E136EDBEC33F0020EA1ECBF
:1019260034F04DC027F04EC028F0296A000E272457
:10193600106E800E2820116E100E2920126E000ED9
:10194600146E1C0E136EDBEC33F0020EA1EC34F0B9
:101956004DC027F04EC028F0296A000E2724106ECD
:10196600800E2820116E100E2920126E000E146EA5
:10197600000E136EDBEC33F0020EA1EC34F04DC01A
:1019860027F04EC028F0296A000E2724156E800E17
:101996002820166E100E2920176E640E186E0F0E74
:1019A600196EF5EC31F0A1EC34F00C0E1E6EFF0E44
:1019B6001F6EFF0E206EFF0E216E16EC34F04DC02A
:1019C60027F04EC028F0296A000E2724106E800EDC
:1019D6002820116E100E2920126E000E146EAB0E0A
:1019E600136EDBEC33F0020EA1EC34F04DC027F0A1
:1019F6004EC028F0296A000E2724106E800E28207B
:101A0600116E100E2920126E000E146E3A0E136E11
:101A1600DBEC33F0020EA1EC34F04DC027F04EC0E3
:101A260028F0296A000E2724106E800E2820116ED9
:101A3600100E2920126E000E146E1C0E136EDBECB7
:101A460033F0020EA1EC34F04DC027F04EC028F062
:101A5600296A000E2724106E800E2820116E100EA3
:101A66002920126E000E146E000E136EDBEC33F09E
:101A7600020EA1EC34F04DC027F04EC028F0296AC2
:101A8600000E2724156E800E2820166E100E2920B3
:101A9600176E660E186E0F0E196EF5EC31F0A1EC8E
:101AA60034F00C0E1E6EFF0E1F6EFF0E206EFF0E24
:101AB600216E16EC34F04DC027F04EC028F0296A8E
:101AC600000E2724106E800E2820116E100E29207D
:101AD600126E000E146EC90E136EDBEC33F0020E9E
:101AE600A1EC34F04DC027F04EC028F0296A000E54
:101AF6002724106E800E2820116E100E2920126EDB
:101B0600000E146E210E136EDBEC33F0020EA1EC08
:101B160034F04DC027F04EC028F0296A000E272465
:101B2600106E800E2820116E100E2920126E000EE7
:101B3600146E1C0E136EDBEC33F0020EA1EC34F0C7
:101B46004DC027F04EC028F0296A000E2724106EDB
:101B5600800E2820116E100E2920126E000E146EB3
:101B6600000E136EDBEC33F0020EA1EC34F04DC028
:101B760027F04EC028F0296A000E2724156E800E25
:101B86002820166E100E2920176E680E186E0F0E7E
:101B9600196EF5EC31F0A1EC34F00C0E1E6EFF0E52
:101BA6001F6EFF0E206EFF0E216E16EC34F04DC038
:101BB60027F04EC028F0296A000E2724106E800EEA
:101BC6002820116E100E2920126E000E146EEB0ED8
:101BD600136EDBEC33F0020EA1EC34F04DC027F0AF
:101BE6004EC028F0296A000E2724106E800E282089
:101BF600116E100E2920126E000E146E1A0E136E40
:101C0600DBEC33F0020EA1EC34F04DC027F04EC0F1
:101C160028F0296A000E2724106E800E2820116EE7
:101C2600100E2920126E000E146E1C0E136EDBECC5
:101C360033F0020EA1EC34F04DC027F04EC028F070
:101C4600296A000E2724106E800E2820116E100EB1
:101C56002920126E000E146E000E136EDBEC33F0AC
:101C6600020EA1EC34F04DC027F04EC028F0296AD0
:101C7600000E2724156E800E2820166E100E2920C1
:101C8600176E6A0E186E0F0E196EF5EC31F0A1EC98
:101C960034F00C0E1E6EFF0E1F6EFF0E206EFF0E32
:101CA600216E16EC34F04DC027F04EC028F0296A9C
:101CB600000E2724106E800E2820116E100E29208B
:101CC600126E010E146E0D0E136EDBEC33F0020E67
:101CD600A1EC34F04DC027F04EC028F0296A000E62
:101CE6002724106E800E2820116E100E2920126EE9
:101CF600000E146E210E136EDBEC33F0020EA1EC17
:101D060034F04DC027F04EC028F0296A000E272473
:101D1600106E800E2820116E100E2920126E000EF5
:101D2600146E1C0E136EDBEC33F0020EA1EC34F0D5
:101D36004DC027F04EC028F0296A000E2724106EE9
:101D4600800E2820116E100E2920126E000E146EC1
:101D5600000E136EDBEC33F0020EA1EC34F04DC036
:101D660027F04EC028F0296A000E2724156E800E33
:101D76002820166E100E2920176E6C0E186E0F0E88
:101D8600196EF5EC31F0A1EC34F00C0E1E6EFF0E60
:101D96001F6EFF0E206EFF0E216E16EC34F04DC046
:101DA60027F04EC028F0296A000E2724106E800EF8
:101DB6002820116E100E2920126E010E146E2A0EA6
:101DC600136EDBEC33F0020EA1EC34F04DC027F0BD
:101DD6004EC028F0296A000E2724106E800E282097
:101DE600116E100E2920126E000E146E3A0E136E2E
:101DF600DBEC33F0020EA1EC34F04DC027F04EC000
:101E060028F0296A000E2724106E800E2820116EF5
:101E1600100E2920126E000E146E1C0E136EDBECD3
:101E260033F0020EA1EC34F04DC027F04EC028F07E
:101E3600296A000E2724106E800E2820116E100EBF
:101E46002920126E000E146E000E136EDBEC33F0BA
:101E5600020EA1EC34F04DC027F04EC028F0296ADE
:101E6600000E2724156E800E2820166E100E2920CF
:101E7600176E6E0E186E0F0E196EF5EC31F0A1ECA2
:101E860034F00C0E1E6EFF0E1F6EFF0E206EFF0E40
:101E9600216E16EC34F04DC027F04EC028F0296AAA
:101EA600000E2724106E800E2820116E100E292099
:101EB600126E010E146E2D0E136EDBEC33F0020E55
:101EC600A1EC34F04DC027F04EC028F0296A000E70
:101ED6002724106E800E2820116E100E2920126EF7
:101EE600000E146E5C0E136EDBEC33F0020EA1ECEA
:101EF60034F04DC027F04EC028F0296A000E272482
:101F0600106E800E2820116E100E2920126E000E03
:101F1600146E1C0E136EDBEC33F0020EA1EC34F0E3
:101F26004DC027F04EC028F0296A000E2724106EF7
:101F3600800E2820116E100E2920126E000E146ECF
:101F4600000E136EDBEC33F0020EA1EC34F04DC044
:101F560027F04EC028F0296A000E2724156E800E41
:101F66002820166E100E2920176E520E186E0F0EB0
:101F7600196EF5EC31F0A1EC34F00C0E1E6EFF0E6E
:101F86001F6EFF0E206EFF0E216E16EC34F04DC054
:101F960027F04EC028F0296A000E2724106E800E06
:101FA6002820116E100E2920126E010E146E2B0EB3
:101FB600136EDBEC33F0020EA1EC34F04DC027F0CB
:101FC6004EC028F0296A000E2724106E800E2820A5
:101FD600116E100E2920126E000E146E820E136EF4
:101FE600DBEC33F0020EA1EC34F04DC027F04EC00E
:101FF60028F0296A000E2724106E800E2820116E04
:10200600100E2920126E000E146E1C0E136EDBECE1
:1020160033F0020EA1EC34F04DC027F04EC028F08C
:10202600296A000E2724106E800E2820116E100ECD
:102036002920126E000E146E000E136EDBEC33F0C8
:10204600020EA1EC34F04DC027F04EC028F0296AEC
:10205600000E2724156E800E2820166E100E2920DD
:10206600176E550E186E0F0E196EF5EC31F0A1ECC9
:1020760034F00C0E1E6EFF0E1F6EFF0E206EFF0E4E
:10208600216E16EC34F04DC027F04EC028F0296AB8
:10209600000E2724106E800E2820116E100E2920A7
:1020A600126E010E146E120E136EDBEC33F0020E7E
:1020B600A1EC34F04DC027F04EC028F0296A000E7E
:1020C6002724106E800E2820116E100E2920126E05
:1020D600000E146EA10E136EDBEC33F0020EA1ECB3
:1020E60034F04DC027F04EC028F0296A000E272490
:1020F600106E800E2820116E100E2920126E000E12
:10210600146E1C0E136EDBEC33F0020EA1EC34F0F1
:102116004DC027F04EC028F0296A000E2724106E05
:10212600800E2820116E100E2920126E000E146EDD
:10213600000E136EDBEC33F0020EA1EC34F04DC052
:1021460027F04EC028F0296A000E2724156E800E4F
:102156002820166E100E2920176E580E186E0F0EB8
:10216600196EF5EC31F0A1EC34F00C0E1E6EFF0E7C
:102176001F6EFF0E206EFF0E216E16EC34F04DC062
:1021860027F04EC028F0296A000E2724106E800E14
:102196002820116E100E2920126E000E146EF10EFC
:1021A600136EDBEC33F0020EA1EC34F04DC027F0D9
:1021B6004EC028F0296A000E2724106E800E2820B3
:1021C600116E100E2920126E000E146E720E136E12
:1021D600DBEC33F0020EA1EC34F04DC027F04EC01C
:1021E60028F0296A000E2724106E800E2820116E12
:1021F600100E2920126E000E146E1F0E136EDBECED
:1022060033F0020EA1EC34F04DC027F04EC028F09A
:10221600296A000E2724106E800E2820116E100EDB
:102226002920126E060E146E000E136EDBEC33F0D0
:10223600020EA1EC34F04DC027F04EC028F0296AFA
:10224600000E2724156E800E2820166E100E2920EB
:10225600176E600E186E0F0E196EF5EC31F0A1ECCC
:1022660034F00C0E1E6EFF0E1F6EFF0E206EFF0E5C
:10227600216E16EC34F04DC027F04EC028F0296AC6
:10228600000E2724106E800E2820116E100E2920B5
:10229600126E010E146E0B0E136EDBEC33F0020E93
:1022A600A1EC34F04DC027F04EC028F0296A000E8C
:1022B6002724106E800E2820116E100E2920126E13
:1022C600000E146E6C0E136EDBEC33F0020EA1ECF6
:1022D60034F04DC027F04EC028F0296A000E27249E
:1022E600106E800E2820116E100E2920126E000E20
:1022F600146E1C0E136EDBEC33F0020EA1EC34F000
:102306004DC027F04EC028F0296A000E2724106E13
:10231600800E2820116E100E2920126E000E146EEB
:10232600000E136EDBEC33F0020EA1EC34F04DC060
:1023360027F04EC028F0296A000E2724156E800E5D
:102346002820166E100E2920176E720E186E0F0EAC
:10235600196EF5EC31F0A1EC34F00C0E1E6EFF0E8A
:102366001F6EFF0E206EFF0E216E16EC34F04DC070
:1023760027F04EC028F0296A000E2724106E800E22
:102386002820116E100E2920126E000E146EE30E18
:10239600136EDBEC33F0020EA1EC34F04DC027F0E7
:1023A6004EC028F0296A000E2724106E800E2820C1
:1023B600116E100E2920126E000E146E840E136E0E
:1023C600DBEC33F0020EA1EC34F04DC027F04EC02A
:1023D60028F0296A000E2724106E800E2820116E20
:1023E600100E2920126E000E146E1A0E136EDBEC00
:1023F60033F0020EA1EC34F04DC027F04EC028F0A9
:10240600296A000E2724106E800E2820116E100EE9
:102416002920126E000E146E000E136EDBEC33F0E4
:10242600020EA1EC34F04DC027F04EC028F0296A08
:10243600000E2724156E800E2820166E100E2920F9
:10244600176E4A0E186E0F0E196EF5EC31F0A1ECF0
:1024560034F01200000E1E6E000E1F6EFF0E206E70
:10246600040E216E16EC34F0080E1E6E000E1F6E62
:10247600000E206E1F0E216E16EC34F0000E1E6E3E
:10248600800E1F6E0C0E206E800E216E16EC34F040
:10249600000E1E6E800E1F6E6C0E206E970E216E45
:1024A60016EC34F0000E1E6ED00E1F6E0A0E206E55
:1024B6009B0E216E16EC34F0000E1E6ED00E1F6EB3
:1024C600EA0E206EA00E216E16EC34F0000E1E6E83
:1024D600800E1F6E8C0E206EA40E216E16EC34F04C
:1024E600000E1E6E800E1F6E0C0E206EBC0E216E30
:1024F60016EC34F0000E1E6E000E1F6E000E206EDF
:10250600040E216E16EC34F0080E1E6E000E1F6EC1
:10251600000E206E1F0E216E16EC34F0000E1E6E9D
:10252600D00E1F6E0C0E206E800E216E16EC34F04F
:10253600000E1E6EC00E1F6EAC0E206E970E216E24
:1025460016EC34F0000E1E6E100E1F6E2B0E206E53
:102556009B0E216E16EC34F0000E1E6E100E1F6ED2
:10256600AB0E206EA00E216E16EC34F0000E1E6E21
:10257600C00E1F6E2C0E206EA40E216E16EC34F0CB
:10258600000E1E6ED00E1F6E6C0E206EBC0E216EDF
:1025960016EC34F0000E1E6E7D0E1F6EFF0E206EC2
:1025A600040E216E16EC34F00C0E1E6EFF0E1F6E1E
:1025B600FF0E206EFF0E216E16EC34F04DC030F08B
:1025C6004EC031F0326A000E3024106E800E31207B
:1025D600116E100E3220126E000E146E050E136E62
:1025E600DBEC33F0020EA1EC34F04DC030F04EC0FF
:1025F60031F0326A000E3024106E800E3120116EDA
:10260600100E3220126E000E146ECF0E136EDBEC1F
:1026160033F0020EA1EC34F04DC030F04EC031F074
:10262600326A000E3024106E800E3120116E100EAC
:102636003220126E000E146E1B0E136EDBEC33F09E
:10264600020EA1EC34F04DC030F04EC031F0326ACB
:10265600000E3024106E800E3120116E100E3220C6
:10266600126E000E146E000E136EDBEC33F0020ECB
:10267600A1EC34F04DC030F04EC031F0326A000E9D
:102686003024156E800E3120166E100E3220176E15
:10269600330E186E0F0E196EF5EC31F0A1EC34F016
:1026A6002E0E1E6EFF0E1F6EFF0E206EFF0E216E8B
:1026B60016EC34F04DC030F04EC031F0326A000EE8
:1026C6003024106E800E3120116E100E3220126EE4
:1026D600000E146E420E136EDBEC33F0020EA1EC0C
:1026E60034F04DC030F04EC031F0326A000E302466
:1026F600106E800E3120116E100E3220126E000EFA
:10270600146ED90E136EDBEC33F0020EA1EC34F02E
:102716004DC030F04EC031F0326A000E3024106EDB
:10272600800E3120116E100E3220126E000E146EC5
:102736001B0E136EDBEC33F0020EA1EC34F04DC031
:1027460030F04EC031F0326A000E3024106E800E2A
:102756003120116E100E3220126E060E146E000E0F
:10276600136EDBEC33F0020EA1EC34F0000E1E6E9D
:10277600000E1F6E000E206E000E216E16EC34F059
:102786000C0E1E6EFF0E1F6EFF0E206EFF0E216ECC
:1027960016EC34F04DC030F04EC031F0326A000E07
:1027A6003024106E800E3120116E100E3220126E03
:1027B600010E146EC00E136EDBEC33F0020EA1ECAC
:1027C60034F04DC030F04EC031F0326A000E302485
:1027D600106E800E3120116E100E3220126E000E19
:1027E600146ECF0E136EDBEC33F0020EA1EC34F058
:1027F6004DC030F04EC031F0326A000E3024106EFB
:10280600800E3120116E100E3220126E000E146EE4
:102816001B0E136EDBEC33F0020EA1EC34F04DC050
:1028260030F04EC031F0326A000E3024106E800E49
:102836003120116E100E3220126E080E146E000E2C
:10284600136EDBEC33F0020EA1EC34F04DC030F029
:102856004EC031F0326A000E3024156E800E3120E3
:10286600166E100E3220176E380E186E0F0E196E79
:10287600F5EC31F0A1EC34F02E0E1E6EFF0E1F6E3D
:10288600FF0E206EFF0E216E16EC34F04DC030F0B8
:102896004EC031F0326A000E3024106E800E3120A8
:1028A600116E100E3220126E010E146EDB0E136EB8
:1028B600DBEC33F0020EA1EC34F04DC030F04EC02C
:1028C60031F0326A000E3024106E800E3120116E07
:1028D600100E3220126E000E146ECF0E136EDBEC4D
:1028E60033F0020EA1EC34F04DC030F04EC031F0A2
:1028F600326A000E3024106E800E3120116E100EDA
:102906003220126E000E146E1B0E136EDBEC33F0CB
:10291600020EA1EC34F04DC030F04EC031F0326AF8
:10292600000E3024106E800E3120116E100E3220F3
:10293600126E080E146E000E136EDBEC33F0020EF0
:10294600A1EC34F0000E1E6E000E1F6E000E206EFF
:10295600000E216E16EC34F00C0E1E6EFF0E1F6E6E
:10296600FF0E206EFF0E216E16EC34F04DC030F0D7
:102976004EC031F0326A000E3024106E800E3120C7
:10298600116E100E3220126E000E146EF00E136EC3
:10299600DBEC33F0020EA1EC34F04DC030F04EC04B
:1029A60031F0326A000E3024106E800E3120116E26
:1029B600100E3220126E000E146EA50E136EDBEC96
:1029C60033F0020EA1EC34F04DC030F04EC031F0C1
:1029D600326A000E3024106E800E3120116E100EF9
:1029E6003220126E000E146E1B0E136EDBEC33F0EB
:1029F600020EA1EC34F04DC030F04EC031F0326A18
:102A0600000E3024106E800E3120116E100E322012
:102A1600126E060E146E000E136EDBEC33F0020E11
:102A2600A1EC34F04DC030F04EC031F0326A000EE9
:102A36003024156E800E3120166E100E3220176E61
:102A46004E0E186E0F0E196EF5EC31F0A1EC34F047
:102A56002E0E1E6EFF0E1F6EFF0E206EFF0E216ED7
:102A660016EC34F04DC030F04EC031F0326A000E34
:102A76003024106E800E3120116E100E3220126E30
:102A8600000E146EF00E136EDBEC33F0020EA1ECAA
:102A960034F04DC030F04EC031F0326A000E3024B2
:102AA600106E800E3120116E100E3220126E000E46
:102AB600146EBE0E136EDBEC33F0020EA1EC34F096
:102AC6004DC030F04EC031F0326A000E3024106E28
:102AD600800E3120116E100E3220126E000E146E12
:102AE6001D0E136EDBEC33F0020EA1EC34F04DC07C
:102AF60030F04EC031F0326A000E3024106E800E77
:102B06003120116E100E3220126E060E146E000E5B
:102B1600136EDBEC33F0020EA1EC34F0000E1E6EE9
:102B2600000E1F6E000E206E000E216E16EC34F0A5
:102B3600FF0E1E6EFF0E1F6EFF0E206E040E216E20
:102B460016EC34F02E0E1E6EFF0E1F6EFF0E206E5C
:102B5600FF0E216E16EC34F04DC030F04EC031F051
:102B6600326A000E3024106E800E3120116E100E67
:102B76003220126E000E146E240E136EDBEC33F050
:102B8600020EA1EC34F04DC030F04EC031F0326A86
:102B9600000E3024106E800E3120116E100E322081
:102BA600126E000E146EDE0E136EDBEC33F0020EA8
:102BB600A1EC34F04DC030F04EC031F0326A000E58
:102BC6003024106E800E3120116E100E3220126EDF
:102BD600000E146E1E0E136EDBEC33F0020EA1EC2B
:102BE60034F04DC030F04EC031F0326A000E302461
:102BF600106E800E3120116E100E3220126E080EED
:102C0600146E000E136EDBEC33F0020EA1EC34F002
:102C1600000E1E6E000E1F6E000E206E000E216E40
:102C260016EC34F00C0E1E6EFF0E1F6EFF0E206E9D
:102C3600FF0E216E16EC34F04DC030F04EC031F070
:102C4600326A000E3024106E800E3120116E100E86
:102C56003220126E000E146E270E136EDBEC33F06C
:102C6600020EA1EC34F04DC030F04EC031F0326AA5
:102C7600000E3024106E800E3120116E100E3220A0
:102C8600126E000E146EEE0E136EDBEC33F0020EB7
:102C9600A1EC34F04DC030F04EC031F0326A000E77
:102CA6003024106E800E3120116E100E3220126EFE
:102CB600000E146E1C0E136EDBEC33F0020EA1EC4C
:102CC60034F04DC030F04EC031F0326A000E302480
:102CD600106E800E3120116E100E3220126E060E0E
:102CE600146E000E136EDBEC33F0020EA1EC34F022
:102CF6004DC030F04EC031F0326A000E3024156EF1
:102D0600800E3120166E100E3220176E700E186E61
:102D16000F0E196EF5EC31F0A1EC34F02E0E1E6E8E
:102D2600FF0E1F6EFF0E206EFF0E216E16EC34F0A6
:102D36004DC030F04EC031F0326A000E3024106EB5
:102D4600800E3120116E100E3220126E000E146E9F
:102D56002A0E136EDBEC33F0020EA1EC34F04DC0FC
:102D660030F04EC031F0326A000E3024106E800E04
:102D76003120116E100E3220126E000E146EDE0E11
:102D8600136EDBEC33F0020EA1EC34F04DC030F0E4
:102D96004EC031F0326A000E3024106E800E3120A3
:102DA600116E100E3220126E000E146E1E0E136E71
:102DB600DBEC33F0020EA1EC34F04DC030F04EC027
:102DC60031F0326A000E3024106E800E3120116E02
:102DD600100E3220126E000E146E020E136EDBEC15
:102DE60033F0020EA1EC34F0000E1E6E000E1F6EC4
:102DF600000E206E000E216E16EC34F00C0E1E6EC8
:102E0600FF0E1F6EFF0E206EFF0E216E16EC34F0C5
:102E16004DC030F04EC031F0326A000E3024106ED4
:102E2600800E3120116E100E3220126E000E146EBE
:102E36004F0E136EDBEC33F0020EA1EC34F04DC0F6
:102E460030F04EC031F0326A000E3024106E800E23
:102E56003120116E100E3220126E000E146EEE0E20
:102E6600136EDBEC33F0020EA1EC34F04DC030F003
:102E76004EC031F0326A000E3024106E800E3120C2
:102E8600116E100E3220126E000E146E1C0E136E92
:102E9600DBEC33F0020EA1EC34F04DC030F04EC046
:102EA60031F0326A000E3024106E800E3120116E21
:102EB600100E3220126E060E146E000E136EDBEC30
:102EC60033F0020EA1EC34F04DC030F04EC031F0BC
:102ED600326A000E3024156E800E3120166E100EEA
:102EE6003220176E700E186E0F0E196EF5EC31F05B
:102EF600A1EC34F02E0E1E6EFF0E1F6EFF0E206E1E
:102F0600FF0E216E16EC34F04DC030F04EC031F09D
:102F1600326A000E3024106E800E3120116E100EB3
:102F26003220126E000E146E520E136EDBEC33F06E
:102F3600020EA1EC34F04DC030F04EC031F0326AD2
:102F4600000E3024106E800E3120116E100E3220CD
:102F5600126E000E146EDD0E136EDBEC33F0020EF5
:102F6600A1EC34F04DC030F04EC031F0326A000EA4
:102F76003024106E800E3120116E100E3220126E2B
:102F8600000E146E1E0E136EDBEC33F0020EA1EC77
:102F960034F04DC030F04EC031F0326A000E3024AD
:102FA600106E800E3120116E100E3220126E000E41
:102FB600146E020E136EDBEC33F0020EA1EC34F04D
:102FC600000E1E6E000E1F6E000E206E000E216E8D
:102FD60016EC34F02E0E1E6EFF0E1F6EFF0E206EC8
:102FE600FF0E216E16EC34F04DC030F04EC031F0BD
:102FF600326A000E3024106E800E3120116E100ED3
:103006003220126E010E146E8D0E136EDBEC33F051
:10301600020EA1EC34F04DC030F04EC031F0326AF1
:10302600000E3024106E800E3120116E100E3220EC
:10303600126E000E146EDE0E136EDBEC33F0020E13
:10304600A1EC34F04DC030F04EC031F0326A000EC3
:103056003024106E800E3120116E100E3220126E4A
:10306600000E146E1E0E136EDBEC33F0020EA1EC96
:1030760034F04DC030F04EC031F0326A000E3024CC
:10308600106E800E3120116E100E3220126E080E58
:10309600146E000E136EDBEC33F0020EA1EC34F06E
:1030A600000E1E6E000E1F6E000E206E000E216EAC
:1030B60016EC34F00C0E1E6EFF0E1F6EFF0E206E09
:1030C600FF0E216E16EC34F04DC030F04EC031F0DC
:1030D600326A000E3024106E800E3120116E100EF2
:1030E6003220126E010E146E900E136EDBEC33F06E
:1030F600020EA1EC34F04DC030F04EC031F0326A11
:10310600000E3024106E800E3120116E100E32200B
:10311600126E000E146EEF0E136EDBEC33F0020E21
:10312600A1EC34F04DC030F04EC031F0326A000EE2
:103136003024106E800E3120116E100E3220126E69
:10314600000E146E1C0E136EDBEC33F0020EA1ECB7
:1031560034F04DC030F04EC031F0326A000E3024EB
:10316600106E800E3120116E100E3220126E060E79
:10317600146E000E136EDBEC33F0020EA1EC34F08D
:103186004DC030F04EC031F0326A000E3024156E5C
:10319600800E3120166E100E3220176E700E186ECD
:1031A6000F0E196EF5EC31F0A1EC34F02E0E1E6EFA
:1031B600FF0E1F6EFF0E206EFF0E216E16EC34F012
:1031C6004DC030F04EC031F0326A000E3024106E21
:1031D600800E3120116E100E3220126E010E146E0A
:1031E600930E136EDBEC33F0020EA1EC34F04DC0FF
:1031F60030F04EC031F0326A000E3024106E800E70
:103206003120116E100E3220126E000E146EDE0E7C
:10321600136EDBEC33F0020EA1EC34F04DC030F04F
:103226004EC031F0326A000E3024106E800E31200E
:10323600116E100E3220126E000E146E1E0E136EDC
:10324600DBEC33F0020EA1EC34F04DC030F04EC092
:1032560031F0326A000E3024106E800E3120116E6D
:10326600100E3220126E000E146E020E136EDBEC80
:1032760033F0020EA1EC34F0000E1E6E000E1F6E2F
:10328600000E206E000E216E16EC34F00C0E1E6E33
:10329600FF0E1F6EFF0E206EFF0E216E16EC34F031
:1032A6004DC030F04EC031F0326A000E3024106E40
:1032B600800E3120116E100E3220126E010E146E29
:1032C600B70E136EDBEC33F0020EA1EC34F04DC0FA
:1032D60030F04EC031F0326A000E3024106E800E8F
:1032E6003120116E100E3220126E000E146EEF0E8B
:1032F600136EDBEC33F0020EA1EC34F04DC030F06F
:103306004EC031F0326A000E3024106E800E31202D
:10331600116E100E3220126E000E146E1C0E136EFD
:10332600DBEC33F0020EA1EC34F04DC030F04EC0B1
:1033360031F0326A000E3024106E800E3120116E8C
:10334600100E3220126E060E146E000E136EDBEC9B
:1033560033F0020EA1EC34F04DC030F04EC031F027
:10336600326A000E3024156E800E3120166E100E55
:103376003220176E700E186E0F0E196EF5EC31F0C6
:10338600A1EC34F02E0E1E6EFF0E1F6EFF0E206E89
:10339600FF0E216E16EC34F04DC030F04EC031F009
:1033A600326A000E3024106E800E3120116E100E1F
:1033B6003220126E010E146EDB0E136EDBEC33F050
:1033C600020EA1EC34F04DC030F04EC031F0326A3E
:1033D600000E3024106E800E3120116E100E322039
:1033E600126E000E146EDE0E136EDBEC33F0020E60
:1033F600A1EC34F04DC030F04EC031F0326A000E10
:103406003024106E800E3120116E100E3220126E96
:10341600000E146E1E0E136EDBEC33F0020EA1ECE2
:1034260034F04DC030F04EC031F0326A000E302418
:10343600106E800E3120116E100E3220126E080EA4
:10344600146E000E136EDBEC33F0020EA1EC34F0BA
:10345600000E1E6E000E1F6E000E206E000E216EF8
:1034660016EC34F02E0E1E6EFF0E1F6EFF0E206E33
:10347600FF0E216E16EC34F04DC030F04EC031F028
:10348600326A000E3024106E800E3120116E100E3E
:103496003220126E000E146ED90E136EDBEC33F072
:1034A600020EA1EC34F04DC030F04EC031F0326A5D
:1034B600000E3024106E800E3120116E100E322058
:1034C600126E000E146EED0E136EDBEC33F0020E70
:1034D600A1EC34F04DC030F04EC031F0326A000E2F
:1034E6003024106E800E3120116E100E3220126EB6
:1034F600000E146E1E0E136EDBEC33F0020EA1EC02
:1035060034F04DC030F04EC031F0326A000E302437
:10351600106E800E3120116E100E3220126E080EC3
:10352600146E000E136EDBEC33F0020EA1EC34F0D9
:10353600000E1E6E000E1F6E000E206E000E216E17
:1035460016EC34F00C0E1E6EFF0E1F6EFF0E206E74
:10355600FF0E216E16EC34F04DC030F04EC031F047
:10356600326A000E3024106E800E3120116E100E5D
:103576003220126E000E146EDD0E136EDBEC33F08D
:10358600020EA1EC34F04DC030F04EC031F0326A7C
:10359600000E3024106E800E3120116E100E322077
:1035A600126E000E146EFE0E136EDBEC33F0020E7E
:1035B600A1EC34F04DC030F04EC031F0326A000E4E
:1035C6003024106E800E3120116E100E3220126ED5
:1035D600000E146E1C0E136EDBEC33F0020EA1EC23
:1035E60034F04DC030F04EC031F0326A000E302457
:1035F600106E800E3120116E100E3220126E060EE5
:10360600146E000E136EDBEC33F0020EA1EC34F0F8
:103616004DC030F04EC031F0326A000E3024156EC7
:10362600800E3120166E100E3220176E700E186E38
:103636000F0E196EF5EC31F0A1EC34F02E0E1E6E65
:10364600FF0E1F6EFF0E206EFF0E216E16EC34F07D
:103656004DC030F04EC031F0326A000E3024106E8C
:10366600800E3120116E100E3220126E000E146E76
:10367600F00E136EDBEC33F0020EA1EC34F04DC00D
:1036860030F04EC031F0326A000E3024106E800EDB
:103696003120116E100E3220126E000E146E136859
:1036A600DBEC33F0020EA1EC34F04DC030F04EC02E
:1036B60031F0326A000E3024106E800E3120116E09
:1036C600100E3220126E000E146E1E0E136EDBEC00
:1036D60033F0020EA1EC34F04DC030F04EC031F0A4
:1036E600326A000E3024106E800E3120116E100EDC
:1036F6003220126E060E146E000E136EDBEC33F0E3
:10370600020EA1EC34F0000E1E6E000E1F6E000EAF
:10371600206E000E216E16EC34F00C0E1E6EFF0E9F
:103726001F6EFF0E206EFF0E216E16EC34F04DC09C
:1037360030F04EC031F0326A000E3024106E800E2A
:103746003120116E100E3220126E010E146E050E0F
:10375600136EDBEC33F0020EA1EC34F04DC030F00A
:103766004EC031F0326A000E3024106E800E3120C9
:10377600116E100E3220126E000E146EFE0E136EB7
:10378600DBEC33F0020EA1EC34F04DC030F04EC04D
:1037960031F0326A000E3024106E800E3120116E28
:1037A600100E3220126E000E146E1C0E136EDBEC21
:1037B60033F0020EA1EC34F04DC030F04EC031F0C3
:1037C600326A000E3024106E800E3120116E100EFB
:1037D6003220126E060E146E000E136EDBEC33F002
:1037E600020EA1EC34F04DC030F04EC031F0326A1A
:1037F600000E3024156E800E3120166E100E32200B
:10380600176E700E186E0F0E196EF5EC31F0A1ECF6
:1038160034F02E0E1E6EFF0E1F6EFF0E206EFF0E74
:10382600216E16EC34F04DC030F04EC031F0326AE5
:10383600000E3024106E800E3120116E100E3220D4
:10384600126E010E146E2A0E136EDBEC33F0020EAE
:10385600A1EC34F04DC030F04EC031F0326A000EAB
:103866003024106E800E3120116E100E3220126E32
:10387600000E146EED0E136EDBEC33F0020EA1ECAF
:1038860034F04DC030F04EC031F0326A000E3024B4
:10389600106E800E3120116E100E3220126E000E48
:1038A600146E1E0E136EDBEC33F0020EA1EC34F038
:1038B6004DC030F04EC031F0326A000E3024106E2A
:1038C600800E3120116E100E3220126E080E146E0C
:1038D600000E136EDBEC33F0020EA1EC34F0000E9A
:1038E6001E6E000E1F6E000E206E000E216E16EC70
:1038F60034F01200000E296E050E286EFF0E1E6EA5
:10390600FF0E1F6EFF0E206E040E216E16EC34F0B5
:103916000C0E1E6EFF0E1F6EFF0E206EFF0E216E2A
:1039260016EC34F04DC025F04EC026F0276A000E86
:103936002524106E800E2620116E100E2720126E82
:10394600000E146E050E136EDBEC33F0020EA1ECC6
:1039560034F04DC025F04EC026F0276A000E25240F
:10396600106E800E2620116E100E2720126E28C0B3
:1039760013F029C014F0DBEC33F0020EA1EC34F0A6
:103986004DC025F04EC026F0276A000E2524106E85
:10399600800E2620116E100E2720126E000E146E59
:1039A6001A0E136EDBEC33F0020EA1EC34F04DC0B0
:1039B60025F04EC026F0276A000E2524106E800ED4
:1039C6002620116E100E2720126E000E146E000EA9
:1039D600136EDBEC33F0020EA1EC34F04DC025F093
:1039E6004EC026F0276A000E2524156E800E26206E
:1039F600166E100E2720176E070E186E0F0E196E14
:103A0600F5EC31F0A1EC34F00C0E1E6EFF0E1F6EBD
:103A1600FF0E206EFF0E216E16EC34F04DC025F021
:103A26004EC026F0276A000E2524106E800E262032
:103A3600116E100E2720126E000E146E050E136EF8
:103A4600DBEC33F0020EA1EC34F04DC025F04EC095
:103A560026F0276A000E2524106E800E2620116E91
:103A6600100E2720126E0F0E2826000E292228C0BF
:103A760013F029C014F0DBEC33F0020EA1EC34F0A5
:103A86004DC025F04EC026F0276A000E2524106E84
:103A9600800E2620116E100E2720126E000E146E58
:103AA6001A0E136EDBEC33F0020EA1EC34F04DC0AF
:103AB60025F04EC026F0276A000E2524106E800ED3
:103AC6002620116E100E2720126E000E146E000EA8
:103AD600136EDBEC33F0020EA1EC34F04DC025F092
:103AE6004EC026F0276A000E2524156E800E26206D
:103AF600166E100E2720176E2E0E186E0F0E196EEC
:103B0600F5EC31F0A1EC34F00C0E1E6EFF0E1F6EBC
:103B1600FF0E206EFF0E216E16EC34F04DC025F020
:103B26004EC026F0276A000E2524106E800E262031
:103B3600116E100E2720126E000E146E050E136EF7
:103B4600DBEC33F0020EA1EC34F04DC025F04EC094
:103B560026F0276A000E2524106E800E2620116E90
:103B6600100E2720126E190E2826000E292228C0B4
:103B760013F029C014F0DBEC33F0020EA1EC34F0A4
:103B86004DC025F04EC026F0276A000E2524106E83
:103B9600800E2620116E100E2720126E000E146E57
:103BA6001A0E136EDBEC33F0020EA1EC34F04DC0AE
:103BB60025F04EC026F0276A000E2524106E800ED2
:103BC6002620116E100E2720126E000E146E000EA7
:103BD600136EDBEC33F0020EA1EC34F04DC025F091
:103BE6004EC026F0276A000E2524156E800E26206C
:103BF600166E100E2720176E460E186E0F0E196ED3
:103C0600F5EC31F0A1EC34F00C0E1E6EFF0E1F6EBB
:103C1600FF0E206EFF0E216E16EC34F04DC025F01F
:103C26004EC026F0276A000E2524106E800E262030
:103C3600116E100E2720126E000E146E050E136EF6
:103C4600DBEC33F0020EA1EC34F04DC025F04EC093
:103C560026F0276A000E2524106E800E2620116E8F
:103C6600100E2720126E0F0E2826000E292228C0BD
:103C760013F029C014F0DBEC33F0020EA1EC34F0A3
:103C86004DC025F04EC026F0276A000E2524106E82
:103C9600800E2620116E100E2720126E000E146E56
:103CA6001A0E136EDBEC33F0020EA1EC34F04DC0AD
:103CB60025F04EC026F0276A000E2524106E800ED1
:103CC6002620116E100E2720126E000E146E000EA6
:103CD600136EDBEC33F0020EA1EC34F04DC025F090
:103CE6004EC026F0276A000E2524156E800E26206B
:103CF600166E100E2720176E2E0E186E0F0E196EEA
:103D0600F5EC31F0A1EC34F00C0E1E6EFF0E1F6EBA
:103D1600FF0E206EFF0E216E16EC34F04DC025F01E
:103D26004EC026F0276A000E2524106E800E26202F
:103D3600116E100E2720126E000E146E050E136EF5
:103D4600DBEC33F0020EA1EC34F04DC025F04EC092
:103D560026F0276A000E2524106E800E2620116E8E
:103D6600100E2720126E190E2826000E292228C0B2
:103D760013F029C014F0DBEC33F0020EA1EC34F0A2
:103D86004DC025F04EC026F0276A000E2524106E81
:103D9600800E2620116E100E2720126E000E146E55
:103DA6001A0E136EDBEC33F0020EA1EC34F04DC0AC
:103DB60025F04EC026F0276A000E2524106E800ED0
:103DC6002620116E100E2720126E000E146E000EA5
:103DD600136EDBEC33F0020EA1EC34F04DC025F08F
:103DE6004EC026F0276A000E2524156E800E26206A
:103DF600166E100E2720176E290E186E0F0E196EEE
:103E0600F5EC31F0A1EC34F00C0E1E6EFF0E1F6EB9
:103E1600FF0E206EFF0E216E16EC34F04DC025F01D
:103E26004EC026F0276A000E2524106E800E26202E
:103E3600116E100E2720126E000E146E050E136EF4
:103E4600DBEC33F0020EA1EC34F04DC025F04EC091
:103E560026F0276A000E2524106E800E2620116E8D
:103E6600100E2720126E0F0E2826000E292228C0BB
:103E760013F029C014F0DBEC33F0020EA1EC34F0A1
:103E86004DC025F04EC026F0276A000E2524106E80
:103E9600800E2620116E100E2720126E000E146E54
:103EA6001A0E136EDBEC33F0020EA1EC34F04DC0AB
:103EB60025F04EC026F0276A000E2524106E800ECF
:103EC6002620116E100E2720126E000E146E000EA4
:103ED600136EDBEC33F0020EA1EC34F04DC025F08E
:103EE6004EC026F0276A000E2524156E800E262069
:103EF600166E100E2720176E240E186E0F0E196EF2
:103F0600F5EC31F0A1EC34F00C0E1E6EFF0E1F6EB8
:103F1600FF0E206EFF0E216E16EC34F04DC025F01C
:103F26004EC026F0276A000E2524106E800E26202D
:103F3600116E100E2720126E000E146E050E136EF3
:103F4600DBEC33F0020EA1EC34F04DC025F04EC090
:103F560026F0276A000E2524106E800E2620116E8C
:103F6600100E2720126E190E2826000E292228C0B0
:103F760013F029C014F0DBEC33F0020EA1EC34F0A0
:103F86004DC025F04EC026F0276A000E2524106E7F
:103F9600800E2620116E100E2720126E000E146E53
:103FA6001A0E136EDBEC33F0020EA1EC34F04DC0AA
:103FB60025F04EC026F0276A000E2524106E800ECE
:103FC6002620116E100E2720126E000E146E000EA3
:103FD600136EDBEC33F0020EA1EC34F04DC025F08D
:103FE6004EC026F0276A000E2524156E800E262068
:103FF600166E100E2720176E3D0E186E0F0E196ED8
:10400600F5EC31F0A1EC34F00C0E1E6EFF0E1F6EB7
:10401600FF0E206EFF0E216E16EC34F04DC025F01B
:104026004EC026F0276A000E2524106E800E26202C
:10403600116E100E2720126E000E146E050E136EF2
:10404600DBEC33F0020EA1EC34F04DC025F04EC08F
:1040560026F0276A000E2524106E800E2620116E8B
:10406600100E2720126E0F0E2826000E292228C0B9
:1040760013F029C014F0DBEC33F0020EA1EC34F09F
:104086004DC025F04EC026F0276A000E2524106E7E
:10409600800E2620116E100E2720126E000E146E52
:1040A6001A0E136EDBEC33F0020EA1EC34F04DC0A9
:1040B60025F04EC026F0276A000E2524106E800ECD
:1040C6002620116E100E2720126E000E146E000EA2
:1040D600136EDBEC33F0020EA1EC34F04DC025F08C
:1040E6004EC026F0276A000E2524156E800E262067
:1040F600166E100E2720176E130E186E0F0E196E01
:10410600F5EC31F0A1EC34F00C0E1E6EFF0E1F6EB6
:10411600FF0E206EFF0E216E16EC34F04DC025F01A
:104126004EC026F0276A000E2524106E800E26202B
:10413600116E100E2720126E000E146E050E136EF1
:10414600DBEC33F0020EA1EC34F04DC025F04EC08E
:1041560026F0276A000E2524106E800E2620116E8A
:10416600100E2720126E190E2826000E292228C0AE
:1041760013F029C014F0DBEC33F0020EA1EC34F09E
:104186004DC025F04EC026F0276A000E2524106E7D
:10419600800E2620116E100E2720126E000E146E51
:1041A6001A0E136EDBEC33F0020EA1EC34F04DC0A8
:1041B60025F04EC026F0276A000E2524106E800ECC
:1041C6002620116E100E2720126E000E146E000EA1
:1041D600136EDBEC33F0020EA1EC34F04DC025F08B
:1041E6004EC026F0276A000E2524156E800E262066
:1041F600166E100E2720176E460E186E0F0E196ECD
:10420600F5EC31F0A1EC34F00C0E1E6EFF0E1F6EB5
:10421600FF0E206EFF0E216E16EC34F04DC025F019
:104226004EC026F0276A000E2524106E800E26202A
:10423600116E100E2720126E000E146E050E136EF0
:10424600DBEC33F0020EA1EC34F04DC025F04EC08D
:1042560026F0276A000E2524106E800E2620116E89
:10426600100E2720126E0F0E2826000E292228C0B7
:1042760013F029C014F0DBEC33F0020EA1EC34F09D
:104286004DC025F04EC026F0276A000E2524106E7C
:10429600800E2620116E100E2720126E000E146E50
:1042A6001A0E136EDBEC33F0020EA1EC34F04DC0A7
:1042B60025F04EC026F0276A000E2524106E800ECB
:1042C6002620116E100E2720126E000E146E000EA0
:1042D600136EDBEC33F0020EA1EC34F04DC025F08A
:1042E6004EC026F0276A000E2524156E800E262065
:1042F600166E100E2720176E0D0E186E0F0E196E05
:10430600F5EC31F0A1EC34F00C0E1E6EFF0E1F6EB4
:10431600FF0E206EFF0E216E16EC34F04DC025F018
:104326004EC026F0276A000E2524106E800E262029
:10433600116E100E2720126E010E146E680E136E8B
:10434600DBEC33F0020EA1EC34F04DC025F04EC08C
:1043560026F0276A000E2524106E800E2620116E88
:10436600100E2720126E000E146E820E136EDBECFA
:1043760033F0020EA1EC34F04DC025F04EC026F00D
:10438600276A000E2524106E800E2620116E100E50
:104396002720126E000E146E1A0E136EDBEC33F02D
:1043A600020EA1EC34F04DC025F04EC026F0276A6F
:1043B600000E2524106E800E2620116E100E27206A
:1043C600126E000E146E000E136EDBEC33F0020E4E
:1043D600A1EC34F04DC025F04EC026F0276A000E41
:1043E6002524156E800E2620166E100E2720176EB9
:1043F600010E186E0F0E196EF5EC31F0A1EC34F0CB
:104406000C0E1E6EFF0E1F6EFF0E206EFF0E216E2F
:1044160016EC34F04DC025F04EC026F0276A000E8B
:104426002524106E800E2620116E100E2720126E87
:10443600010E146E680E136EDBEC33F0020EA1EC67
:1044460034F04DC025F04EC026F0276A000E252414
:10445600106E800E2620116E100E2720126E000E92
:10446600146E910E136EDBEC33F0020EA1EC34F0F9
:104476004DC025F04EC026F0276A000E2524106E8A
:10448600800E2620116E100E2720126E000E146E5E
:104496001A0E136EDBEC33F0020EA1EC34F04DC0B5
:1044A60025F04EC026F0276A000E2524106E800ED9
:1044B6002620116E100E2720126E000E146E000EAE
:1044C600136EDBEC33F0020EA1EC34F04DC025F098
:1044D6004EC026F0276A000E2524156E800E262073
:1044E600166E100E2720176E420E186E0F0E196EDE
:1044F600F5EC31F0A1EC34F00C0E1E6EFF0E1F6EC3
:10450600FF0E206EFF0E216E16EC34F04DC025F026
:104516004EC026F0276A000E2524106E800E262037
:10452600116E100E2720126E010E146E7C0E136E85
:10453600DBEC33F0020EA1EC34F04DC025F04EC09A
:1045460026F0276A000E2524106E800E2620116E96
:10455600100E2720126E000E146EB40E136EDBECD6
:1045660033F0020EA1EC34F04DC025F04EC026F01B
:10457600276A000E2524106E800E2620116E100E5E
:104586002720126E000E146E1A0E136EDBEC33F03B
:10459600020EA1EC34F04DC025F04EC026F0276A7D
:1045A600000E2524106E800E2620116E100E272078
:1045B600126E000E146E000E136EDBEC33F0020E5C
:1045C600A1EC34F04DC025F04EC026F0276A000E4F
:1045D6002524156E800E2620166E100E2720176EC7
:1045E6005B0E186E0F0E196EF5EC31F0A1EC34F07F
:1045F6000C0E1E6EFF0E1F6EFF0E206EFF0E216E3E
:1046060016EC34F04DC025F04EC026F0276A000E99
:104616002524106E800E2620116E100E2720126E95
:10462600010E146ECB0E136EDBEC33F0020EA1EC12
:1046360034F04DC025F04EC026F0276A000E252422
:10464600106E800E2620116E100E2720126E000EA0
:10465600146EAE0E136EDBEC33F0020EA1EC34F0EA
:104666004DC025F04EC026F0276A000E2524106E98
:10467600800E2620116E100E2720126E000E146E6C
:104686001C0E136EDBEC33F0020EA1EC34F04DC0C1
:1046960025F04EC026F0276A000E2524106E800EE7
:1046A6002620116E100E2720126E000E146E000EBC
:1046B600136EDBEC33F0020EA1EC34F04DC025F0A6
:1046C6004EC026F0276A000E2524156E800E262081
:1046D600166E100E2720176E5E0E186E0F0E196ED0
:1046E600F5EC31F0A1EC34F0020E1E6E000E1F6EDA
:1046F600000E206E1F0E216E16EC34F0140E1E6E88
:10470600140E1F6E140E206E040E216E16EC34F07D
:10471600D60E1E6E060E1F6E000E206E0D0E216E3C
:1047260016EC34F0000E1E6E300E1F6E070E206E55
:104736009E0E216E16EC34F03C0E1E6E3C0E1F6E65
:104746003C0E206E040E216E16EC34F0720E1E6EB8
:10475600060E1F6E000E206E0D0E216E16EC34F046
:10476600000E1E6E300E1F6E070E206E9E0E216E00
:1047760016EC34F01200600E1E6E000E1F6E000E58
:10478600206E0E0E216E16EC34F0000E1E6E7D0E9F
:104796001F6ECA0E206E040E216E16EC34F0030E48
:1047A6001E6E000E1F6E000E206E1F0E216E16EC82
:1047B60034F037D2000E1E6EF00E1F6E800E206E85
:1047C600AF0E216E16EC34F0000E1E6E300E1F6E0C
:1047D600870E206EAF0E216E16EC34F0000E1E6EA4
:1047E600F00E1F6E800E206EAF0E216E16EC34F0AA
:1047F600000E1E6E300E1F6E870E206EB90E216ED5
:1048060016EC34F0000E1E6E400E1F6E870E206EE4
:10481600B90E216E16EC34F0000E1E6EF00E1F6EF1
:10482600800E206EB90E216E16EC34F01200000ECA
:104836001E6EF00E1F6E800E206EB40E216E16ECEC
:1048460034F0000E1E6E300E1F6E870E206EB40EF4
:10485600216E16EC34F0000E1E6EF00E1F6E600E0A
:10486600206EB40E216E16EC34F0000E1E6EE00EB5
:104876001F6E010E206EB20E216E16EC34F0000E85
:104886001E6E400E1F6EA70E206EB20E216E16EC27
:1048960034F0000E1E6E400E1F6E670E206EB60EB2
:1048A600216E16EC34F01200000E1E6EF00E1F6E16
:1048B600800E206EAF0E216E16EC34F0000E1E6ECA
:1048C600F00E1F6E800E206EB90E216E16EC34F0BF
:1048D600000E1E6E000E1F6E810E206EB90E216E2A
:1048E60016EC34F0000E1E6E000E1F6E840E206E47
:1048F600B90E216E16EC34F0000E1E6E100E1F6EF1
:10490600840E206EB90E216E16EC34F0000E1E6E6B
:10491600100E1F6E840E206EAF0E216E16EC34F054
:10492600000E1E6E200E1F6E840E206EAF0E216EC0
:1049360016EC34F0000E1E6E300E1F6E870E206EC3
:10494600AF0E216E16EC34F0000E1E6E300E1F6E8A
:10495600A70E206EAF0E216E16EC34F0000E1E6E02
:10496600300E1F6E870E206EB90E216E16EC34F0D7
:104976001200000E1E6EF00E1F6E800E206EAF0E21
:10498600216E16EC34F0000E1E6EF00E1F6E600ED9
:10499600206EB90E216E16EC34F0000E1E6E000E5F
:1049A6001F6E810E206EB90E216E16EC34F0000ECD
:1049B6001E6E300E1F6E870E206EB90E216E16EC1F
:1049C60034F0000E1E6E100E1F6E640E206EB90EB1
:1049D600216E16EC34F0000E1E6E100E1F6E840E45
:1049E600206EAF0E216E16EC34F0000E1E6E300EE9
:1049F6001F6EA70E206EAF0E216E16EC34F0000E61
:104A06001E6E300E1F6E670E206EB90E216E16ECEE
:104A160034F01200000E1E6EF00E1F6E800E206E19
:104A2600AF0E216E16EC34F0000E1E6E000E1F6ED9
:104A3600840E206EAF0E216E16EC34F0000E1E6E44
:104A4600000E1F6E810E206EB90E216E16EC34F02C
:104A5600000E1E6E300E1F6E870E206EB90E216E72
:104A660016EC34F0000E1E6E100E1F6E240E206E15
:104A7600B90E216E16EC34F0000E1E6E100E1F6E6F
:104A8600A40E206EAF0E216E16EC34F01200000E4E
:104A96001E6EF00E1F6E800E206EAF0E216E16EC8F
:104AA60034F0000E1E6EF00E1F6E600E206EB90EF4
:104AB600216E16EC34F0000E1E6E000E1F6E810E77
:104AC600206EAF0E216E16EC34F0000E1E6E000E38
:104AD6001F6E840E206EAF0E216E16EC34F0000EA3
:104AE6001E6E100E1F6E840E206EB90E216E16EC11
:104AF60034F0000E1E6E200E1F6E870E206EB90E4D
:104B0600216E16EC34F0000E1E6E100E1F6E240E73
:104B1600206EB90E216E16EC34F0000E1E6E100ECD
:104B26001F6EA40E206EAF0E216E16EC34F0000E32
:104B36001E6E300E1F6EA70E206EAF0E216E16EC87
:104B460034F0000E1E6E300E1F6E670E206EB90E0C
:104B5600216E16EC34F01200000E1E6EF00E1F6E63
:104B6600800E206EAF0E216E16EC34F0000E1E6E17
:104B7600F00E1F6E600E206EB90E216E16EC34F02C
:104B8600000E1E6E000E1F6E810E206EAF0E216E81
:104B960016EC34F0000E1E6E300E1F6E870E206E61
:104BA600AF0E216E16EC34F0000E1E6E100E1F6E48
:104BB600840E206EB90E216E16EC34F0000E1E6EB9
:104BC600200E1F6E870E206EB90E216E16EC34F085
:104BD600000E1E6E100E1F6E240E206EB90E216E74
:104BE60016EC34F0000E1E6E100E1F6EA40E206E14
:104BF600AF0E216E16EC34F0000E1E6E300E1F6ED8
:104C0600A70E206EAF0E216E16EC34F0000E1E6E4F
:104C1600300E1F6E670E206EB90E216E16EC34F044
:104C2600120025C027F026C028F02850000AD8A474
:104C360012002750000AD8B4BDD5010AD8B4F7D55A
:104C4600030AD8B431D6010AD8B493D6070AD8B421
:104C5600E1D6010AD8B41BD7030AD8A412007CD720
:104C66002E0E1E6EFF0E1F6EFF0E206EFF0E216EA5
:104C760016EC34F04DC027F04EC028F0296A000E1D
:104C86002724106E800E2820116E100E2920126E19
:104C9600000E146E420E136EDBEC33F0020EA1EC26
:104CA60034F04DC027F04EC028F0296A000E2724A4
:104CB600106E800E2820116E100E2920126E000E26
:104CC600146E820E136EDBEC33F0020EA1EC34F0A0
:104CD6004DC027F04EC028F0296A000E2724106E1A
:104CE600800E2820116E100E2920126E000E146EF2
:104CF6001C0E136EDBEC33F0020EA1EC34F04DC04B
:104D060027F04EC028F0296A000E2724106E800E68
:104D16002820116E100E2920126E000E146E000E41
:104D2600136EDBEC33F0020EA1EC34F025C00FF06D
:104D360026C010F0000E126E0A0E116E7FEC32F0D5
:104D46000FC01EF010C01FF0000E1FBEFF0E206E1B
:104D5600216E16EC34F00C0E1E6EFF0E1F6EFF0E4B
:104D6600206EFF0E216E16EC34F04DC027F04EC0BB
:104D760028F0296A000E2724106E800E2820116E56
:104D8600100E2920126E000E146E5A0E136EDBECF6
:104D960033F0020EA1EC34F04DC027F04EC028F0DF
:104DA600296A000E2724106E800E2820116E100E20
:104DB6002920126E000E146E830E136EDBEC33F098
:104DC600020EA1EC34F04DC027F04EC028F0296A3F
:104DD600000E2724106E800E2820116E100E29203A
:104DE600126E000E146E1C0E136EDBEC33F0020E08
:104DF600A1EC34F04DC027F04EC028F0296A000E11
:104E06002724106E800E2820116E100E2920126E97
:104E1600000E146E000E136EDBEC33F0020EA1ECE6
:104E260034F04DC027F04EC028F0296A000E272422
:104E3600156E800E2820166E100E2920176E600E35
:104E4600186E0F0E196EF5EC31F0A1EC34F02E0E43
:104E56001E6EFF0E1F6EFF0E206EFF0E216E16ECED
:104E660034F04DC027F04EC028F0296A000E2724E2
:104E7600106E800E2820116E100E2920126E000E64
:104E8600146E600E136EDBEC33F0020EA1EC34F000
:104E96004DC027F04EC028F0296A000E2724106E58
:104EA600800E2820116E100E2920126E000E146E30
:104EB600820E136EDBEC33F0020EA1EC34F04DC023
:104EC60027F04EC028F0296A000E2724106E800EA7
:104ED6002820116E100E2920126E000E146E1C0E64
:104EE600136EDBEC33F0020EA1EC34F04DC027F06C
:104EF6004EC028F0296A000E2724106E800E282046
:104F0600116E100E2920126E000E146E000E136E16
:104F1600DBEC33F0020EA1EC34F025C017F026C00E
:104F260018F0000E1A6E0A0E196EFDEC32F017C05C
:104F36001EF018C01FF0000E1FBEFF0E206E216E61
:104F460016EC34F012002E0E1E6EFF0E1F6EFF0EB4
:104F5600206EFF0E216E16EC34F04DC027F04EC0C9
:104F660028F0296A000E2724106E800E2820116E64
:104F7600100E2920126E000E146E420E136EDBEC1C
:104F860033F0020EA1EC34F04DC027F04EC028F0ED
:104F9600296A000E2724106E800E2820116E100E2E
:104FA6002920126E000E146E590E136EDBEC33F0D0
:104FB600020EA1EC34F04DC027F04EC028F0296A4D
:104FC600000E2724106E800E2820116E100E292048
:104FD600126E000E146E1C0E136EDBEC33F0020E16
:104FE600A1EC34F04DC027F04EC028F0296A000E1F
:104FF6002724106E800E2820116E100E2920126EA6
:10500600000E146E000E136EDBEC33F0020EA1ECF4
:1050160034F0030E1E6E000E1F6E000E206E000E84
:10502600216E16EC34F00C0E1E6EFF0E1F6EFF0E78
:10503600206EFF0E216E16EC34F04DC027F04EC0E8
:1050460028F0296A000E2724106E800E2820116E83
:10505600100E2920126E000E146E4E0E136EDBEC2F
:1050660033F0020EA1EC34F04DC027F04EC028F00C
:10507600296A000E2724106E800E2820116E100E4D
:105086002920126E000E146E5A0E136EDBEC33F0EE
:10509600020EA1EC34F04DC027F04EC028F0296A6C
:1050A600000E2724106E800E2820116E100E292067
:1050B600126E000E146E1C0E136EDBEC33F0020E35
:1050C600A1EC34F04DC027F04EC028F0296A000E3E
:1050D6002724106E800E2820116E100E2920126EC5
:1050E600000E146E000E136EDBEC33F0020EA1EC14
:1050F60034F04DC027F04EC028F0296A000E272450
:10510600156E800E2820166E100E2920176E600E62
:10511600186E0F0E196EF5EC31F0A1EC34F02E0E70
:105126001E6EFF0E1F6EFF0E206EFF0E216E16EC1A
:1051360034F04DC027F04EC028F0296A000E27240F
:10514600106E800E2820116E100E2920126E000E91
:10515600146E530E136EDBEC33F0020EA1EC34F03A
:105166004DC027F04EC028F0296A000E2724106E85
:10517600800E2820116E100E2920126E000E146E5D
:10518600590E136EDBEC33F0020EA1EC34F04DC079
:1051960027F04EC028F0296A000E2724106E800ED4
:1051A6002820116E100E2920126E000E146E1C0E91
:1051B600136EDBEC33F0020EA1EC34F04DC027F099
:1051C6004EC028F0296A000E2724106E800E282073
:1051D600116E100E2920126E000E146E000E136E44
:1051E600DBEC33F0020EA1EC34F0030E1E6E000E63
:1051F6001F6E000E206E000E216E16EC34F01200AB
:105206008B92020E1C6EA00E1B6E920EE82EFED71F
:105216001B2EFCD71C2EFAD700D08B82020E1C6EDA
:10522600A00E1B6E920EE82EFED71B2EFCD71C2E50
:10523600FAD700D0000EC9EC34F0440EC9EC34F0B5
:10524600620EC9EC34F0300E106E240E116E100E84
:10525600126E010E146EE00E136EDBEC33F0440E8C
:10526600106E240E116E100E126E010E146E100EBC
:10527600136EDBEC33F0280E106E240E116E100E3A
:10528600126E020E146E0D0E136EDBEC33F0340E3E
:10529600106E240E116E100E126E000E146E000E9D
:1052A600136EDBEC33F0380E106E240E116E100EFA
:1052B600126E000E146E290E136EDBEC33F02C0EFC
:1052C600106E240E116E100E126E000E146E2B0E42
:1052D600136EDBEC33F03C0E106E240E116E100EC6
:1052E600126E010E146E1E0E136EDBEC33F0480EBA
:1052F600106E240E116E100E126E000E146E000E3D
:10530600136EDBEC33F04C0E106E240E116E100E85
:10531600126E000E146E0A0E136EDBEC33F0400EA6
:10532600106E240E116E100E126E000E146E0C0E00
:10533600136EDBEC33F0640E106E240E116E100E3D
:10534600126E000E136E4EEC34F05C0E106E240ED0
:10535600116E100E126E000E136E4EEC34F0580ED7
:10536600106E240E116E100E126E010E146EB60E15
:10537600136EDBEC33F0600E106E240E116E100E01
:10538600126E000E136E4EEC34F0680E106E240E84
:10539600116E100E126E000E136E4EEC34F0540E9B
:1053A600106E240E116E100E126E000E136E4EEC61
:1053B60034F0000E106E000E116E100E126E000EFE
:1053C600136E1A0E146E000E156E020E166EC1ECDA
:1053D60032F0040E106E000E116E100E126E070ED5
:1053E600136E000E146E000E156E260E166EC1ECB0
:1053F60032F0080E106E000E116E100E126E000EB8
:10540600136E000E146E000E156E000E166EC1ECB5
:1054160032F0500E106E240E116E100E126E020E29
:10542600136E4EEC34F08C0E106E240E116E100EB0
:10543600126EFC0E136E4EEC34F0900E106E240EAF
:10544600116E100E126EFF0E136E4EEC34F06C0ED3
:10545600106E240E116E100E126E050E136E4EECAB
:1054660034F0E80E106E240E116E100E126E35EC2E
:1054760033F010C04DF011C04EF0E40E106E240E45
:10548600116E100E126E35EC33F04D501018F5E11A
:105496004E501118D8B41200F0D7000E0001616FFB
:1054A600000E606F000E0001636F000E626F000E4B
:1054B6000001656F000E646F000E0001676F000E3D
:1054C600666F000E0001696F000E686F000E000126
:1054D6006B6F000E6A6F000E00016D6F000E6C6F31
:1054E600000E00016F6F000E6E6F000E0001716FEF
:1054F600000E706FAFEC34F0BCEC34F07080708A44
:10550600709E708C608A609C609476907692779A92
:10551600779CC80E0E01F06F000E0E01F16FC80EDB
:105526000E01EC6F200E0E01ED6FC80E0E01E86F36
:10553600400E0E01E96FC79EC78CC68AC688C65044
:10554600F00B0209C66E03EC29F0AFEC34F0C6503E
:10555600F00B0109C66E89928C9889908A8A8C9A7A
:105566008C8660C033F061C034F062C035F063C031
:1055760036F064C037F065C038F066C039F067C0F1
:105586003AF068C03BF069C03CF06AC03DF06BC0C1
:105596003EF06CC03FF06DC040F06EC041F06FC091
:1055A60042F070C043F071C044F03BEC31F0F00EB5
:1055B6000F6E690E106EF3EC34F0F28EF28C730EF1
:1055C600226E000E236E9BEC2BF00009D8B47AD025
:1055D600400E000174194BE1060E00017519000119
:1055E600761100017711D8A442D000017A5179C012
:1055F60045F0466A45C046F0456A45100001606FB1
:1056060046500001616F00017C517BC045F0466A3F
:1056160045C046F0456A45100F6E4650106E000EA6
:10562600126E0A0E116E7FEC32F00FC062F010C0DF
:1056360063F000017951456E466A453A463AF00EE6
:10564600461645500F0B4612F00E451600017E51C8
:1056560045100001646F46500001656F7FC066F01B
:105666000001676B80C068F00001696B2BD0410EAA
:10567600000174190EE1060E00017519000176117C
:1056860000017711D8A405D07FC06AF000016B6BCA
:1056960019D0420E0001741915E1060E00017519A4
:1056A6000001761100017711D8A40CD079C06CF0F6
:1056B60000016D6B7AC06EF000016F6B7BC070F0FD
:1056C6000001716B00017251D8B479D760C033F014
:1056D60061C034F062C035F063C036F064C037F0A4
:1056E60065C038F066C039F067C03AF068C03BF074
:1056F60069C03CF06AC03DF06BC03EF06CC03FF044
:105706006DC040F06EC041F06FC042F070C043F013
:1057160071C044F03BEC31F089928C9889908A9A5A
:105726008C9A8C96000E0001726FEEEC34F047D71F
:10573600000E246E60AE83D062A61ED022C0D9FFB2
:1057460023C0DAFF020EDF6E64CF0FF061CF10F0D8
:1057560062CF11F063505FEC2DF020EE01F0225085
:10576600D9262350DA220FC0DEFF10C0DEFF11C09B
:10577600DEFF12C0DEFF19D022C0D9FF23C0DAFF38
:10578600010EDF6E62CF0FF061503CEC32F020EE7E
:1057960001F02250D9262350DA220FC0DEFF10C0B6
:1057A600DEFF11C0DEFF12C0DEFF20EE05F0225044
:1057B600D9262350DA2265CFDFFF20EE06F02250ED
:1057C600D9262350DA2266CFDFFF20EE07F02250DB
:1057D600D9262350DA2267CFDFFF20EE08F02250C9
:1057E600D9262350DA2268CFDFFF20EE09F02250B7
:1057F600D9262350DA2269CFDFFF20EE0AF02250A5
:10580600D9262350DA226ACFDFFF20EE0BF0225092
:10581600D9262350DA226BCFDFFF20EE0CF0225080
:10582600D9262350DA226CCFDFFF20EE0DF022506E
:10583600D9262350DA226DCFDFFF609E89D00F0173
:1058460030AF88D00F0132A71FD022C0D9FF23C0A6
:10585600DAFF020EDF6E34CF0FF031CF10F032CF09
:1058660011F00F0133515FEC2DF020EE01F02250C4
:10587600D9262350DA220FC0DEFF10C0DEFF11C08A
:10588600DEFF12C0DEFF1AD022C0D9FF23C0DAFF26
:10589600010EDF6E32CF0FF00F0131513CEC32F0CA
:1058A60020EE01F02250D9262350DA220FC0DEFF67
:1058B60010C0DEFF11C0DEFF12C0DEFF20EE05F0D5
:1058C6002250D9262350DA2235CFDFFF20EE06F00C
:1058D6002250D9262350DA2236CFDFFF20EE07F0FA
:1058E6002250D9262350DA2237CFDFFF20EE08F0E8
:1058F6002250D9262350DA2238CFDFFF20EE09F0D6
:105906002250D9262350DA2239CFDFFF20EE0AF0C3
:105916002250D9262350DA223ACFDFFF20EE0BF0B1
:105926002250D9262350DA223BCFDFFF20EE0CF09F
:105936002250D9262350DA223CCFDFFF20EE0DF08D
:105946002250D9262350DA223DCFDFFF0F01309FA8
:10595600010E246E779224501200090E1E6E000E60
:105966001F6E000E206E1F0E216E16EC34F03C0EDC
:105976001E6E3C0E1F6E3C0E206E040E216E16EC43
:1059860034F0000E1E6E700E1F6ECD0E206EAB0E26
:10599600216E16EC34F0000E1E6E600E1F6ECE0EDB
:1059A600206E900E216E16EC34F0FF0E1E6EFF0E6A
:1059B6001F6EFF0E206E040E216E16EC34F00C0ED8
:1059C6001E6EFF0E1F6EFF0E206EFF0E216E16EC72
:1059D60034F04DC027F04EC028F0296A000E272467
:1059E600106E800E2820116E100E2920126E000EE9
:1059F600146EF00E136EDBEC33F0020EA1EC34F0F5
:105A06004DC027F04EC028F0296A000E2724106EDC
:105A1600800E2820116E100E2920126E000E146EB4
:105A2600DE0E136EDBEC33F0020EA1EC34F04DC04B
:105A360027F04EC028F0296A000E2724106E800E2B
:105A46002820116E100E2920126E000E146E1C0EE8
:105A5600136EDBEC33F0020EA1EC34F04DC027F0F0
:105A66004EC028F0296A000E2724106E800E2820CA
:105A7600116E100E2920126E060E146E000E136E95
:105A8600DBEC33F0020EA1EC34F04DC027F04EC033
:105A960028F0296A000E2724156E800E2820166E1F
:105AA600100E2920176E1F0E186E0F0E196EF5ECCC
:105AB60031F0A1EC34F01200176E000E186E000ED5
:105AC600196E000E1A6E000E1B6E000E1E6E000E74
:105AD6001F6E000E206E000E216E1150030B1C6E01
:105AE6001138E842070B1D6E1050136E146AD890D9
:105AF60013361436D89013361436D8901336143617
:105B060013C01EF014C01FF0000E1FBEFF0E206E45
:105B1600216E1D501E241E6E000E1F201F6E000ECD
:105B26002020206E000E2120216E1EC013F01FC003
:105B360014F020C015F021C016F0020ED8901336CE
:105B4600143615361636E82EF9D713C01EF014C0D3
:105B56001FF015C020F016C021F01C501E241E6E2A
:105B6600000E1F201F6E000E2020206E000E21202A
:105B7600216E1EC014F01FC015F020C016F0136A67
:105B860013C01EF014C01FF015C020F016C021F07F
:105B960017501E241E6E000E1F201F6E000E2020A2
:105BA600206E000E2120216E1EC014F01FC015F0BD
:105BB60020C016F0136A13C01EF014C01FF015C0E3
:105BC60020F016C021F00F501E241E6E000E1F205E
:105BD6001F6E000E2020206E000E2120216E1EC09A
:105BE60018F01FC019F020C01AF021C01BF018C011
:105BF6000FF019C010F01AC011F01BC012F01200FD
:105C0600FF0E1E6EFF0E1F6EFF0E206E040E216E1F
:105C160016EC34F02E0E1E6EFF0E1F6EFF0E206E5B
:105C2600FF0E216E16EC34F04DC027F04EC028F062
:105C3600296A000E2724106E800E2820116E100E81
:105C46002920126E000E146E400E136EDBEC33F03C
:105C5600020EA1EC34F04DC027F04EC028F0296AA0
:105C6600000E2724106E800E2820116E100E29209B
:105C7600126E000E146E070E136EDBEC33F0020E7E
:105C8600A1EC34F04DC027F04EC028F0296A000E72
:105C96002724106E800E2820116E100E2920126EF9
:105CA600000E146E1C0E136EDBEC33F0020EA1EC2C
:105CB60034F04DC027F04EC028F0296A000E272484
:105CC600106E800E2820116E100E2920126E000E06
:105CD600146E000E136EDBEC33F0020EA1EC34F002
:105CE60025C01EF026C01FF0000E1FBEFF0E206E40
:105CF600216E16EC34F0120011C013F0146A156A06
:105D06001034133601E3148013501D6E1D50D8A4B1
:105D160009D0000E0F6E000E106E000E116E000EF2
:105D2600126E1200170E136E0FC014F010C015F08D
:105D360011C016F01328176E04D0D89016321532FB
:105D46001432172EFAD71450186E108EFF0E0F1637
:105D5600FF0E1016000E11160F50196E10501A6E07
:105D660011501B6E1C6A8E0E1D5E1DAE16D01D5088
:105D7600800A8F0FD8B009D0000E0F6E000E106E7D
:105D8600000E116E000E126E1200D8901C321B32DD
:105D96001A3219321D3EF9D715D0170E1D640FD0D1
:105DA600000E0F6E000E106E000E116E000E126EBB
:105DB6001200D89019361A361B361C361D061D5091
:105DC600D8A4F7D71850D8B408D01C1E1B1E1A1E0C
:105DD600196C000E1A221B221C2219C00FF01AC0C1
:105DE60010F01BC011F01CC012F012002E0E1E6E19
:105DF600FF0E1F6EFF0E206EFF0E216E16EC34F0A6
:105E06004DC028F04EC029F02A6A000E2824106ED4
:105E1600800E2920116E100E2A20126E000E146EAE
:105E2600420E136EDBEC33F0020EA1EC34F04DC0E3
:105E360028F04EC029F02A6A000E2824106E800E23
:105E46002920116E100E2A20126E000E146EAB0E53
:105E5600136EDBEC33F0020EA1EC34F04DC028F0EB
:105E66004EC029F02A6A000E2824106E800E2920C2
:105E7600116E100E2A20126E000E146E1C0E136E7A
:105E8600DBEC33F0020EA1EC34F04DC028F04EC02E
:105E960029F02A6A000E2824106E800E2920116E21
:105EA600100E2A20126E000E146E000E136EDBEC1E
:105EB60033F0020EA1EC34F025C00FF026C010F02E
:105EC60027C011F07FEC2EF00FC01EF010C01FF09F
:105ED60011C020F012C021F016EC34F01200800E32
:105EE6006F6E6E50E00B800AD8A4FBD7000E726E60
:105EF6000E01FA690E01FB690E01F8690E01F969D6
:105F06000E01FE690E01FF690E01FC690E01FD69B5
:105F1600000E0E01E26F000E0E01E36F000E0E0181
:105F2600E06F000E0E01E16F000E0E01E66F000E2F
:105F36000E01E76F000E0E01E46F000E0E01E56F15
:105F4600000E0E01EA6F000E0E01EB6F000E0E0141
:105F5600E86F000E0E01E96F000E0E01EE6F000EE7
:105F66000E01EF6F000E0E01EC6F000E0E01ED6FCD
:105F7600000E0E01F26F000E0E01F36F000E0E0101
:105F8600F06F000E0E01F16F000E0E01F66F000E9F
:105F96000E01F76F000E0E01F46F000E0E01F56F85
:105FA600030E0E01436F980E0E01446F010E0E0193
:105FB600456F000E6F6E6ECF0FF0E00E0F16D8B461
:105FC6001200F9D72E0E1E6EFF0E1F6EFF0E206EEC
:105FD600FF0E216E16EC34F04DC027F04EC028F0AF
:105FE600296A000E2724106E800E2820116E100ECE
:105FF6002920126E010E146EC70E136EDBEC33F001
:10600600020EA1EC34F04DC027F04EC028F0296AEC
:10601600000E2724106E800E2820116E100E2920E7
:10602600126E000E146EA60E136EDBEC33F0020E2B
:10603600A1EC34F04DC027F04EC028F0296A000EBE
:106046002724106E800E2820116E100E2920126E45
:10605600000E146E1E0E136EDBEC33F0020EA1EC76
:1060660034F04DC027F04EC028F0296A000E2724D0
:10607600106E800E2820116E100E2920126E080E4A
:10608600146E000E136EDBEC33F0020EA1EC34F04E
:1060960025C01EF026C01FF0000E1FBEFF0E206E8C
:1060A600216E16EC34F012002E0E1E6EFF0E1F6EC1
:1060B600FF0E206EFF0E216E16EC34F04DC027F059
:1060C6004EC028F0296A000E2724106E800E282064
:1060D600116E100E2920126E010E146EDB0E136E59
:1060E600DBEC33F0020EA1EC34F04DC027F04EC0CD
:1060F60028F0296A000E2724106E800E2820116EC3
:10610600100E2920126E000E146E780E136EDBEC44
:1061160033F0020EA1EC34F04DC027F04EC028F04B
:10612600296A000E2724106E800E2820116E100E8C
:106136002920126E000E146E1F0E136EDBEC33F068
:10614600020EA1EC34F04DC027F04EC028F0296AAB
:10615600000E2724106E800E2820116E100E2920A6
:10616600126E080E146E000E136EDBEC33F0020E88
:10617600A1EC34F025C01EF026C01FF0000E1FBE95
:10618600FF0E206E216E16EC34F012002E0E1E6EDF
:10619600FF0E1F6EFF0E206EFF0E216E16EC34F002
:1061A6004DC027F04EC028F0296A000E2724106E35
:1061B600800E2820116E100E2920126E000E146E0D
:1061C600420E136EDBEC33F0020EA1EC34F04DC040
:1061D60027F04EC028F0296A000E2724106E800E84
:1061E6002820116E100E2920126E000E146E300E2D
:1061F600136EDBEC33F0020EA1EC34F04DC027F049
:106206004EC028F0296A000E2724106E800E282022
:10621600116E100E2920126E000E146E1C0E136ED7
:10622600DBEC33F0020EA1EC34F04DC027F04EC08B
:1062360028F0296A000E2724106E800E2820116E81
:10624600100E2920126E000E146E000E136EDBEC7B
:1062560033F0020EA1EC34F025C01EF026C01FF06C
:10626600000E1FBEFF0E206E216E16EC34F01200DB
:106276009EEC33F07DEC1CF03FC025F040C026F0CC
:1062860003EC2EF041C025F042C026F0C9EC30F0F8
:10629600000E266E040E256EA6EC27F043C025F0F0
:1062A60044C026F033EC26F035C017F036C018F09F
:1062B60032EC34F017C025F018C026F019C027F0CC
:1062C600F9EC2EF03DC025F03EC026F0BEEC23F0E2
:1062D60033C025F034C026F0BBEC07F03BC025F0F8
:1062E6003CC026F057EC30F039C025F03AC026F015
:1062F600E5EC2FF0000E256E000E266E000E276EC2
:10630600000E286E000E296E000E2A6E000E2B6EF1
:10631600000E2C6E000E2D6E000E2F6E000E2E6ED1
:106326002DEC12F0190E256E0F0E266EB0EC2CF029
:106336005DEC33F012001250D8B405D00F50101097
:106346001110D8A40CD0000E0F6E000E106E000EA9
:10635600116E1200122AD890113210320F32000E2E
:106366000F14146E000E1014156EFE0E1114166E18
:10637600145015101610D8B40CD0ECD7122A010EF2
:106386000F26000E1022000E1122D8901132103264
:106396000F32000E0F14146E000E1014156EFF0E41
:1063A6001114166E145015101610D8B406D0E6D770
:1063B6001206D8900F361036113610BE03D0020ED4
:1063C6001260F6D712A0109ED890123212501112F7
:1063D6001350D8A4118E0FC00FF010C010F011C0CA
:1063E60011F012008C9017508009DFEC34F015C0C4
:1063F6001AF016C01BF017C01CF01BC01AF01CC008
:106406001BF01C6A1A50DFEC34F01550DFEC34F048
:1064160018C00FF019C010F07EEC33F00F501D6E4F
:10642600000E1E6E14D01E50010D18C01AF019C0B1
:106436001BF0F3501A26F4501B221AC0F6FF1BC09D
:10644600F7FFF86A0800F550DFEC34F01E2A1E50FC
:106456001D5CD8A005D0E7D7000EDFEC34F01E2A6D
:106466001EC01AF0030E1A16D8A4F6D78C801E503A
:106476001200156E000E166E000E176E000E186EC8
:10648600000E196E1550136E146AD8901336143612
:10649600D89013361436D8901336143613C01AF023
:1064A60014C01BF0000E1BBEFF0E1C6E1D6E0FC02F
:1064B60013F0050E146ED8901332142EFCD7135019
:1064C6001A241A6E000E1B201B6E000E1C201C6E5A
:1064D600000E1D201D6E1AC016F01BC017F01CC042
:1064E60018F01DC019F016C00FF017C010F018C034
:1064F60011F019C012F01200000E146E12AE06D082
:10650600116C121ED8B0122A010E146E10AE06D0EF
:106516000F6C101ED8B0102A010E141A000E166E3B
:10652600000E156E11501210D8B41CD0010E136E49
:1065360004D0D89011361236132A12AEFAD7D89054
:106546001536163611500F5C12501058D8A005D0CB
:1065560011500F5E1250105A1580D8901232113217
:10656600132EEDD71450D8B404D0156C161ED8B01F
:10657600162A15C00FF016C010F012008C9012509B
:106586008009DFEC34F010C017F011C018F012C00B
:1065960019F018C017F019C018F0196A1750DFEC77
:1065A60034F01050DFEC34F01350DFEC34F01450BC
:1065B600DFEC34F01550DFEC34F013C017F014C0E4
:1065C60018F015C019F016C01AF0110E05D0D890A3
:1065D6001A32193218321732E82EF9D718C017F0C6
:1065E60019C018F01AC019F01A6A1750DFEC34F007
:1065F6008C801200000E1C6E18AE06D0176C181E8A
:10660600D8B0182A010E1C6E1AAE04D0196C1A1EC8
:10661600D8B01A2A19501A10D8B418D0010E1B6E09
:1066260004D0D89019361A361B2A1AAEFAD7195042
:10663600175C1A501858D8A004D01950175E1A5073
:10664600185AD8901A3219321B2EF1D71C50D8B4CA
:1066560004D0176C181ED8B0182A17C017F018C027
:1066660018F012008C901250DFEC34F010C013F0CA
:1066760011C014F012C015F014C013F015C014F0B8
:10668600156A1350DFEC34F01050DFEC34F0000ED6
:10669600DFEC34F0000EDFEC34F0C9CF16F0000E5C
:1066A600DFEC34F08C80C950136E1650106E13C098
:1066B60011F01200000E1E6E000E1F6E000E206EF0
:1066C600000E216E16EC34F0010E1E6EFF0E1F6ECC
:1066D600FF0E206EFF0E216E16EC34F0E80E106EE3
:1066E600240E116E100E126E4DC013F04EC014F033
:1066F600DBEC33F012000FC013F010C014F002D020
:10670600134A142A13C0F6FF14C0F7FFF86A0800EC
:10671600F5500009D8A4F4D70FC011F010C012F03C
:10672600111E121E114A122A135011240F6E1450F4
:106736001220106E1200000E1E6EFF0E1F6EFF0E50
:10674600206EFF0E216E16EC34F0140E1E6E140E23
:106756001F6E140E206E020E216E16EC34F0070E1C
:106766001E6E000E1F6E000E206E260E216E16EC9B
:1067760034F01200300ECD6E000EAA6E150ECF6EDE
:10678600A00ECE6ECE50CFCF11F0126A11C012F00D
:10679600116A1110496E12504A6E9E909D80000E2D
:1067A6000F6E6A0E106EF3EC34F0FCEC34F012004F
:1067B6008C9012508009DFEC34F010C015F011C037
:1067C60016F012C017F016C015F017C016F0176AAB
:1067D6001550DFEC34F01050DFEC34F01350DFECE2
:1067E60034F01450DFEC34F08C801200000E8D6E05
:1067F600000E8C6E000E896E000E8A6E000E8B6E79
:10680600070E966EEC0E926EDB0E936ED50E946EA0
:10681600C20E956E0F015D697D0E0F015C6FCF0E86
:106826000F015B6F12004DC022F04EC023F0246AA8
:10683600000E2224106E800E2320116E100E2420CE
:10684600126E1EC013F01FC014F020C015F021C038
:1068560016F0C1EC32F0040EA1EC34F01200000E7A
:106866001A6E18AE06D0176C181ED8B0182A010E6C
:106876001A6E17C00FF018C010F0116A8E0E126E45
:106886001AC013F09EEC31F00FC017F010C018F0CC
:1068960011C019F012008C9012508009DFEC34F010
:1068A60010C014F011C015F012C016F015C014F087
:1068B60016C015F0166A1450DFEC34F01050DFECF9
:1068C60034F01350DFEC34F08C8012009E904A5066
:1068D600CF6E49C0CEFF47504810D8B4120001D839
:1068E60012000500FA6E4750FD6E4850FE6EFF6AB4
:1068F600FA5012000F501102F3CF13F0F4CF14F038
:106906000F501202F350142610501102F3501426A1
:1069160013C00FF014C010F0120000EE72F00F0E4C
:10692600EE6AE806FDE100EE47F0090EEE6AE806BB
:10693600FDE150905092000150EF2AF0116E115077
:106946004D240F6E000E4E20106EFF0E0F144D6E6E
