:040000004CEF00F0D1
:100008004F82FACF02F0FBCF03F0E9CF04F0EACF3A
:1000180005F0E1CF06F0E2CF07F0D9CF08F0DACF4C
:1000280009F0F3CF0AF0F4CF0BF0F6CF0CF0F7CFCE
:100038000DF0F8CF0EF0F5CF0FF0F2BC9DA005D073
:100048009EA003D0D0EC30F005D0F2BAF2A402D0D2
:1000580047EC30F00FC0F5FF0EC0F8FF0DC0F7FFFA
:100068000CC0F6FF0BC0F4FF0AC0F3FF09C0DAFFAB
:1000780008C0D9FF07C0E2FF06C0E1FF05C0EAFFDC
:1000880004C0E9FF03C0FBFF02C0FAFF4F92110052
:04009800FFEF2EF058
:100F0000004761696E2F4C6F7373004F696C2054FA
:100F1000656D7000436F6F6C616E74004C61756E2F
:100F2000636800436C7574636800526164696F00A4
:100F30004175746F0042696173004B504800525014
:100F40004D004C41500044525300313000313100CB
:100F500031320054500025002B002D002E003300AC
:100F600034003500360037003800390043005600A1
:030F70006B000013
:100F740025C010F026C011F0030E136EE80E126E99
:100F8400EEEC2DF010C02EF011C02FF0000E136EF9
:100F9400640E126E25C010F026C011F0EEEC2DF098
:100FA40010C018F011C019F0000E1B6E0A0E1A6E54
:100FB4006CEC2EF018C02CF019C02DF0020E1E6E31
:100FC400000E1F6E000E206E1F0E216ED9EC2FF046
:100FD400140E1E6E140E1F6E140E206E040E216E5F
:100FE400D9EC2FF0D60E1E6E060E1F6E000E206E6C
:100FF4000D0E216ED9EC2FF0000E1E6E300E1F6EFA
:10100400070E206E9E0E216ED9EC2FF03C0E1E6E44
:101014003C0E1F6E3C0E206E040E216ED9EC2FF098
:10102400720E1E6E060E1F6E000E206E0D0E216EC9
:10103400D9EC2FF0000E1E6E300E1F6E070E206EC0
:101044009E0E216ED9EC2FF0FF0E1E6EFF0E1F6E4A
:10105400FF0E206E040E216ED9EC2FF0090E1E6EC9
:10106400FF0E1F6EFF0E206EFF0E216ED9EC2FF0C7
:10107400320E1E6E320E1F6E320E206E000E216E68
:10108400D9EC2FF0130E1E6EFF0E1F6EFF0E206E96
:10109400FF0E216ED9EC2FF04AC027F04BC028F088
:1010A400296A000E2724116E800E2820126E100E5D
:1010B4002920136E000E156EF00E146E9EEC2FF0A8
:1010C400020E8CEC30F04AC027F04BC028F0296A9D
:1010D400000E2724116E800E2820126E100E292077
:1010E400136E000E156E730E146E9EEC2FF0020E2E
:1010F4008CEC30F04AC027F04BC028F0296A000E6F
:101104002724116E800E2820126E100E2920136ED3
:10111400000E156E820E146E9EEC2FF0020E8CECF7
:1011240030F04AC027F04BC028F0296A000E27246B
:10113400116E800E2820126E100E2920136E510E8F
:10114400156E000E146E9EEC2FF0020E8CEC30F037
:101154004AC027F04BC028F0296A000E2724116EDC
:10116400800E2820126E100E2920136E000E156EAC
:101174000A0E146E9EEC2FF0020E8CEC30F04AC076
:1011840027F04BC028F0296A000E2724116E800E28
:101194002820126E100E2920136E000E156E050EF7
:1011A400146E9EEC2FF0020E8CEC30F04AC027F047
:1011B4004BC028F0296A000E2724116E800E2820C7
:1011C400126E100E2920136E000E156E000E146E92
:1011D4009EEC2FF0020E8CEC30F04AC027F04BC08E
:1011E40028F0296A000E2724116E800E2820126E22
:1011F400100E2920136E000E156E320E146E9EEC26
:101204002FF0020E8CEC30F0000E1E6E000E1F6EDE
:10121400FF0E206E040E216ED9EC2FF02FBE06D0E7
:101224002F5003E1020E2E5CD8B0C3D0130E1E6EF5
:10123400FF0E1F6EFF0E206EFF0E216ED9EC2FF0F5
:101244004AC027F04BC028F0296A000E2724116EEB
:10125400800E2820126E100E2920136E000E156EBB
:10126400F00E146E9EEC2FF0020E8CEC30F04AC09F
:1012740027F04BC028F0296A000E2724116E800E37
:101284002820126E100E2920136E000E156E730E98
:10129400146E9EEC2FF0020E8CEC30F04AC027F056
:1012A4004BC028F0296A000E2724116E800E2820D6
:1012B400126E100E2920136E000E156E820E146E1F
:1012C4009EEC2FF0020E8CEC30F04AC027F04BC09D
:1012D40028F0296A000E2724116E800E2820126E31
:1012E400100E2920136E310E156E000E146E9EEC36
:1012F4002FF0020E8CEC30F04AC027F04BC028F0DF
:10130400296A000E2724116E800E2820126E100EFA
:101314002920136E000E156E0A0E146E9EEC2FF02B
:10132400020E8CEC30F04AC027F04BC028F0296A3A
:10133400000E2724116E800E2820126E100E292014
:10134400136E000E156E050E146E9EEC2FF0020E39
:101354008CEC30F04AC027F04BC028F0296A000E0C
:101364002724116E800E2820126E100E2920136E71
:101374002EC014F02FC015F09EEC2FF0020E8CEC52
:1013840030F04AC027F04BC028F0296A000E272409
:10139400116E800E2820126E100E2920136E000E7E
:1013A400156E320E146E9EEC2FF0020E8CEC30F0A3
:1013B400E2D0FE0E2E24106EFF0E2F20116E000EB2
:1013C400136E050E126E5BEC30F010C027F011C0E6
:1013D40028F02CC010F02DC011F0000E136E020E78
:1013E400126EEEEC2DF0105027242A6E1150282096
:1013F4002B6E130E1E6EFF0E1F6EFF0E206EFF0E61
:10140400216ED9EC2FF04AC027F04BC028F0296A8E
:10141400000E2724116E800E2820126E100E292033
:10142400136E000E156EF00E146E9EEC2FF0020E6D
:101434008CEC30F04AC027F04BC028F0296A000E2B
:101444002724116E800E2820126E100E2920136E90
:10145400000E156E730E146E9EEC2FF0020E8CECC3
:1014640030F04AC027F04BC028F0296A000E272428
:10147400116E800E2820126E100E2920136E000E9D
:10148400156E820E146E9EEC2FF0020E8CEC30F072
:101494004AC027F04BC028F0296A000E2724116E99
:1014A400800E2820126E100E2920136E310E156E38
:1014B400000E146E9EEC2FF0020E8CEC30F04AC03D
:1014C40027F04BC028F0296A000E2724116E800EE5
:1014D4002820126E100E2920136E000E156E0A0EAF
:1014E400146E9EEC2FF0020E8CEC30F04AC027F004
:1014F4004BC028F0296A000E2724116E800E282084
:10150400126E100E2920136E000E156E050E146E49
:101514009EEC2FF0020E8CEC30F04AC027F04BC04A
:1015240028F0296A000E2724116E800E2820126EDE
:10153400100E2920136E2AC014F02BC015F09EEC57
:101544002FF0020E8CEC30F04AC027F04BC028F08C
:10155400296A000E2724116E800E2820126E100EA8
:101564002920136E000E156E320E146E9EEC2FF0B1
:10157400020E8CEC30F0FF0E1E6EFF0E1F6EFF0E7F
:10158400206E040E216ED9EC2FF02E0E1E6EFF0E6F
:101594001F6EFF0E206EFF0E216ED9EC2FF04AC095
:1015A40027F04BC028F0296A000E2724116E800E04
:1015B4002820126E100E2920136E000E156EED0EEB
:1015C400146E9EEC2FF0020E8CEC30F04AC027F023
:1015D4004BC028F0296A000E2724116E800E2820A3
:1015E400126E100E2920136E000E156E590E146E15
:1015F4009EEC2FF0020E8CEC30F04AC027F04BC06A
:1016040028F0296A000E2724116E800E2820126EFD
:10161400100E2920136E000E156E1F0E146E9EEC14
:101624002FF0020E8CEC30F04AC027F04BC028F0AB
:10163400296A000E2724116E800E2820126E100EC7
:101644002920136E080E156E000E146E9EEC2FF0FA
:10165400020E8CEC30F02EC01EF02FC01FF0000ED6
:101664001FBEFF0E206E216ED9EC2FF02E0E1E6EC3
:10167400FF0E1F6EFF0E206EFF0E216ED9EC2FF0B1
:101684004AC027F04BC028F0296A000E2724116EA7
:10169400800E2820126E100E2920136E000E156E77
:1016A400F30E146E9EEC2FF0020E8CEC30F04AC058
:1016B40027F04BC028F0296A000E2724116E800EF3
:1016C4002820126E100E2920136E000E156E590E6E
:1016D400146E9EEC2FF0020E8CEC30F04AC027F012
:1016E4004BC028F0296A000E2724116E800E282092
:1016F400126E100E2920136E000E156E1F0E146E3E
:101704009EEC2FF0020E8CEC30F04AC027F04BC058
:1017140028F0296A000E2724116E800E2820126EEC
:10172400100E2920136E000E156E000E146E9EEC22
:101734002FF0020E8CEC30F02CC01EF02DC01FF0E8
:10174400000E1FBEFF0E206E216ED9EC2FF00C0E82
:101754001E6EFF0E1F6EFF0E206EFF0E216ED9EC63
:101764002FF04AC027F04BC028F0296A000E272426
:10177400116E800E2820126E100E2920136E000E9A
:10178400156EB70E146E9EEC2FF0020E8CEC30F03A
:101794004AC027F04BC028F0296A000E2724116E96
:1017A400800E2820126E100E2920136E000E156E66
:1017B400A10E146E9EEC2FF0020E8CEC30F04AC099
:1017C40027F04BC028F0296A000E2724116E800EE2
:1017D4002820126E100E2920136E000E156E1C0E9A
:1017E400146E9EEC2FF0020E8CEC30F04AC027F001
:1017F4004BC028F0296A000E2724116E800E282081
:10180400126E100E2920136E000E156E000E146E4B
:101814009EEC2FF0020E8CEC30F04AC027F04BC047
:1018240028F0296A000E2724166E800E2820176ED1
:10183400100E2920186E510E196E0F0E1A6E64ECDC
:101844002DF08CEC30F00C0E1E6EFF0E1F6EFF0E92
:10185400206EFF0E216ED9EC2FF04AC027F04BC04A
:1018640028F0296A000E2724116E800E2820126E9B
:10187400100E2920136E000E156EA00E146E9EEC31
:101884002FF0020E8CEC30F04AC027F04BC028F049
:10189400296A000E2724116E800E2820126E100E65
:1018A4002920136E000E156E820E146E9EEC2FF01E
:1018B400020E8CEC30F04AC027F04BC028F0296AA5
:1018C400000E2724116E800E2820126E100E29207F
:1018D400136E000E156E1C0E146E9EEC2FF0020E8D
:1018E4008CEC30F04AC027F04BC028F0296A000E77
:1018F4002724116E800E2820126E100E2920136EDC
:10190400000E156E000E146E9EEC2FF0020E8CEC81
:1019140030F04AC027F04BC028F0296A000E272473
:10192400166E800E2820176E100E2920186E5E0E7B
:10193400196E0F0E1A6E64EC2DF08CEC30F00C0E58
:101944001E6EFF0E1F6EFF0E206EFF0E216ED9EC71
:101954002FF04AC027F04BC028F0296A000E272434
:10196400116E800E2820126E100E2920136E000EA8
:10197400156E9B0E146E9EEC2FF0020E8CEC30F064
:101984004AC027F04BC028F0296A000E2724116EA4
:10199400800E2820126E100E2920136E000E156E74
:1019A4005C0E146E9EEC2FF0020E8CEC30F04AC0EC
:1019B40027F04BC028F0296A000E2724116E800EF0
:1019C4002820126E100E2920136E000E156E1C0EA8
:1019D400146E9EEC2FF0020E8CEC30F04AC027F00F
:1019E4004BC028F0296A000E2724116E800E28208F
:1019F400126E100E2920136E000E156E000E146E5A
:101A04009EEC2FF0020E8CEC30F04AC027F04BC055
:101A140028F0296A000E2724166E800E2820176EDF
:101A2400100E2920186E600E196E0F0E1A6E64ECDB
:101A34002DF08CEC30F00C0E1E6EFF0E1F6EFF0EA0
:101A4400206EFF0E216ED9EC2FF04AC027F04BC058
:101A540028F0296A000E2724116E800E2820126EA9
:101A6400100E2920136E000E156EAB0E146E9EEC34
:101A74002FF0020E8CEC30F04AC027F04BC028F057
:101A8400296A000E2724116E800E2820126E100E73
:101A94002920136E000E156E3A0E146E9EEC2FF074
:101AA400020E8CEC30F04AC027F04BC028F0296AB3
:101AB400000E2724116E800E2820126E100E29208D
:101AC400136E000E156E1C0E146E9EEC2FF0020E9B
:101AD4008CEC30F04AC027F04BC028F0296A000E85
:101AE4002724116E800E2820126E100E2920136EEA
:101AF400000E156E000E146E9EEC2FF0020E8CEC90
:101B040030F04AC027F04BC028F0296A000E272481
:101B1400166E800E2820176E100E2920186E620E85
:101B2400196E0F0E1A6E64EC2DF08CEC30F00C0E66
:101B34001E6EFF0E1F6EFF0E206EFF0E216ED9EC7F
:101B44002FF04AC027F04BC028F0296A000E272442
:101B5400116E800E2820126E100E2920136E000EB6
:101B6400156EC90E146E9EEC2FF0020E8CEC30F044
:101B74004AC027F04BC028F0296A000E2724116EB2
:101B8400800E2820126E100E2920136E000E156E82
:101B9400210E146E9EEC2FF0020E8CEC30F04AC035
:101BA40027F04BC028F0296A000E2724116E800EFE
:101BB4002820126E100E2920136E000E156E1C0EB6
:101BC400146E9EEC2FF0020E8CEC30F04AC027F01D
:101BD4004BC028F0296A000E2724116E800E28209D
:101BE400126E100E2920136E000E156E000E146E68
:101BF4009EEC2FF0020E8CEC30F04AC027F04BC064
:101C040028F0296A000E2724166E800E2820176EED
:101C1400100E2920186E640E196E0F0E1A6E64ECE5
:101C24002DF08CEC30F00C0E1E6EFF0E1F6EFF0EAE
:101C3400206EFF0E216ED9EC2FF04AC027F04BC066
:101C440028F0296A000E2724116E800E2820126EB7
:101C5400100E2920136E000E156EEB0E146E9EEC02
:101C64002FF0020E8CEC30F04AC027F04BC028F065
:101C7400296A000E2724116E800E2820126E100E81
:101C84002920136E000E156E1A0E146E9EEC2FF0A2
:101C9400020E8CEC30F04AC027F04BC028F0296AC1
:101CA400000E2724116E800E2820126E100E29209B
:101CB400136E000E156E1C0E146E9EEC2FF0020EA9
:101CC4008CEC30F04AC027F04BC028F0296A000E93
:101CD4002724116E800E2820126E100E2920136EF8
:101CE400000E156E000E146E9EEC2FF0020E8CEC9E
:101CF40030F04AC027F04BC028F0296A000E272490
:101D0400166E800E2820176E100E2920186E660E8F
:101D1400196E0F0E1A6E64EC2DF08CEC30F00C0E74
:101D24001E6EFF0E1F6EFF0E206EFF0E216ED9EC8D
:101D34002FF04AC027F04BC028F0296A000E272450
:101D4400116E800E2820126E100E2920136E010EC3
:101D5400156E0D0E146E9EEC2FF0020E8CEC30F00E
:101D64004AC027F04BC028F0296A000E2724116EC0
:101D7400800E2820126E100E2920136E000E156E90
:101D8400210E146E9EEC2FF0020E8CEC30F04AC043
:101D940027F04BC028F0296A000E2724116E800E0C
:101DA4002820126E100E2920136E000E156E1C0EC4
:101DB400146E9EEC2FF0020E8CEC30F04AC027F02B
:101DC4004BC028F0296A000E2724116E800E2820AB
:101DD400126E100E2920136E000E156E000E146E76
:101DE4009EEC2FF0020E8CEC30F04AC027F04BC072
:101DF40028F0296A000E2724166E800E2820176EFC
:101E0400100E2920186E680E196E0F0E1A6E64ECEF
:101E14002DF08CEC30F00C0E1E6EFF0E1F6EFF0EBC
:101E2400206EFF0E216ED9EC2FF04AC027F04BC074
:101E340028F0296A000E2724116E800E2820126EC5
:101E4400100E2920136E010E156E2A0E146E9EECD0
:101E54002FF0020E8CEC30F04AC027F04BC028F073
:101E6400296A000E2724116E800E2820126E100E8F
:101E74002920136E000E156E3A0E146E9EEC2FF090
:101E8400020E8CEC30F04AC027F04BC028F0296ACF
:101E9400000E2724116E800E2820126E100E2920A9
:101EA400136E000E156E1C0E146E9EEC2FF0020EB7
:101EB4008CEC30F04AC027F04BC028F0296A000EA1
:101EC4002724116E800E2820126E100E2920136E06
:101ED400000E156E000E146E9EEC2FF0020E8CECAC
:101EE40030F04AC027F04BC028F0296A000E27249E
:101EF400166E800E2820176E100E2920186E6A0E9A
:101F0400196E0F0E1A6E64EC2DF08CEC30F00C0E82
:101F14001E6EFF0E1F6EFF0E206EFF0E216ED9EC9B
:101F24002FF04AC027F04BC028F0296A000E27245E
:101F3400116E800E2820126E100E2920136E010ED1
:101F4400156E2D0E146E9EEC2FF0020E8CEC30F0FC
:101F54004AC027F04BC028F0296A000E2724116ECE
:101F6400800E2820126E100E2920136E000E156E9E
:101F74005C0E146E9EEC2FF0020E8CEC30F04AC016
:101F840027F04BC028F0296A000E2724116E800E1A
:101F94002820126E100E2920136E000E156E1C0ED2
:101FA400146E9EEC2FF0020E8CEC30F04AC027F039
:101FB4004BC028F0296A000E2724116E800E2820B9
:101FC400126E100E2920136E000E156E000E146E84
:101FD4009EEC2FF0020E8CEC30F04AC027F04BC080
:101FE40028F0296A000E2724166E800E2820176E0A
:101FF400100E2920186E4A0E196E0F0E1A6E64EC1C
:102004002DF08CEC30F00C0E1E6EFF0E1F6EFF0ECA
:10201400206EFF0E216ED9EC2FF04AC027F04BC082
:1020240028F0296A000E2724116E800E2820126ED3
:10203400100E2920136E010E156E2B0E146E9EECDD
:102044002FF0020E8CEC30F04AC027F04BC028F081
:10205400296A000E2724116E800E2820126E100E9D
:102064002920136E000E156E820E146E9EEC2FF056
:10207400020E8CEC30F04AC027F04BC028F0296ADD
:10208400000E2724116E800E2820126E100E2920B7
:10209400136E000E156E1C0E146E9EEC2FF0020EC5
:1020A4008CEC30F04AC027F04BC028F0296A000EAF
:1020B4002724116E800E2820126E100E2920136E14
:1020C400000E156E000E146E9EEC2FF0020E8CECBA
:1020D40030F04AC027F04BC028F0296A000E2724AC
:1020E400166E800E2820176E100E2920186E4D0EC5
:1020F400196E0F0E1A6E64EC2DF08CEC30F00C0E91
:102104001E6EFF0E1F6EFF0E206EFF0E216ED9ECA9
:102114002FF04AC027F04BC028F0296A000E27246C
:10212400116E800E2820126E100E2920136E010EDF
:10213400156E120E146E9EEC2FF0020E8CEC30F025
:102144004AC027F04BC028F0296A000E2724116EDC
:10215400800E2820126E100E2920136E000E156EAC
:10216400A10E146E9EEC2FF0020E8CEC30F04AC0DF
:1021740027F04BC028F0296A000E2724116E800E28
:102184002820126E100E2920136E000E156E1C0EE0
:10219400146E9EEC2FF0020E8CEC30F04AC027F047
:1021A4004BC028F0296A000E2724116E800E2820C7
:1021B400126E100E2920136E000E156E000E146E92
:1021C4009EEC2FF0020E8CEC30F04AC027F04BC08E
:1021D40028F0296A000E2724166E800E2820176E18
:1021E400100E2920186E500E196E0F0E1A6E64EC24
:1021F4002DF08CEC30F00C0E1E6EFF0E1F6EFF0ED9
:10220400206EFF0E216ED9EC2FF04AC027F04BC090
:1022140028F0296A000E2724116E800E2820126EE1
:10222400100E2920136E000E156EF10E146E9EEC26
:102234002FF0020E8CEC30F04AC027F04BC028F08F
:10224400296A000E2724116E800E2820126E100EAB
:102254002920136E000E156E720E146E9EEC2FF074
:10226400020E8CEC30F04AC027F04BC028F0296AEB
:10227400000E2724116E800E2820126E100E2920C5
:10228400136E000E156E1F0E146E9EEC2FF0020ED0
:102294008CEC30F04AC027F04BC028F0296A000EBD
:1022A4002724116E800E2820126E100E2920136E22
:1022B400060E156E000E146E9EEC2FF0020E8CECC2
:1022C40030F04AC027F04BC028F0296A000E2724BA
:1022D400166E800E2820176E100E2920186E5C0EC4
:1022E400196E0F0E1A6E64EC2DF08CEC30F00C0E9F
:1022F4001E6EFF0E1F6EFF0E206EFF0E216ED9ECB8
:102304002FF04AC027F04BC028F0296A000E27247A
:10231400116E800E2820126E100E2920136E010EED
:10232400156E0B0E146E9EEC2FF0020E8CEC30F03A
:102334004AC027F04BC028F0296A000E2724116EEA
:10234400800E2820126E100E2920136E000E156EBA
:102354006C0E146E9EEC2FF0020E8CEC30F04AC022
:1023640027F04BC028F0296A000E2724116E800E36
:102374002820126E100E2920136E000E156E1C0EEE
:10238400146E9EEC2FF0020E8CEC30F04AC027F055
:102394004BC028F0296A000E2724116E800E2820D5
:1023A400126E100E2920136E000E156E000E146EA0
:1023B4009EEC2FF0020E8CEC30F04AC027F04BC09C
:1023C40028F0296A000E2724166E800E2820176E26
:1023D400100E2920186E700E196E0F0E1A6E64EC12
:1023E4002DF08CEC30F00C0E1E6EFF0E1F6EFF0EE7
:1023F400206EFF0E216ED9EC2FF04AC027F04BC09F
:1024040028F0296A000E2724116E800E2820126EEF
:10241400100E2920136E000E156EE30E146E9EEC42
:102424002FF0020E8CEC30F04AC027F04BC028F09D
:10243400296A000E2724116E800E2820126E100EB9
:102444002920136E000E156E840E146E9EEC2FF070
:10245400020E8CEC30F04AC027F04BC028F0296AF9
:10246400000E2724116E800E2820126E100E2920D3
:10247400136E000E156E1A0E146E9EEC2FF0020EE3
:102484008CEC30F04AC027F04BC028F0296A000ECB
:102494002724116E800E2820126E100E2920136E30
:1024A400000E156E000E146E9EEC2FF0020E8CECD6
:1024B40030F04AC027F04BC028F0296A000E2724C8
:1024C400166E800E2820176E100E2920186E3E0EF0
:1024D400196E0F0E1A6E64EC2DF08CEC30F01200B5
:1024E400000E296E050E286EFF0E1E6EFF0E1F6E67
:1024F400FF0E206E040E216ED9EC2FF00C0E1E6E12
:10250400FF0E1F6EFF0E206EFF0E216ED9EC2FF012
:102514004AC025F04BC026F0276A000E2524116E10
:10252400800E2620126E100E2720136E000E156EDC
:10253400500E146E9EEC2FF0020E8CEC30F04AC05C
:1025440025F04BC026F0276A000E2524116E800E5C
:102554002620126E100E2720136E000E156E160E16
:10256400146E9EEC2FF0020E8CEC30F04AC025F075
:102574004BC026F0276A000E2524116E800E2620FB
:10258400126E100E2720136E000E156E1C0E146EA4
:102594009EEC2FF0020E8CEC30F04AC025F04BC0BC
:1025A40026F0276A000E2524116E800E2620126E56
:1025B400100E2720136E000E156E000E146E9EEC86
:1025C4002FF0020E8CEC30F04AC025F04BC026F000
:1025D400276A000E2524166E800E2620176E100E14
:1025E4002720186E3A0E196E0F0E1A6E64EC2DF039
:1025F4008CEC30F00C0E1E6EFF0E1F6EFF0E206E64
:10260400FF0E216ED9EC2FF04AC025F04BC026F006
:10261400276A000E2524116E800E2620126E100EDD
:102624002720136E000E156E050E146E9EEC2FF00F
:10263400020E8CEC30F04AC025F04BC026F0276A1D
:10264400000E2524116E800E2620126E100E2720F7
:10265400136E000E156E3C0E146E9EEC2FF0020EDF
:102664008CEC30F04AC025F04BC026F0276A000EEF
:102674002524116E800E2620126E100E2720136E54
:10268400000E156E1B0E146E9EEC2FF0020E8CECD9
:1026940030F04AC025F04BC026F0276A000E2524EE
:1026A400116E800E2620126E100E2720136E000E5F
:1026B400156E000E146E9EEC2FF0020E8CEC30F0B2
:1026C4004AC025F04BC026F0276A000E2524166E5A
:1026D400800E2620176E100E2720186E010E196E1C
:1026E4000F0E1A6E64EC2DF08CEC30F00C0E1E6E96
:1026F400FF0E1F6EFF0E206EFF0E216ED9EC2FF021
:102704004AC025F04BC026F0276A000E2524116E1E
:10271400800E2620126E100E2720136E000E156EEA
:10272400050E146E9EEC2FF0020E8CEC30F04AC0B5
:1027340025F04BC026F0276A000E2524116E800E6A
:102744002620126E100E2720136E000E156E870EB3
:10275400146E9EEC2FF0020E8CEC30F04AC025F083
:102764004BC026F0276A000E2524116E800E262009
:10277400126E100E2720136E000E156E1C0E146EB2
:102784009EEC2FF0020E8CEC30F04AC025F04BC0CA
:1027940026F0276A000E2524116E800E2620126E64
:1027A400100E2720136E000E156E000E146E9EEC94
:1027B4002FF0020E8CEC30F04AC025F04BC026F00E
:1027C400276A000E2524166E800E2620176E100E22
:1027D4002720186E140E196E0F0E1A6E64EC2DF06D
:1027E4008CEC30F00C0E1E6EFF0E1F6EFF0E206E72
:1027F400FF0E216ED9EC2FF04AC025F04BC026F015
:10280400276A000E2524116E800E2620126E100EEB
:102814002720136E000E156E500E146E9EEC2FF0D2
:10282400020E8CEC30F04AC025F04BC026F0276A2B
:10283400000E2524116E800E2620126E100E272005
:10284400136E000E156EA70E146E9EEC2FF0020E82
:102854008CEC30F04AC025F04BC026F0276A000EFD
:102864002524116E800E2620126E100E2720136E62
:10287400000E156E140E146E9EEC2FF0020E8CECEE
:1028840030F04AC025F04BC026F0276A000E2524FC
:10289400116E800E2620126E100E2720136E000E6D
:1028A400156E000E146E9EEC2FF0020E8CEC30F0C0
:1028B4004AC025F04BC026F0276A000E2524166E68
:1028C400800E2620176E100E2720186E2E0E196EFD
:1028D4000F0E1A6E64EC2DF08CEC30F00C0E1E6EA4
:1028E400FF0E1F6EFF0E206EFF0E216ED9EC2FF02F
:1028F4004AC025F04BC026F0276A000E2524116E2D
:10290400800E2620126E100E2720136E000E156EF8
:10291400550E146E9EEC2FF0020E8CEC30F04AC073
:1029240025F04BC026F0276A000E2524116E800E78
:102934002620126E100E2720136E000E156EAA0E9E
:10294400146E9EEC2FF0020E8CEC30F04AC025F091
:102954004BC026F0276A000E2524116E800E262017
:10296400126E100E2720136E000E156E1C0E146EC0
:102974009EEC2FF0020E8CEC30F04AC025F04BC0D8
:1029840026F0276A000E2524116E800E2620126E72
:10299400100E2720136E000E156E000E146E9EECA2
:1029A4002FF0020E8CEC30F04AC025F04BC026F01C
:1029B400276A000E2524166E800E2620176E100E30
:1029C4002720186E6C0E196E0F0E1A6E64EC2DF023
:1029D4008CEC30F00C0E1E6EFF0E1F6EFF0E206E80
:1029E400FF0E216ED9EC2FF04AC025F04BC026F023
:1029F400276A000E2524116E800E2620126E100EFA
:102A04002720136E010E156EDB0E146E9EEC2FF054
:102A1400020E8CEC30F04AC025F04BC026F0276A39
:102A2400000E2524116E800E2620126E100E272013
:102A3400136E000E156E870E146E9EEC2FF0020EB0
:102A44008CEC30F04AC025F04BC026F0276A000E0B
:102A54002524116E800E2620126E100E2720136E70
:102A6400000E156E1C0E146E9EEC2FF0020E8CECF4
:102A740030F04AC025F04BC026F0276A000E25240A
:102A8400116E800E2620126E100E2720136E080E73
:102A9400156E000E146E9EEC2FF0020E8CEC30F0CE
:102AA4004AC025F04BC026F0276A000E2524166E76
:102AB400800E2620176E100E2720186E0B0E196E2E
:102AC4000F0E1A6E64EC2DF08CEC30F00C0E1E6EB2
:102AD400FF0E1F6EFF0E206EFF0E216ED9EC2FF03D
:102AE4004AC025F04BC026F0276A000E2524116E3B
:102AF400800E2620126E100E2720136E010E156E06
:102B0400C70E146E9EEC2FF0020E8CEC30F04AC00F
:102B140025F04BC026F0276A000E2524116E800E86
:102B24002620126E100E2720136E000E156EA70EAF
:102B3400146E9EEC2FF0020E8CEC30F04AC025F09F
:102B44004BC026F0276A000E2524116E800E262025
:102B5400126E100E2720136E000E156E140E146ED6
:102B64009EEC2FF0020E8CEC30F04AC025F04BC0E6
:102B740026F0276A000E2524116E800E2620126E80
:102B8400100E2720136E000E156E000E146E9EECB0
:102B94002FF0020E8CEC30F04AC025F04BC026F02A
:102BA400276A000E2524166E800E2620176E100E3E
:102BB4002720186E2E0E196E0F0E1A6E64EC2DF06F
:102BC4008CEC30F00C0E1E6EFF0E1F6EFF0E206E8E
:102BD400FF0E216ED9EC2FF04AC025F04BC026F031
:102BE400276A000E2524116E800E2620126E100E08
:102BF4002720136E010E156ED80E146E9EEC2FF066
:102C0400020E8CEC30F04AC025F04BC026F0276A47
:102C1400000E2524116E800E2620126E100E272021
:102C2400136E000E156EAA0E146E9EEC2FF0020E9B
:102C34008CEC30F04AC025F04BC026F0276A000E19
:102C44002524116E800E2620126E100E2720136E7E
:102C5400000E156E1C0E146E9EEC2FF0020E8CEC02
:102C640030F04AC025F04BC026F0276A000E252418
:102C7400116E800E2620126E100E2720136E080E81
:102C8400156E000E146E9EEC2FF0020E8CEC30F0DC
:102C94004AC025F04BC026F0276A000E2524166E84
:102CA400800E2620176E100E2720186E6C0E196EDB
:102CB4000F0E1A6E64EC2DF08CEC30F00C0E1E6EC0
:102CC400FF0E1F6EFF0E206EFF0E216ED9EC2FF04B
:102CD4004AC025F04BC026F0276A000E2524116E49
:102CE400800E2620126E100E2720136E000E156E15
:102CF400410E146E9EEC2FF0020E8CEC30F04AC0A4
:102D040025F04BC026F0276A000E2524116E800E94
:102D14002620126E100E2720136E000E156EF50E6F
:102D2400146E9EEC2FF0020E8CEC30F04AC025F0AD
:102D34004BC026F0276A000E2524116E800E262033
:102D4400126E100E2720136E000E156E1C0E146EDC
:102D54009EEC2FF0020E8CEC30F04AC025F04BC0F4
:102D640026F0276A000E2524116E800E2620126E8E
:102D7400100E2720136E000E156E000E146E9EECBE
:102D84002FF0020E8CEC30F04AC025F04BC026F038
:102D9400276A000E2524166E800E2620176E100E4C
:102DA4002720186E350E196E0F0E1A6E64EC2DF076
:102DB4008CEC30F00C0E1E6EFF0E1F6EFF0E206E9C
:102DC400FF0E216ED9EC2FF04AC025F04BC026F03F
:102DD400276A000E2524116E800E2620126E100E16
:102DE4002720136E000E156E2D0E146E9EEC2FF020
:102DF400020E8CEC30F04AC025F04BC026F0276A56
:102E0400000E2524116E800E2620126E100E27202F
:102E1400136E000E156EF50E146E9EEC2FF0020E5E
:102E24008CEC30F04AC025F04BC026F0276A000E27
:102E34002524116E800E2620126E100E2720136E8C
:102E4400000E156E1C0E146E9EEC2FF0020E8CEC10
:102E540030F04AC025F04BC026F0276A000E252426
:102E6400116E800E2620126E100E2720136E000E97
:102E7400156E000E146E9EEC2FF0020E8CEC30F0EA
:102E84004AC025F04BC026F0276A000E2524166E92
:102E9400800E2620176E100E2720186E560E196EFF
:102EA4000F0E1A6E64EC2DF08CEC30F00C0E1E6ECE
:102EB400FF0E1F6EFF0E206EFF0E216ED9EC2FF059
:102EC4004AC025F04BC026F0276A000E2524116E57
:102ED400800E2620126E100E2720136E010E156E22
:102EE4000E0E146E9EEC2FF0020E8CEC30F04AC0E5
:102EF40025F04BC026F0276A000E2524116E800EA3
:102F04002620126E100E2720136E000E156EF50E7D
:102F1400146E9EEC2FF0020E8CEC30F04AC025F0BB
:102F24004BC026F0276A000E2524116E800E262041
:102F3400126E100E2720136E000E156E1C0E146EEA
:102F44009EEC2FF0020E8CEC30F04AC025F04BC002
:102F540026F0276A000E2524116E800E2620126E9C
:102F6400100E2720136E000E156E000E146E9EECCC
:102F74002FF0020E8CEC30F04AC025F04BC026F046
:102F8400276A000E2524166E800E2620176E100E5A
:102F94002720186E6E0E196E0F0E1A6E64EC2DF04B
:102FA4008CEC30F00C0E1E6EFF0E1F6EFF0E206EAA
:102FB400FF0E216ED9EC2FF04AC025F04BC026F04D
:102FC400276A000E2524116E800E2620126E100E24
:102FD4002720136E010E156E720E146E9EEC2FF0E8
:102FE400020E8CEC30F04AC025F04BC026F0276A64
:102FF400000E2524116E800E2620126E100E27203E
:10300400136E000E156EF50E146E9EEC2FF0020E6C
:103014008CEC30F04AC025F04BC026F0276A000E35
:103024002524116E800E2620126E100E2720136E9A
:10303400000E156E1C0E146E9EEC2FF0020E8CEC1E
:1030440030F04AC025F04BC026F0276A000E252434
:10305400116E800E2620126E100E2720136E000EA5
:10306400156E000E146E9EEC2FF0020E8CEC30F0F8
:103074004AC025F04BC026F0276A000E2524166EA0
:10308400800E2620176E100E2720186E530E196E10
:103094000F0E1A6E64EC2DF08CEC30F00C0E1E6EDC
:1030A400FF0E1F6EFF0E206EFF0E216ED9EC2FF067
:1030B4004AC025F04BC026F0276A000E2524116E65
:1030C400800E2620126E100E2720136E010E156E30
:1030D400CB0E146E9EEC2FF0020E8CEC30F04AC036
:1030E40025F04BC026F0276A000E2524116E800EB1
:1030F4002620126E100E2720136E000E156EF50E8C
:10310400146E9EEC2FF0020E8CEC30F04AC025F0C9
:103114004BC026F0276A000E2524116E800E26204F
:10312400126E100E2720136E000E156E1C0E146EF8
:103134009EEC2FF0020E8CEC30F04AC025F04BC010
:1031440026F0276A000E2524116E800E2620126EAA
:10315400100E2720136E000E156E000E146E9EECDA
:103164002FF0020E8CEC30F04AC025F04BC026F054
:10317400276A000E2524166E800E2620176E100E68
:103184002720186E560E196E0F0E1A6E64EC2DF071
:103194008CEC30F012002C6E090E1E6E000E1F6EA9
:1031A400000E206E1F0E216ED9EC2FF02C50D8B4D7
:1031B4000BD0000E1E6EFF0E1F6E000E206E040E4E
:1031C400216ED9EC2FF00AD03C0E1E6E3C0E1F6E01
:1031D4003C0E206E040E216ED9EC2FF0000E1E6EF4
:1031E400700E1F6E4D0E206E8B0E216ED9EC2FF0DB
:1031F400000E1E6E600E1F6E4E0E206E810E216E2E
:10320400D9EC2FF02550D8B40BD0000E1E6EFF0E53
:103214001F6E000E206E040E216ED9EC2FF00AD022
:103224003C0E1E6E3C0E1F6E3C0E206E040E216E74
:10323400D9EC2FF0000E1E6E700E1F6EED0E206E78
:10324400950E216ED9EC2FF0000E1E6E600E1F6ECF
:10325400AE0E206E8F0E216ED9EC2FF02650D8B40E
:103264000BD0000E1E6EFF0E1F6E000E206E040E9D
:10327400216ED9EC2FF00AD03C0E1E6E3C0E1F6E50
:103284003C0E206E040E216ED9EC2FF0000E1E6E43
:10329400700E1F6E6D0E206EA20E216ED9EC2FF0F3
:1032A400000E1E6E600E1F6E4E0E206E9A0E216E64
:1032B400D9EC2FF02750D8B40BD0000E1E6EFF0EA1
:1032C4001F6E000E206E040E216ED9EC2FF00AD072
:1032D4003C0E1E6E3C0E1F6E3C0E206E040E216EC4
:1032E400D9EC2FF0000E1E6E700E1F6EED0E206EC8
:1032F400AD0E216ED9EC2FF0000E1E6E600E1F6E07
:10330400AE0E206EA80E216ED9EC2FF02850D8B442
:103314000BD0000E1E6EFF0E1F6E000E206E040EEC
:10332400216ED9EC2FF00AD03C0E1E6E3C0E1F6E9F
:103334003C0E206E040E216ED9EC2FF0000E1E6E92
:10334400700E1F6E2D0E206EBA0E216ED9EC2FF06A
:10335400000E1E6E600E1F6EAE0E206EB20E216E3B
:10336400D9EC2FF02C50D8B40BD0000E1E6E000EEA
:103374001F6E000E206E040E216ED9EC2FF00AD0C1
:10338400FF0E1E6EFF0E1F6EFF0E206E040E216ECA
:10339400D9EC2FF00C0E1E6EFF0E1F6EFF0E206E6A
:1033A400FF0E216ED9EC2FF04AC029F04BC02AF051
:1033B4002B6A000E2924116E800E2A20126E100E24
:1033C4002B20136E000E156E0A0E146E9EEC2FF059
:1033D400020E8CEC30F04AC029F04BC02AF02B6A64
:1033E400000E2924116E800E2A20126E100E2B203E
:1033F400136E000E156ED00E146E9EEC2FF0020E9E
:103404008CEC30F04AC029F04BC02AF02B6A000E35
:103414002924116E800E2A20126E100E2B20136E9A
:10342400000E156E1D0E146E9EEC2FF0020E8CEC29
:1034340030F04AC029F04BC02AF02B6A000E292430
:10344400116E800E2A20126E100E2B20136E000EA9
:10345400156E000E146E9EEC2FF0020E8CEC30F004
:103464004AC029F04BC02AF02B6A000E2924166E9C
:10347400800E2A20176E100E2B20186E1C0E196E4B
:103484000F0E1A6E64EC2DF08CEC30F02550D8B48D
:103494000BD0000E1E6E000E1F6E000E206E040E6A
:1034A400216ED9EC2FF00AD0FF0E1E6EFF0E1F6E98
:1034B400FF0E206E040E216ED9EC2FF00C0E1E6E42
:1034C400FF0E1F6EFF0E206EFF0E216ED9EC2FF043
:1034D4004AC029F04BC02AF02B6A000E2924116E31
:1034E400800E2A20126E100E2B20136E000E156E05
:1034F4007F0E146E9EEC2FF0020E8CEC30F04AC05E
:1035040029F04BC02AF02B6A000E2924116E800E7C
:103514002A20126E100E2B20136E000E156ED00E84
:10352400146E9EEC2FF0020E8CEC30F04AC029F0A1
:103534004BC02AF02B6A000E2924116E800E2A201B
:10354400126E100E2B20136E000E156E1D0E146ECF
:103554009EEC2FF0020E8CEC30F04AC029F04BC0E8
:103564002AF02B6A000E2924116E800E2A20126E76
:10357400100E2B20136E000E156E000E146E9EECB2
:103584002FF0020E8CEC30F04AC029F04BC02AF028
:103594002B6A000E2924166E800E2A20176E100E38
:1035A4002B20186E300E196E0F0E1A6E64EC2DF06F
:1035B4008CEC30F02650D8B40BD0000E1E6E000EEA
:1035C4001F6E000E206E040E216ED9EC2FF00AD06F
:1035D400FF0E1E6EFF0E1F6EFF0E206E040E216E78
:1035E400D9EC2FF00C0E1E6EFF0E1F6EFF0E206E18
:1035F400FF0E216ED9EC2FF04AC029F04BC02AF0FF
:103604002B6A000E2924116E800E2A20126E100ED1
:103614002B20136E000E156ED00E146E9EEC2FF040
:10362400020E8CEC30F04AC029F04BC02AF02B6A11
:10363400000E2924116E800E2A20126E100E2B20EB
:10364400136E000E156ED00E146E9EEC2FF0020E4B
:103654008CEC30F04AC029F04BC02AF02B6A000EE3
:103664002924116E800E2A20126E100E2B20136E48
:10367400000E156E1D0E146E9EEC2FF0020E8CECD7
:1036840030F04AC029F04BC02AF02B6A000E2924DE
:10369400116E800E2A20126E100E2B20136E000E57
:1036A400156E000E146E9EEC2FF0020E8CEC30F0B2
:1036B4004AC029F04BC02AF02B6A000E2924166E4A
:1036C400800E2A20176E100E2B20186E230E196EF2
:1036D4000F0E1A6E64EC2DF08CEC30F02750D8B439
:1036E4000BD0000E1E6E000E1F6E000E206E040E18
:1036F400216ED9EC2FF00AD0FF0E1E6EFF0E1F6E46
:10370400FF0E206E040E216ED9EC2FF00C0E1E6EEF
:10371400FF0E1F6EFF0E206EFF0E216ED9EC2FF0F0
:103724004AC029F04BC02AF02B6A000E2924116EDE
:10373400800E2A20126E100E2B20136E010E156EB1
:10374400450E146E9EEC2FF0020E8CEC30F04AC045
:1037540029F04BC02AF02B6A000E2924116E800E2A
:103764002A20126E100E2B20136E000E156ED00E32
:10377400146E9EEC2FF0020E8CEC30F04AC029F04F
:103784004BC02AF02B6A000E2924116E800E2A20C9
:10379400126E100E2B20136E000E156E1D0E146E7D
:1037A4009EEC2FF0020E8CEC30F04AC029F04BC096
:1037B4002AF02B6A000E2924116E800E2A20126E24
:1037C400100E2B20136E000E156E000E146E9EEC60
:1037D4002FF0020E8CEC30F04AC029F04BC02AF0D6
:1037E4002B6A000E2924166E800E2A20176E100EE6
:1037F4002B20186E460E196E0F0E1A6E64EC2DF007
:103804008CEC30F02850D8B40BD0000E1E6E000E95
:103814001F6E000E206E040E216ED9EC2FF00AD01C
:10382400FF0E1E6EFF0E1F6EFF0E206E040E216E25
:10383400D9EC2FF00C0E1E6EFF0E1F6EFF0E206EC5
:10384400FF0E216ED9EC2FF04AC029F04BC02AF0AC
:103854002B6A000E2924116E800E2A20126E100E7F
:103864002B20136E010E156E950E146E9EEC2FF028
:10387400020E8CEC30F04AC029F04BC02AF02B6ABF
:10388400000E2924116E800E2A20126E100E2B2099
:10389400136E000E156ED00E146E9EEC2FF0020EF9
:1038A4008CEC30F04AC029F04BC02AF02B6A000E91
:1038B4002924116E800E2A20126E100E2B20136EF6
:1038C400000E156E1D0E146E9EEC2FF0020E8CEC85
:1038D40030F04AC029F04BC02AF02B6A000E29248C
:1038E400116E800E2A20126E100E2B20136E000E05
:1038F400156E000E146E9EEC2FF0020E8CEC30F060
:103904004AC029F04BC02AF02B6A000E2924166EF7
:10391400800E2A20176E100E2B20186E2A0E196E98
:103924000F0E1A6E64EC2DF08CEC30F01200000EC9
:103934001E6E7D0E1F6EFF0E206E040E216ED9ECDE
:103944002FF00C0E1E6EFF0E1F6EFF0E206EFF0E6C
:10395400216ED9EC2FF04AC035F04BC036F0376AEF
:10396400000E3524116E800E3620126E100E372094
:10397400136E000E156EF00E146E9EEC2FF0020EF8
:103984008CEC30F04AC035F04BC036F0376A000E8C
:103994003524116E800E3620126E100E3720136EF1
:1039A400000E156EA50E146E9EEC2FF0020E8CEC1C
:1039B40030F04AC035F04BC036F0376A000E35247B
:1039C400116E800E3620126E100E3720136E000E0C
:1039D400156E1B0E146E9EEC2FF0020E8CEC30F064
:1039E4004AC035F04BC036F0376A000E3524116EEC
:1039F400800E3620126E100E3720136E060E156ED2
:103A0400000E146E9EEC2FF0020E8CEC30F04AC0C7
:103A140035F04BC036F0376A000E3524166E800E32
:103A24003620176E100E3720186E420E196E0F0EC8
:103A34001A6E64EC2DF08CEC30F02E0E1E6EFF0E20
:103A44001F6EFF0E206EFF0E216ED9EC2FF04AC0C0
:103A540035F04BC036F0376A000E3524116E800EF7
:103A64003620126E100E3720136E000E156EF00EF7
:103A7400146E9EEC2FF0020E8CEC30F04AC035F040
:103A84004BC036F0376A000E3524116E800E362096
:103A9400126E100E3720136E000E156EBE0E146ECD
:103AA4009EEC2FF0020E8CEC30F04AC035F04BC087
:103AB40036F0376A000E3524116E800E3620126EF1
:103AC400100E3720136E000E156E1D0E146E9EEC34
:103AD4002FF0020E8CEC30F04AC035F04BC036F0BB
:103AE400376A000E3524116E800E3620126E100EC9
:103AF4003720136E060E156E000E146E9EEC2FF01A
:103B0400020E8CEC30F0010E3124356E000E3220A2
:103B1400366E35C01EF036C01FF0000E1FBEFF0EFD
:103B2400206E216ED9EC2FF029C035F02AC036F072
:103B3400351E361E354A362A2D5035243A6E2E50FF
:103B440036203B6E2BC035F02CC036F0351E361EA9
:103B5400354A362A2F503524386E30503620396E87
:103B64003BBE8CD03B5003E13A04D8A087D0000E72
:103B74001E6E000E1F6EFF0E206E040E216ED9EC19
:103B84002FF00C0E1E6EFF0E1F6EFF0E206EFF0E2A
:103B9400216ED9EC2FF04AC035F04BC036F0376AAD
:103BA400000E3524116E800E3620126E100E372052
:103BB400136E000E156E050E146E9EEC2FF0020EA1
:103BC4008CEC30F04AC035F04BC036F0376A000E4A
:103BD4003524116E800E3620126E100E3720136EAF
:103BE400000E156E500E146E9EEC2FF0020E8CEC2F
:103BF40030F04AC035F04BC036F0376A000E352439
:103C0400116E800E3620126E100E3720136E000EC9
:103C1400156E1F0E146E9EEC2FF0020E8CEC30F01D
:103C24004AC035F04BC036F0376A000E3524116EA9
:103C3400800E3620126E100E3720136E000E156E95
:103C4400000E146E9EEC2FF0020E8CEC30F04AC085
:103C540035F04BC036F0376A000E3524166E800EF0
:103C64003620176E100E3720186E580E196E0F0E70
:103C74001A6E64EC2DF08CEC30F086D0000E1E6EC3
:103C8400FF0E1F6E000E206E040E216ED9EC2FF075
:103C94000C0E1E6EFF0E1F6EFF0E206EFF0E216EA9
:103CA400D9EC2FF04AC035F04BC036F0376A000E1D
:103CB4003524116E800E3620126E100E3720136ECE
:103CC400000E156E050E146E9EEC2FF0020E8CEC99
:103CD40030F04AC035F04BC036F0376A000E352458
:103CE400116E800E3620126E100E3720136E000EE9
:103CF400156E500E146E9EEC2FF0020E8CEC30F00C
:103D04004AC035F04BC036F0376A000E3524116EC8
:103D1400800E3620126E100E3720136E000E156EB4
:103D24001F0E146E9EEC2FF0020E8CEC30F04AC085
:103D340035F04BC036F0376A000E3524116E800E14
:103D44003620126E100E3720136E000E156E000E04
:103D5400146E9EEC2FF0020E8CEC30F04AC035F05D
:103D64004BC036F0376A000E3524166E800E3620AE
:103D7400176E100E3720186E5A0E196E0F0E1A6E2B
:103D840064EC2DF08CEC30F00C0E1E6EFF0E1F6EEA
:103D9400FF0E206EFF0E216ED9EC2FF04AC035F0D5
:103DA4004BC036F0376A000E3524116E800E362073
:103DB400126E100E3720136E000E156E350E146E33
:103DC4009EEC2FF0020E8CEC30F04AC035F04BC064
:103DD40036F0376A000E3524116E800E3620126ECE
:103DE400100E3720136E000E156E500E146E9EECDE
:103DF4002FF0020E8CEC30F04AC035F04BC036F098
:103E0400376A000E3524116E800E3620126E100EA5
:103E14003720136E000E156E1F0E146E9EEC2FF0DD
:103E2400020E8CEC30F04AC035F04BC036F0376AE5
:103E3400000E3524116E800E3620126E100E3720BF
:103E4400136E000E156E000E146E9EEC2FF0020E13
:103E54008CEC30F04AC035F04BC036F0376A000EB7
:103E64003524166E800E3620176E100E3720186E0D
:103E74005C0E196E0F0E1A6E64EC2DF08CEC30F0A3
:103E84002E0E1E6EFF0E1F6EFF0E206EFF0E216E95
:103E9400D9EC2FF04AC035F04BC036F0376A000E2B
:103EA4003524116E800E3620126E100E3720136EDC
:103EB400000E156E1E0E146E9EEC2FF0020E8CEC8E
:103EC40030F04AC035F04BC036F0376A000E352466
:103ED400116E800E3620126E100E3720136E000EF7
:103EE400156E500E146E9EEC2FF0020E8CEC30F01A
:103EF4004AC035F04BC036F0376A000E3524116ED7
:103F0400800E3620126E100E3720136E000E156EC2
:103F14001F0E146E9EEC2FF0020E8CEC30F04AC093
:103F240035F04BC036F0376A000E3524116E800E22
:103F34003620126E100E3720136E000E156E000E12
:103F4400146E9EEC2FF0020E8CEC30F03AC01EF092
:103F54003BC01FF0000E1FBEFF0E206E216ED9EC79
:103F64002FF02E0E1E6EFF0E1F6EFF0E206EFF0E24
:103F7400216ED9EC2FF04AC035F04BC036F0376AC9
:103F8400000E3524116E800E3620126E100E37206E
:103F9400136E000E156E3E0E146E9EEC2FF0020E84
:103FA4008CEC30F04AC035F04BC036F0376A000E66
:103FB4003524116E800E3620126E100E3720136ECB
:103FC400000E156E500E146E9EEC2FF0020E8CEC4B
:103FD40030F04AC035F04BC036F0376A000E352455
:103FE400116E800E3620126E100E3720136E000EE6
:103FF400156E1F0E146E9EEC2FF0020E8CEC30F03A
:104004004AC035F04BC036F0376A000E3524116EC5
:10401400800E3620126E100E3720136E000E156EB1
:10402400000E146E9EEC2FF0020E8CEC30F038C0B3
:104034001EF039C01FF0000E1FBEFF0E206E216E51
:10404400D9EC2FF0120020EEC9F010EE90F0150E0E
:10405400DBCFE3FFE806FCE2000E0001816F000EF7
:104064000001806F20EEA6F010EE62F0130EDBCF9D
:10407400E3FFE806FCE2000E00018F6F000E8E6F76
:10408400000E00017B6F000E7A6F000E00017D6F41
:10409400000E7C6F000E0001836F000E826F000E15
:1040A4000001856F000E846F000E0001876F000E03
:1040B400866F000E0001896F000E886F000E0001EC
:1040C4008B6F000E8A6F000E00018D6F000E8C6FD7
:1040D400000E00017F6F000E7E6F9AEC30F06EECE4
:1040E40030F07080708A709E708C608A609C6094DE
:1040F40076907692779A779CC80E0E01E86F400E00
:104104000E01E96FFE0E0E01F86F1F0E0E01F96F1E
:10411400FE0E0E01FC6F110E0E01FD6FC79EC78CC3
:10412400C68AC688C650F00B0209C66EFCEC26F09F
:104134009AEC30F0C650F00B0109C66E89928C9847
:1041440089908A8A8C9A8C868EC030F08FC031F028
:104154007AC032F07BC033F07CC034F07DC035F0DF
:1041640082C036F083C037F084C038F085C039F09F
:1041740086C03AF087C03BF088C03CF089C03DF06F
:104184008AC03EF08BC03FF08CC040F08DC041F03F
:10419400A4EC2EF0DC0E106E610E116EE4EC30F027
:1041A400580E106E600E116EE9EC30F0F2EC30F047
:1041B400F28EF28CBB0E236E000E246E49EC28F0B6
:1041C4000009D8B4A2D1400E0001BC1958E1060E72
:1041D4000001BD190001BE110001BF11D8A44FD0C8
:1041E4000001C251C1C060F00001616B60C061F0A8
:1041F4000001606B0001601100018E6F00016151CC
:1042040000018F6F0001C451C3C060F00001616BF5
:1042140060C061F00001606B00016011106E00016C
:104224006151116E000E136E0A0E126EEEEC2DF03B
:1042340010C07AF011C07BF00001C651C5C060F017
:104244000001616B60C061F00001606B00016011EE
:10425400106E00016151116E000E136E0A0E126E83
:10426400EEEC2DF010C07CF011C07DF0C7C082F0E0
:104274000001836BC8C084F00001856B46D1410EF8
:104284000001BC1912E1060E0001BD190001BE11A6
:104294000001BF11D8A409D0C7C086F00001876B04
:1042A400C8C07EF000017F6B30D1420E0001BC1902
:1042B40016E1060E0001BD190001BE110001BF1177
:1042C400D8A40DD0C1C088F00001896BC2C08AF0A7
:1042D40000018B6BC3C08CF000018D6B16D1430EB3
:1042E4000001BC197BE1060E0001BD190001BE11DD
:1042F4000001BF11D8A472D00001C145010B000117
:10430400806F0001C145E846030B010B0001796F82
:10431400C1C060F0050E0001616F0001D8906033E8
:104324000001612FFAD7010E0001601789500001C6
:104334006019FE0B6019896EC1C060F00001603B1A
:104344000F0E6017010E000160170001603B60470B
:104354008A5000016019DF0B60198A6EC1C060F0D9
:104364000001D89060330001D89060330001D890E8
:104374006033010E00016017000160476047604729
:104384008C5000016019F70B60198C6EC1C060F08D
:104394000001D89060330001D8906033010E000111
:1043A40060170001603B60478C5000016019DF0B0F
:1043B40060198C6E0001C245010B0001766F00018B
:1043C400C245E846030B010B0001776F0001C239B7
:1043D400E842070B010B0001786F97D0440E0001EF
:1043E400BC1908E1060E0001BD190001BE1100014F
:1043F400BF11D8A48AD00001C251C1C060F000012D
:10440400616B60C061F00001606B0001601100012C
:10441400986F000161510001996F0001C451C3C03C
:1044240060F00001616B60C061F00001606B00012D
:1044340060110001906F000161510001916F000152
:10444400C651C5C060F00001616B60C061F000013D
:10445400606B000160110001926F00016151000165
:10446400936F98C010F099C011F0000E136E640E93
:10447400126EEEEC2DF010C09AF011C09BF098C0B3
:1044840018F099C019F0000E1B6E640E1A6E6CECD5
:104494002EF018C09CF019C09DF090C010F091C08F
:1044A40011F0000E136E640E126EEEEC2DF010C0BF
:1044B40094F011C095F090C018F091C019F0000E5E
:1044C4001B6E640E1A6E6CEC2EF018C096F019C0B8
:1044D40097F000019E510001905D00019151800A06
:1044E4000001606F00019F51800A00016059D8B03B
:1044F4000CD090C09EF091C09FF094C0A2F095C0E3
:10450400A3F096C0A4F097C0A5F00001BA51D8B4A6
:1045140051D661EC2FF08EC025F08FC026F0BAEC96
:1045240007F002EC2AF072EC12F084C025F085C08A
:1045340026F080EC2CF088C025F089C026F01FEC12
:104544002BF08AC025F08BC026F0F2EC2CF086C04C
:1045540025F087C026F014EC23F077C025F078C04E
:1045640026F079C027F080C028F000017651CDEC08
:1045740018F07EC025F07FC026F0A3EC2AF08CC092
:1045840025F08DC026F089EC25F082C025F083C08B
:1045940026F00EEC2CF094C025F095C026F096C0C1
:1045A40027F097C028F0A2C029F0A3C02AF0A4C025
:1045B4002BF0A5C02CF09AC02DF09BC02EF09CC00F
:1045C4002FF09DC030F092C031F093C032F0A0C003
:1045D40033F0A1C034F099EC1CF020EC2FF0000172
:1045E4008FBF13D0110E00018E5D270E00018F596D
:1045F400D8A00BD0000181510001D8A406D0F6EC5C
:1046040030F0010E0001816F07D0F2EC30F0000EA3
:104614000001816F89928C98000E0001BA6FDFEC63
:1046240030F0C8D5600E1E6E000E1F6E000E206E98
:104634000E0E216ED9EC2FF0000E1E6E7D0E1F6E35
:10464400CA0E206E040E216ED9EC2FF0030E1E6EDE
:10465400000E1F6E000E206E1F0E216ED9EC2FF07F
:1046640037D2000E1E6EF00E1F6E800E206EAF0E3F
:10467400216ED9EC2FF0000E1E6E300E1F6E870EC9
:10468400206EAF0E216ED9EC2FF0000E1E6EF00ED0
:104694001F6E800E206EAF0E216ED9EC2FF0000E2F
:1046A4001E6E300E1F6E870E206EB90E216ED9EC71
:1046B4002FF0000E1E6E400E1F6E870E206EB90E78
:1046C400216ED9EC2FF0000E1E6EF00E1F6E800EC0
:1046D400206EB90E216ED9EC2FF01200000E1E6E62
:1046E400F00E1F6E800E206EB40E216ED9EC2FF0EA
:1046F400000E1E6E300E1F6E870E206EB40E216EDD
:10470400D9EC2FF0000E1E6EF00E1F6E600E206EA0
:10471400B40E216ED9EC2FF0000E1E6EE00E1F6E4B
:10472400010E206EB20E216ED9EC2FF0000E1E6E1B
:10473400400E1F6EA70E206EB20E216ED9EC2FF024
:10474400000E1E6E400E1F6E670E206EB60E216E9A
:10475400D9EC2FF01200000E1E6EF00E1F6E800EAC
:10476400206EAF0E216ED9EC2FF0000E1E6EF00EEF
:104774001F6E800E206EB90E216ED9EC2FF0000E44
:104784001E6E000E1F6E810E206EB90E216ED9ECC6
:104794002FF0000E1E6E000E1F6E840E206EB90EDA
:1047A400216ED9EC2FF0000E1E6E100E1F6E840EBB
:1047B400206EB90E216ED9EC2FF0000E1E6E100E75
:1047C4001F6E840E206EAF0E216ED9EC2FF0000EFA
:1047D4001E6E200E1F6E840E206EAF0E216ED9EC5D
:1047E4002FF0000E1E6E300E1F6E870E206EAF0E61
:1047F400216ED9EC2FF0000E1E6E300E1F6EA70E28
:10480400206EAF0E216ED9EC2FF0000E1E6E300E0E
:104814001F6E870E206EB90E216ED9EC2FF0120098
:10482400000E1E6EF00E1F6E800E206EAF0E216EF7
:10483400D9EC2FF0000E1E6EF00E1F6E600E206E6F
:10484400B90E216ED9EC2FF0000E1E6E000E1F6EF5
:10485400810E206EB90E216ED9EC2FF0000E1E6E63
:10486400300E1F6E870E206EB90E216ED9EC2FF01C
:10487400000E1E6E100E1F6E640E206EB90E216E99
:10488400D9EC2FF0000E1E6E100E1F6E840E206EDB
:10489400AF0E216ED9EC2FF0000E1E6E300E1F6E7F
:1048A400A70E206EAF0E216ED9EC2FF0000E1E6EF7
:1048B400300E1F6E670E206EB90E216ED9EC2FF0EC
:1048C4001200000E1E6EF00E1F6E800E206EAF0ED4
:1048D400216ED9EC2FF0000E1E6E000E1F6E840E9A
:1048E400206EAF0E216ED9EC2FF0000E1E6E000E5E
:1048F4001F6E810E206EB90E216ED9EC2FF0000EC2
:104904001E6E300E1F6E870E206EB90E216ED9EC0E
:104914002FF0000E1E6E100E1F6E240E206EB90EA8
:10492400216ED9EC2FF0000E1E6E100E1F6EA40E19
:10493400206EAF0E216ED9EC2FF01200000E1E6E09
:10494400F00E1F6E800E206EAF0E216ED9EC2FF08C
:10495400000E1E6EF00E1F6E600E206EB90E216EDC
:10496400D9EC2FF0000E1E6E000E1F6E810E206E0D
:10497400AF0E216ED9EC2FF0000E1E6E000E1F6ECE
:10498400840E206EAF0E216ED9EC2FF0000E1E6E39
:10499400100E1F6E840E206EB90E216ED9EC2FF00E
:1049A400000E1E6E200E1F6E870E206EB90E216E35
:1049B400D9EC2FF0000E1E6E100E1F6E240E206E0A
:1049C400B90E216ED9EC2FF0000E1E6E100E1F6E64
:1049D400A40E206EAF0E216ED9EC2FF0000E1E6EC9
:1049E400300E1F6EA70E206EAF0E216ED9EC2FF085
:1049F400000E1E6E300E1F6E670E206EB90E216EF5
:104A0400D9EC2FF01200000E1E6EF00E1F6E800EF9
:104A1400206EAF0E216ED9EC2FF0000E1E6EF00E3C
:104A24001F6E600E206EB90E216ED9EC2FF0000EB1
:104A34001E6E000E1F6E810E206EAF0E216ED9EC1D
:104A44002FF0000E1E6E300E1F6E870E206EAF0EFE
:104A5400216ED9EC2FF0000E1E6E100E1F6E840E08
:104A6400206EB90E216ED9EC2FF0000E1E6E200EB2
:104A74001F6E870E206EB90E216ED9EC2FF0000E3A
:104A84001E6E100E1F6E240E206EB90E216ED9EC10
:104A94002FF0000E1E6E100E1F6EA40E206EAF0EB1
:104AA400216ED9EC2FF0000E1E6E300E1F6EA70E75
:104AB400206EAF0E216ED9EC2FF0000E1E6E300E5C
:104AC4001F6E670E206EB90E216ED9EC2FF0120006
:104AD40025C027F026C028F02850000AD8A41200C8
:104AE4002750000AD8B4BDD5010AD8B4F7D5030AB3
:104AF400D8B431D6010AD8B493D6070AD8B4E1D6CB
:104B0400010AD8B41BD7030AD8A412007CD72E0EEE
:104B14001E6EFF0E1F6EFF0E206EFF0E216ED9EC6F
:104B24002FF04AC027F04BC028F0296A000E272432
:104B3400116E800E2820126E100E2920136E000EA6
:104B4400156EF00E146E9EEC2FF0020E8CEC30F00D
:104B54004AC027F04BC028F0296A000E2724116EA2
:104B6400800E2820126E100E2920136E000E156E72
:104B7400EC0E146E9EEC2FF0020E8CEC30F04AC05A
:104B840027F04BC028F0296A000E2724116E800EEE
:104B94002820126E100E2920136E000E156E1E0EA4
:104BA400146E9EEC2FF0020E8CEC30F04AC027F00D
:104BB4004BC028F0296A000E2724116E800E28208D
:104BC400126E100E2920136E080E156E000E146E50
:104BD4009EEC2FF0020E8CEC30F025C010F026C0B5
:104BE40011F0000E136E0A0E126EEEEC2DF010C0D2
:104BF4001EF011C01FF0000E1FBEFF0E206E216EAE
:104C0400D9EC2FF00C0E1E6EFF0E1F6EFF0E206EE1
:104C1400FF0E216ED9EC2FF04AC027F04BC028F0CC
:104C2400296A000E2724116E800E2820126E100EA1
:104C34002920136E000E156EF00E146E9EEC2FF0EC
:104C4400020E8CEC30F04AC027F04BC028F0296AE1
:104C5400000E2724116E800E2820126E100E2920BB
:104C6400136E000E156EEC0E146E9EEC2FF0020EF9
:104C74008CEC30F04AC027F04BC028F0296A000EB3
:104C84002724116E800E2820126E100E2920136E18
:104C9400000E156E1E0E146E9EEC2FF0020E8CECA0
:104CA40030F04AC027F04BC028F0296A000E2724B0
:104CB400116E800E2820126E100E2920136E000E25
:104CC400156E000E146E9EEC2FF0020E8CEC30F07C
:104CD4004AC027F04BC028F0296A000E2724166E1C
:104CE400800E2820176E100E2920186E5C0E196E87
:104CF4000F0E1A6E64EC2DF08CEC30F02E0E1E6E3E
:104D0400FF0E1F6EFF0E206EFF0E216ED9EC2FF0EA
:104D14004AC027F04BC028F0296A000E2724116EE0
:104D2400800E2820126E100E2920136E000E156EB0
:104D3400F80E146E9EEC2FF0020E8CEC30F04AC08C
:104D440027F04BC028F0296A000E2724116E800E2C
:104D54002820126E100E2920136E000E156EEC0E14
:104D6400146E9EEC2FF0020E8CEC30F04AC027F04B
:104D74004BC028F0296A000E2724116E800E2820CB
:104D8400126E100E2920136E000E156E1E0E146E78
:104D94009EEC2FF0020E8CEC30F04AC027F04BC092
:104DA40028F0296A000E2724116E800E2820126E26
:104DB400100E2920136E000E156E000E146E9EEC5C
:104DC4002FF0020E8CEC30F025C018F026C019F03C
:104DD400000E1B6E0A0E1A6E6CEC2EF018C01EF03C
:104DE40019C01FF0000E1FBEFF0E206E216ED9ECFD
:104DF4002FF012008B92020E1D6EA00E1C6E920EEE
:104E0400E82EFED71C2EFCD71D2EFAD700D08B829D
:104E1400020E1D6EA00E1C6E920EE82EFED71C2EE6
:104E2400FCD71D2EFAD700D0000EA7EC30F0440EAC
:104E3400A7EC30F0620EA7EC30F0300E116E240EA9
:104E4400126E100E136E010E156EE00E146E9EECB3
:104E54002FF0440E116E240E126E100E136E010EFE
:104E6400156E100E146E9EEC2FF0280E116E240E8B
:104E7400126E100E136E020E156E0D0E146E9EEC55
:104E84002FF0340E116E240E126E100E136E000EDF
:104E9400156E000E146E9EEC2FF0380E116E240E5B
:104EA400126E100E136E000E156E290E146E9EEC0B
:104EB4002FF02C0E116E240E126E100E136E000EB7
:104EC400156E2B0E146E9EEC2FF03C0E116E240EFC
:104ED400126E100E136E010E156E1E0E146E9EECE5
:104EE4002FF0480E116E240E126E100E136E000E6B
:104EF400156E000E146E9EEC2FF04C0E116E240EE7
:104F0400126E100E136E000E156E0A0E146E9EECC9
:104F14002FF0400E116E240E126E100E136E000E42
:104F2400156E0C0E146E9EEC2FF0640E116E240E92
:104F3400126E100E136E000E146E11EC30F05C0E37
:104F4400116E240E126E100E136E000E146E11EC00
:104F540030F0580E116E240E126E100E136E010EE8
:104F6400156EB60E146E9EEC2FF0600E116E240EAC
:104F7400126E100E136E000E146E11EC30F0680EEB
:104F8400116E240E126E100E136E000E146E11ECC0
:104F940030F0540E116E240E126E100E136E000EAD
:104FA400146E11EC30F0000E116E000E126E100E25
:104FB400136E000E146E1A0E156E000E166E020E8F
:104FC400176E30EC2EF0040E116E000E126E100EE1
:104FD400136E070E146E000E156E000E166E260E5E
:104FE400176E30EC2EF0080E116E000E126E100EBD
:104FF400136E000E146E000E156E000E166E000E6B
:10500400176E30EC2EF0500E116E240E126E100E30
:10501400136E020E146E11EC30F08C0E116E240E11
:10502400126E100E136EFC0E146E11EC30F0900E16
:10503400116E240E126E100E136EFF0E146E11EC10
:1050440030F06C0E116E240E126E100E136E050EDF
:10505400146E11EC30F0E80E116E240E126E100E68
:10506400136ED7EC2EF011C04AF012C04BF0E40ED0
:10507400116E240E126E100E136ED7EC2EF04A50E1
:105084001118F5E14B501218D8B41200F0D7000EE5
:10509400256E60AE83D062A61ED023C0D9FF24C083
:1050A400DAFF020EDF6E64CF10F061CF11F062CF31
:1050B40012F063505EEC29F020EE01F02350D92663
:1050C4002450DA2210C0DEFF11C0DEFF12C0DEFF62
:1050D40013C0DEFF19D023C0D9FF24C0DAFF010EAC
:1050E400DF6E62CF10F06150ABEC2DF020EE01F0DA
:1050F4002350D9262450DA2210C0DEFF11C0DEFF6F
:1051040012C0DEFF13C0DEFF20EE05F02350D926C7
:105114002450DA2265CFDFFF20EE06F02350D92693
:105124002450DA2266CFDFFF20EE07F02350D92681
:105134002450DA2267CFDFFF20EE08F02350D9266F
:105144002450DA2268CFDFFF20EE09F02350D9265D
:105154002450DA2269CFDFFF20EE0AF02350D9264B
:105164002450DA226ACFDFFF20EE0BF02350D92639
:105174002450DA226BCFDFFF20EE0CF02350D92627
:105184002450DA226CCFDFFF20EE0DF02350D92615
:105194002450DA226DCFDFFF609E89D00F0130AF3B
:1051A40088D00F0132A71FD023C0D9FF24C0DAFF53
:1051B400020EDF6E34CF10F031CF11F032CF12F087
:1051C4000F0133515EEC29F020EE01F02350D92673
:1051D4002450DA2210C0DEFF11C0DEFF12C0DEFF51
:1051E40013C0DEFF1AD023C0D9FF24C0DAFF010E9A
:1051F400DF6E32CF10F00F013151ABEC2DF020EE09
:1052040001F02350D9262450DA2210C0DEFF11C049
:10521400DEFF12C0DEFF13C0DEFF20EE05F02350D8
:10522400D9262450DA2235CFDFFF20EE06F02350B2
:10523400D9262450DA2236CFDFFF20EE07F02350A0
:10524400D9262450DA2237CFDFFF20EE08F023508E
:10525400D9262450DA2238CFDFFF20EE09F023507C
:10526400D9262450DA2239CFDFFF20EE0AF023506A
:10527400D9262450DA223ACFDFFF20EE0BF0235058
:10528400D9262450DA223BCFDFFF20EE0CF0235046
:10529400D9262450DA223CCFDFFF20EE0DF0235034
:1052A400D9262450DA223DCFDFFF0F01309F010EB3
:1052B400256E779225501200186E000E196E000E9E
:1052C4001A6E000E1B6E000E1C6E000E1F6E000E7A
:1052D400206E000E216E000E226E1250030B1D6E06
:1052E4001238E842070B1E6E1150146E156AD890DE
:1052F40014361536D89014361536D890143615361B
:1053040014C01FF015C020F0000E20BEFF0E216E49
:10531400226E1E501F241F6E000E2020206E000ED1
:105324002120216E000E2220226E1FC014F020C006
:1053340015F021C016F022C017F0020ED8901436D2
:10534400153616361736E82EF9D714C01FF015C0D7
:1053540020F016C021F017C022F01D501F241F6E2C
:10536400000E2020206E000E2120216E000E22202F
:10537400226E1FC015F020C016F021C017F0146A69
:1053840014C01FF015C020F016C021F017C022F081
:1053940018501F241F6E000E2020206E000E2120A6
:1053A400216E000E2220226E1FC015F020C016F0C0
:1053B40021C017F0146A14C01FF015C020F016C0E5
:1053C40021F017C022F010501F241F6E000E202061
:1053D400206E000E2120216E000E2220226E1FC09E
:1053E40019F020C01AF021C01BF022C01CF019C013
:1053F40010F01AC011F01BC012F01CC013F0120000
:10540400000E1E6E000E1F6EFF0E206E040E216E27
:10541400D9EC2FF0080E1E6E000E1F6E000E206ECB
:105424001F0E216ED9EC2FF0000E1E6E800E1F6E23
:105434000C0E206E800E216ED9EC2FF0000E1E6E25
:10544400800E1F6E6C0E206E970E216ED9EC2FF01D
:10545400000E1E6ED00E1F6E0A0E206E9B0E216E65
:10546400D9EC2FF0000E1E6ED00E1F6EEA0E206EC9
:10547400A00E216ED9EC2FF0000E1E6E800E1F6E52
:105484008C0E206EA40E216ED9EC2FF0000E1E6E31
:10549400800E1F6E0C0E206EBC0E216ED9EC2FF008
:1054A400000E1E6E000E1F6E000E206E040E216E86
:1054B400D9EC2FF0080E1E6E000E1F6E000E206E2B
:1054C4001F0E216ED9EC2FF0000E1E6ED00E1F6E33
:1054D4000C0E206E800E216ED9EC2FF0000E1E6E85
:1054E400C00E1F6EAC0E206E970E216ED9EC2FF0FD
:1054F400000E1E6E100E1F6E2B0E206E9B0E216E64
:10550400D9EC2FF0000E1E6E100E1F6EAB0E206E27
:10551400A00E216ED9EC2FF0000E1E6EC00E1F6E71
:105524002C0E206EA40E216ED9EC2FF0000E1E6EF0
:10553400D00E1F6E6C0E206EBC0E216ED9EC2FF0B7
:105544001200FF0E1E6EFF0E1F6EFF0E206E040E65
:10555400216ED9EC2FF02E0E1E6EFF0E1F6EFF0E65
:10556400206EFF0E216ED9EC2FF04AC027F04BC0FD
:1055740028F0296A000E2724116E800E2820126E4E
:10558400100E2920136E000E156E050E146E9EEC7F
:105594002FF0020E8CEC30F04AC027F04BC028F0FC
:1055A400296A000E2724116E800E2820126E100E18
:1055B4002920136E000E156EEC0E146E9EEC2FF067
:1055C400020E8CEC30F04AC027F04BC028F0296A58
:1055D400000E2724116E800E2820126E100E292032
:1055E400136E000E156E1E0E146E9EEC2FF0020E3E
:1055F4008CEC30F04AC027F04BC028F0296A000E2A
:105604002724116E800E2820126E100E2920136E8E
:10561400000E156E000E146E9EEC2FF0020E8CEC34
:1056240030F025C01EF026C01FF0000E1FBEFF0E76
:10563400206E216ED9EC2FF01200FF0E1E6EFF0EAD
:105644001F6EFF0E206E040E216ED9EC2FF02E0E6D
:105654001E6EFF0E1F6EFF0E206EFF0E216ED9EC24
:105664002FF04AC027F04BC028F0296A000E2724E7
:10567400116E800E2820126E100E2920136E000E5B
:10568400156E050E146E9EEC2FF0020E8CEC30F0AD
:105694004AC027F04BC028F0296A000E2724116E57
:1056A400800E2820126E100E2920136E000E156E27
:1056B4009B0E146E9EEC2FF0020E8CEC30F04AC060
:1056C40027F04BC028F0296A000E2724116E800EA3
:1056D4002820126E100E2920136E000E156E1F0E58
:1056E400146E9EEC2FF0020E8CEC30F04AC027F0C2
:1056F4004BC028F0296A000E2724116E800E282042
:10570400126E100E2920136E000E156E000E146E0C
:105714009EEC2FF0020E8CEC30F025C01EF026C05B
:105724001FF0000E1FBEFF0E206E216ED9EC2FF06D
:105734001200800E6F6E6E50E00B800AD8A4FBD767
:10574400000E726E0E01FA690E01FB690E01F86912
:105754000E01F9690E01FE690E01FF690E01FC6973
:105764000E01FD69000E0E01E26F000E0E01E36FE3
:10577400000E0E01E06F000E0E01E16F000E0E012F
:10578400E66F000E0E01E76F000E0E01E46F000ECF
:105794000E01E56F000E0E01EA6F000E0E01EB6FB5
:1057A400000E0E01E86F000E0E01E96F000E0E01EF
:1057B400EE6F000E0E01EF6F000E0E01EC6F000E87
:1057C4000E01ED6F000E0E01F26F000E0E01F36F6D
:1057D400000E0E01F06F000E0E01F16F000E0E01AF
:1057E400F66F000E0E01F76F000E0E01F46F000E3F
:1057F4000E01F56F030E0E01436F980E0E01446FF8
:10580400010E0E01456F000E6F6E6ECF10F0E00EAC
:105814001016D8B41200F9D72E0E1E6EFF0E1F6E8E
:10582400FF0E206EFF0E216ED9EC2FF04AC027F038
:105834004BC028F0296A000E2724116E800E282000
:10584400126E100E2920136E010E156EC70E146E03
:105854009EEC2FF0020E8CEC30F04AC027F04BC0C7
:1058640028F0296A000E2724116E800E2820126E5B
:10587400100E2920136E000E156EEC0E146E9EECA5
:105884002FF0020E8CEC30F04AC027F04BC028F009
:10589400296A000E2724116E800E2820126E100E25
:1058A4002920136E000E156E1E0E146E9EEC2FF042
:1058B400020E8CEC30F04AC027F04BC028F0296A65
:1058C400000E2724116E800E2820126E100E29203F
:1058D400136E080E156E000E146E9EEC2FF0020E61
:1058E4008CEC30F025C01EF026C01FF0000E1FBE49
:1058F400FF0E206E216ED9EC2FF012002E0E1E6EBC
:10590400FF0E1F6EFF0E206EFF0E216ED9EC2FF0DE
:105914004AC027F04BC028F0296A000E2724116ED4
:10592400800E2820126E100E2920136E000E156EA4
:105934004B0E146E9EEC2FF0020E8CEC30F04AC02D
:1059440027F04BC028F0296A000E2724116E800E20
:105954002820126E100E2920136E000E156E050EEF
:10596400146E9EEC2FF0020E8CEC30F04AC027F03F
:105974004BC028F0296A000E2724116E800E2820BF
:10598400126E100E2920136E000E156E1F0E146E6B
:105994009EEC2FF0020E8CEC30F04AC027F04BC086
:1059A40028F0296A000E2724116E800E2820126E1A
:1059B400100E2920136E080E156E000E146E9EEC48
:1059C4002FF0020E8CEC30F025C01EF026C01FF024
:1059D400000E1FBEFF0E206E216ED9EC2FF01200B8
:1059E4002E0E1E6EFF0E1F6EFF0E206EFF0E216E1A
:1059F400D9EC2FF04AC027F04BC028F0296A000EDA
:105A04002724116E800E2820126E100E2920136E8A
:105A1400010E156EC20E146E9EEC2FF0020E8CEC6D
:105A240030F04AC027F04BC028F0296A000E272422
:105A3400116E800E2820126E100E2920136E000E97
:105A4400156E9B0E146E9EEC2FF0020E8CEC30F053
:105A54004AC027F04BC028F0296A000E2724116E93
:105A6400800E2820126E100E2920136E000E156E63
:105A74001F0E146E9EEC2FF0020E8CEC30F04AC018
:105A840027F04BC028F0296A000E2724116E800EDF
:105A94002820126E100E2920136E080E156E000EAB
:105AA400146E9EEC2FF0020E8CEC30F025C01EF02C
:105AB40026C01FF0000E1FBEFF0E206E216ED9EC13
:105AC4002FF012008C9018508009C8EC30F016C0EA
:105AD4001BF017C01CF018C01DF01CC01BF01DC02B
:105AE4001CF01D6A1B50C8EC30F01650C8EC30F0A6
:105AF40019C010F01AC011F041EC2FF010501E6EB6
:105B0400000E1F6E14D01F50010D19C01BF01AC0D7
:105B14001CF0F3501B26F4501C221BC0F6FF1CC0C3
:105B2400F7FFF86A0800F550C8EC30F01F2A1F5040
:105B34001E5CD8A005D0E7D7000EC8EC30F01F2AB1
:105B44001FC01BF0030E1B16D8A4F6D78C801F5061
:105B54001200166E000E176E000E186E000E196EEF
:105B6400000E1A6E1650146E156AD8901436153637
:105B7400D89014361536D8901436153614C01BF048
:105B840015C01CF0000E1CBEFF0E1D6E1E6E10C054
:105B940014F0050E156ED8901432152EFCD714503F
:105BA4001B241B6E000E1C201C6E000E1D201D6E7F
:105BB400000E1E201E6E1BC017F01CC018F01DC066
:105BC40019F01EC01AF017C010F018C011F019C057
:105BD40012F01AC013F01200000E156E13AE06D0A8
:105BE400126C131ED8B0132A010E156E11AE06D016
:105BF400106C111ED8B0112A010E151A000E176E62
:105C0400000E166E12501310D8B41CD0010E146E70
:105C140004D0D89012361336142A13AEFAD7D8907B
:105C2400163617361250105C13501158D8A005D0F0
:105C34001250105E1350115A1680D890133212323B
:105C4400142EEDD71550D8B404D0166C171ED8B046
:105C5400172A16C010F017C011F012008C901350C0
:105C64008009C8EC30F011C018F012C019F013C04C
:105C74001AF019C018F01AC019F01A6A1850C8ECB2
:105C840030F01150C8EC30F01450C8EC30F015501E
:105C9400C8EC30F01650C8EC30F014C018F015C041
:105CA40019F016C01AF017C01BF0110E05D0D890C9
:105CB4001B321A3219321832E82EF9D719C018F0EB
:105CC4001AC019F01BC01AF01B6A1850C8EC30F047
:105CD4008C801200000E1D6E19AE06D0186C191EB1
:105CE400D8B0192A010E1D6E1BAE04D01A6C1B1EEF
:105CF400D8B01B2A1A501B10D8B418D0010E1C6E31
:105D040004D0D8901A361B361C2A1BAEFAD71A5068
:105D1400185C1B501958D8A004D01A50185E1B5098
:105D2400195AD8901B321A321C2EF1D71D50D8B4F0
:105D340004D0186C191ED8B0192A18C018F019C04C
:105D440019F0120061EC2FF030C025F031C026F0BC
:105D5400BAEC07F002EC2AF072EC12F038C025F02D
:105D640039C026F080EC2CF03CC025F03DC026F074
:105D74001FEC2BF03EC025F03FC026F0F2EC2CF0D7
:105D84003AC025F03BC026F014EC23F040C025F0C7
:105D940041C026F089EC25F036C025F037C026F046
:105DA4000EEC2CF020EC2FF012008C901350C8EC69
:105DB40030F011C014F012C015F013C016F015C065
:105DC40014F016C015F0166A1450C8EC30F01150D7
:105DD400C8EC30F0000EC8EC30F0000EC8EC30F027
:105DE400C9CF17F0000EC8EC30F08C80C950146E87
:105DF4001750116E14C012F01200680EF66E610E88
:105E0400F76E000EF86E00EEC9F010EE16F0090001
:105E1400F5CFEEFFE550E150FAE100EEA6F0230ED7
:105E2400EE6AE806FDE100EE42F00D0EEE6AE806C9
:105E3400FDE14F904F92000125EF20F0000E1E6E01
:105E4400000E1F6E000E206E000E216ED9EC2FF096
:105E5400010E1E6EFF0E1F6EFF0E206EFF0E216ED2
:105E6400D9EC2FF0E80E116E240E126E100E136E84
:105E74004AC014F04BC015F09EEC2FF0120010C075
:105E840014F011C015F002D0144A152A14C0F6FFFC
:105E940015C0F7FFF86A0800F5500009D8A4F4D734
:105EA40010C012F011C013F0121E131E124A132A4E
:105EB40014501224106E15501320116E1200000E8F
:105EC4001E6EFF0E1F6EFF0E206EFF0E216ED9ECAC
:105ED4002FF0140E1E6E140E1F6E140E206E020E82
:105EE400216ED9EC2FF0070E1E6E000E1F6E000EF1
:105EF400206E260E216ED9EC2FF01200300ECD6EDE
:105F0400000EAA6E150ECF6EA00ECE6ECE50CFCF61
:105F140012F0136A12C013F0126A1210486E135072
:105F2400496E9E909D80F40E106E610E116EE4EC2D
:105F340030F0F4EC30F012008C9013508009C8EC6F
:105F440030F011C016F012C017F013C018F017C0CB
:105F540016F018C017F0186A1650C8EC30F011503B
:105F6400C8EC30F01450C8EC30F01550C8EC30F0E8
:105F74008C801200000E8D6E000E8C6E000E896EE9
:105F8400000E8A6E000E8B6E070E966EEC0E926EED
:105F9400DB0E936ED50E946EC20E956E0F015D6985
:105FA4007D0E0F015C6FCF0E0F015B6F12004AC0B4
:105FB40022F04BC023F0246A000E2224116E800EBE
:105FC4002320126E100E2420136E1EC014F01FC066
:105FD40015F020C016F021C017F030EC2EF0040E9E
:105FE4008CEC30F01200150ED56ECF0ED76E2B0E42
:105FF400D66ED650D7CF12F0136A12C013F0126ABD
:106004001210426E1350436EF294F28AF60E106E22
:10601400610E116EE9EC30F0F6EC30F012008C9069
:1060240013508009C8EC30F011C015F012C016F0FE
:1060340013C017F016C015F017C016F0176A1550E4
:10604400C8EC30F01150C8EC30F01450C8EC30F00B
:106054008C801200F29C80B203D0016A012A01D024
:10606400016A014689500118FD0B0118896E83B835
:1060740003D0016A012A01D0016A013A8C50011847
:10608400EF0B01188C6EF28C1200F2944350D76E11
:1060940042C0D6FF44504510D8B4120001D81200B3
:1060A4000500FA6E4450FD6E4550FE6EFF6AFA50CC
:1060B400120010501202F3CF14F0F4CF15F0105068
:1060C4001302F350152611501202F350152614C072
:1060D40010F015C011F01200F8EC30F0BCEC2FF009
:1060E400BFEC30F0D8EC30F080EC2FF0F5EC2FF072
:1060F4009BEC2BF0120046504710D8B4120001D884
:1061040012000500FA6E4650FD6E4750FE6EFF6A9F
:10611400FA501200126E12504A24106E000E4B20D8
:10612400116EFF0E10144A6E0F0E11144B6E1200F6
:10613400A30E116E570E106E020EE82EFED7102E0F
:10614400FCD7112EFAD700D01200116E8C9011508A
:10615400C8EC30F0000EC8EC30F0000EC8EC30F0A3
:106164008C8012000000010000000000000000000C
:1061740000000000000000000000600ED36E000E5E
:10618400D26E000E9B6E000E9A6E1200106EC69EAA
:1061940010C0C9FFC7A0FED7C95012009E90495035
:1061A400CF6E48C0CEFF7DEC30F01200000EC76EFB
:1061B400200EC66E000EC86E12004950CF6E48C045
:1061C400CEFF120010C046F011C047F0120010C0FC
:1061D40044F011C045F01200010E0001BA6F120024
:1061E400D59E1200CD801200D58E1200D09E1200D2
:0461F4001200120083
:020000040020DA
:08000000FFFFFFFFFFFFFFFF00
:020000040030CA
:0E00000015127F7CFF8991FF0FC00FE00F40AB
:00000001FF
