:0400000045EF00F0D8
:100008004C82FACF01F0FBCF02F0E9CF03F0EACF40
:1000180004F0E1CF05F0E2CF06F0D9CF07F0DACF50
:1000280008F0F3CF09F0F4CF0AF0F6CF0BF0F7CFD2
:100038000CF0F8CF0DF0F5CF0EF0F2BC9DA003D078
:100048009EB0A8EC32F00EC0F5FF0DC0F8FF0CC052
:10005800F7FF0BC0F6FF0AC0F4FF09C0F3FF08C0A2
:10006800DAFF07C0D9FF06C0E2FF05C0E1FF04C000
:10007800EAFF03C0E9FF02C0FBFF01C0FAFF4C9290
:0600880011007BEF31F0D6
:100F00000053504545440057415445520050524506
:100F1000535300564F4C54530068656C6C6F00522D
:100F20003138200055534544004655454C00544542
:100F30004D50004C415354004245535400424154DB
:100F400054004B5048004F494C0052504D004C410A
:100F50005000313000313100313200545000250052
:100F60002E003300340035003600370038003900D9
:050F70003A006B0000D7
:100F760025C00FF026C010F0030E126EE80E116E9B
:100F86009DEC30F00FC02EF010C02FF0000E126E48
:100F9600640E116E25C00FF026C010F09DEC30F0E7
:100FA6000FC017F010C018F0000E1A6E0A0E196E58
:100FB6001BEC31F017C02CF018C02DF0FF0E1E6E82
:100FC600FF0E1F6EFF0E206E040E216E55EC32F0E2
:100FD600090E1E6EFF0E1F6EFF0E206EFF0E216E97
:100FE60055EC32F0320E1E6E320E1F6E320E206E31
:100FF600000E216E55EC32F0130E1E6EFF0E1F6EA4
:10100600FF0E206EFF0E216E55EC32F048C027F021
:1010160049C028F0296A000E2724106E800E282069
:10102600116E100E2920126E000E146EF00E136E45
:101036001AEC32F0020ECFEC32F048C027F049C06D
:1010460028F0296A000E2724106E800E2820116EC3
:10105600100E2920126E000E146E730E136E1AEC0B
:1010660032F0020ECFEC32F048C027F049C028F02B
:10107600296A000E2724106E800E2820116E100E8D
:101086002920126E000E146E820E136E1AEC32F0C8
:10109600020ECFEC32F048C027F049C028F0296A8A
:1010A600000E2724106E800E2820116E100E2920A7
:1010B600126E510E146E000E136E1AEC32F0020E02
:1010C600CFEC32F048C027F049C028F0296A000E5C
:1010D6002724106E800E2820116E100E2920126E05
:1010E600000E146E0A0E136E1AEC32F0020ECFECDE
:1010F60032F048C027F049C028F0296A000E27249C
:10110600106E800E2820116E100E2920126E000E11
:10111600146E050E136E1AEC32F0020ECFEC32F09E
:1011260048C027F049C028F0296A000E2724106E0F
:10113600800E2820116E100E2920126E000E146EDD
:10114600000E136E1AEC32F0020ECFEC32F048C0ED
:1011560027F049C028F0296A000E2724106E800E59
:101166002820116E100E2920126E000E146E320EFB
:10117600136E1AEC32F0020ECFEC32F0000E1E6E39
:10118600000E1F6EFF0E206E040E216E55EC32F01F
:101196002FBE06D02F5003E1020E2E5CD8B0C3D06E
:1011A600130E1E6EFF0E1F6EFF0E206EFF0E216EBB
:1011B60055EC32F048C027F049C028F0296A000EE5
:1011C6002724106E800E2820116E100E2920126E14
:1011D600000E146EF00E136E1AEC32F0020ECFEC07
:1011E60032F048C027F049C028F0296A000E2724AB
:1011F600106E800E2820116E100E2920126E000E21
:10120600146E730E136E1AEC32F0020ECFEC32F03F
:1012160048C027F049C028F0296A000E2724106E1E
:10122600800E2820116E100E2920126E000E146EEC
:10123600820E136E1AEC32F0020ECFEC32F048C07A
:1012460027F049C028F0296A000E2724106E800E68
:101256002820116E100E2920126E310E146E000E0B
:10126600136E1AEC32F0020ECFEC32F048C027F0C3
:1012760049C028F0296A000E2724106E800E282007
:10128600116E100E2920126E000E146E0A0E136EC9
:101296001AEC32F0020ECFEC32F048C027F049C00B
:1012A60028F0296A000E2724106E800E2820116E61
:1012B600100E2920126E000E146E050E136E1AEC17
:1012C60032F0020ECFEC32F048C027F049C028F0C9
:1012D600296A000E2724106E800E2820116E100E2B
:1012E6002920126E2EC013F02FC014F01AEC32F023
:1012F600020ECFEC32F048C027F049C028F0296A28
:10130600000E2724106E800E2820116E100E292044
:10131600126E000E146E320E136E1AEC32F0020EBE
:10132600CFEC32F0E2D0FE0E2E240F6EFF0E2F20F1
:10133600106E000E126E050E116EBCEC32F00FC070
:1013460027F010C028F02CC00FF02DC010F0000EB2
:10135600126E020E116E9DEC30F00F5027242A6E8D
:10136600105028202B6E130E1E6EFF0E1F6EFF0EE2
:10137600206EFF0E216E55EC32F048C027F049C0B2
:1013860028F0296A000E2724106E800E2820116E80
:10139600100E2920126E000E146EF00E136E1AEC4B
:1013A60032F0020ECFEC32F048C027F049C028F0E8
:1013B600296A000E2724106E800E2820116E100E4A
:1013C6002920126E000E146E730E136E1AEC32F094
:1013D600020ECFEC32F048C027F049C028F0296A47
:1013E600000E2724106E800E2820116E100E292064
:1013F600126E000E146E820E136E1AEC32F0020E8E
:10140600CFEC32F048C027F049C028F0296A000E18
:101416002724106E800E2820116E100E2920126EC1
:10142600310E146E000E136E1AEC32F0020ECFEC73
:1014360032F048C027F049C028F0296A000E272458
:10144600106E800E2820116E100E2920126E000ECE
:10145600146E0A0E136E1AEC32F0020ECFEC32F056
:1014660048C027F049C028F0296A000E2724106ECC
:10147600800E2820116E100E2920126E000E146E9A
:10148600050E136E1AEC32F0020ECFEC32F048C0A5
:1014960027F049C028F0296A000E2724106E800E16
:1014A6002820116E100E2920126E2AC013F02BC0B0
:1014B60014F01AEC32F0020ECFEC32F048C027F0EE
:1014C60049C028F0296A000E2724106E800E2820B5
:1014D600116E100E2920126E000E146E320E136E4F
:1014E6001AEC32F0020ECFEC32F0FF0E1E6EFF0E3B
:1014F6001F6EFF0E206E040E216E55EC32F02E0E7E
:101506001E6EFF0E1F6EFF0E206EFF0E216E55EC37
:1015160032F048C027F049C028F0296A000E272477
:10152600106E800E2820116E100E2920126E000EED
:10153600146EED0E136E1AEC32F0020ECFEC32F092
:1015460048C027F049C028F0296A000E2724106EEB
:10155600800E2820116E100E2920126E000E146EB9
:10156600590E136E1AEC32F0020ECFEC32F048C070
:1015760027F049C028F0296A000E2724106E800E35
:101586002820116E100E2920126E000E146E1F0EEA
:10159600136E1AEC32F0020ECFEC32F048C027F090
:1015A60049C028F0296A000E2724106E800E2820D4
:1015B600116E100E2920126E080E146E000E136E98
:1015C6001AEC32F0020ECFEC32F02EC01EF02FC015
:1015D6001FF0000E1FBEFF0E206E216E55EC32F07E
:1015E6002E0E1E6EFF0E1F6EFF0E206EFF0E216E5C
:1015F60055EC32F048C027F049C028F0296A000EA1
:101606002724106E800E2820116E100E2920126ECF
:10161600000E146EF30E136E1AEC32F0020ECFECBF
:1016260032F048C027F049C028F0296A000E272466
:10163600106E800E2820116E100E2920126E000EDC
:10164600146E590E136E1AEC32F0020ECFEC32F015
:1016560048C027F049C028F0296A000E2724106EDA
:10166600800E2820116E100E2920126E000E146EA8
:101676001F0E136E1AEC32F0020ECFEC32F048C099
:1016860027F049C028F0296A000E2724106E800E24
:101696002820116E100E2920126E000E146E000EF8
:1016A600136E1AEC32F0020ECFEC32F02CC01EF0A4
:1016B6002DC01FF0000E1FBEFF0E206E216E55ECD2
:1016C60032F00C0E1E6EFF0E1F6EFF0E206EFF0E0A
:1016D600216E55EC32F048C027F049C028F0296A3F
:1016E600000E2724106E800E2820116E100E292061
:1016F600126E000E146EB70E136E1AEC32F0020E56
:10170600CFEC32F048C027F049C028F0296A000E15
:101716002724106E800E2820116E100E2920126EBE
:10172600000E146EA10E136E1AEC32F0020ECFEC00
:1017360032F048C027F049C028F0296A000E272455
:10174600106E800E2820116E100E2920126E000ECB
:10175600146E1C0E136E1AEC32F0020ECFEC32F041
:1017660048C027F049C028F0296A000E2724106EC9
:10177600800E2820116E100E2920126E000E146E97
:10178600000E136E1AEC32F0020ECFEC32F048C0A7
:1017960027F049C028F0296A000E2724156E800E0E
:1017A6002820166E100E2920176E590E186E0F0E71
:1017B600196E13EC30F0CFEC32F00C0E1E6EFF0EED
:1017C6001F6EFF0E206EFF0E216E55EC32F048C0E4
:1017D60027F049C028F0296A000E2724106E800ED3
:1017E6002820116E100E2920126E000E146EA00E07
:1017F600136E1AEC32F0020ECFEC32F048C027F02E
:1018060049C028F0296A000E2724106E800E282071
:10181600116E100E2920126E000E146E820E136EBB
:101826001AEC32F0020ECFEC32F048C027F049C075
:1018360028F0296A000E2724106E800E2820116ECB
:10184600100E2920126E000E146E1C0E136E1AEC6A
:1018560032F0020ECFEC32F048C027F049C028F033
:10186600296A000E2724106E800E2820116E100E95
:101876002920126E000E146E000E136E1AEC32F052
:10188600020ECFEC32F048C027F049C028F0296A92
:10189600000E2724156E800E2820166E100E2920A5
:1018A600176E620E186E0F0E196E13EC30F0CFEC39
:1018B60032F00C0E1E6EFF0E1F6EFF0E206EFF0E18
:1018C600216E55EC32F048C027F049C028F0296A4D
:1018D600000E2724106E800E2820116E100E29206F
:1018E600126E000E146E9B0E136E1AEC32F0020E80
:1018F600CFEC32F048C027F049C028F0296A000E24
:101906002724106E800E2820116E100E2920126ECC
:10191600000E146E5C0E136E1AEC32F0020ECFEC53
:1019260032F048C027F049C028F0296A000E272463
:10193600106E800E2820116E100E2920126E000ED9
:10194600146E1C0E136E1AEC32F0020ECFEC32F04F
:1019560048C027F049C028F0296A000E2724106ED7
:10196600800E2820116E100E2920126E000E146EA5
:10197600000E136E1AEC32F0020ECFEC32F048C0B5
:1019860027F049C028F0296A000E2724156E800E1C
:101996002820166E100E2920176E640E186E0F0E74
:1019A600196E13EC30F0CFEC32F00C0E1E6EFF0EFB
:1019B6001F6EFF0E206EFF0E216E55EC32F048C0F2
:1019C60027F049C028F0296A000E2724106E800EE1
:1019D6002820116E100E2920126E000E146EAB0E0A
:1019E600136E1AEC32F0020ECFEC32F048C027F03C
:1019F60049C028F0296A000E2724106E800E282080
:101A0600116E100E2920126E000E146E3A0E136E11
:101A16001AEC32F0020ECFEC32F048C027F049C083
:101A260028F0296A000E2724106E800E2820116ED9
:101A3600100E2920126E000E146E1C0E136E1AEC78
:101A460032F0020ECFEC32F048C027F049C028F041
:101A5600296A000E2724106E800E2820116E100EA3
:101A66002920126E000E146E000E136E1AEC32F060
:101A7600020ECFEC32F048C027F049C028F0296AA0
:101A8600000E2724156E800E2820166E100E2920B3
:101A9600176E660E186E0F0E196E13EC30F0CFEC43
:101AA60032F00C0E1E6EFF0E1F6EFF0E206EFF0E26
:101AB600216E55EC32F048C027F049C028F0296A5B
:101AC600000E2724106E800E2820116E100E29207D
:101AD600126E000E146EC90E136E1AEC32F0020E60
:101AE600CFEC32F048C027F049C028F0296A000E32
:101AF6002724106E800E2820116E100E2920126EDB
:101B0600000E146E210E136E1AEC32F0020ECFEC9C
:101B160032F048C027F049C028F0296A000E272471
:101B2600106E800E2820116E100E2920126E000EE7
:101B3600146E1C0E136E1AEC32F0020ECFEC32F05D
:101B460048C027F049C028F0296A000E2724106EE5
:101B5600800E2820116E100E2920126E000E146EB3
:101B6600000E136E1AEC32F0020ECFEC32F048C0C3
:101B760027F049C028F0296A000E2724156E800E2A
:101B86002820166E100E2920176E680E186E0F0E7E
:101B9600196E13EC30F0CFEC32F00C0E1E6EFF0E09
:101BA6001F6EFF0E206EFF0E216E55EC32F048C000
:101BB60027F049C028F0296A000E2724106E800EEF
:101BC6002820116E100E2920126E000E146EEB0ED8
:101BD600136E1AEC32F0020ECFEC32F048C027F04A
:101BE60049C028F0296A000E2724106E800E28208E
:101BF600116E100E2920126E000E146E1A0E136E40
:101C06001AEC32F0020ECFEC32F048C027F049C091
:101C160028F0296A000E2724106E800E2820116EE7
:101C2600100E2920126E000E146E1C0E136E1AEC86
:101C360032F0020ECFEC32F048C027F049C028F04F
:101C4600296A000E2724106E800E2820116E100EB1
:101C56002920126E000E146E000E136E1AEC32F06E
:101C6600020ECFEC32F048C027F049C028F0296AAE
:101C7600000E2724156E800E2820166E100E2920C1
:101C8600176E6A0E186E0F0E196E13EC30F0CFEC4D
:101C960032F00C0E1E6EFF0E1F6EFF0E206EFF0E34
:101CA600216E55EC32F048C027F049C028F0296A69
:101CB600000E2724106E800E2820116E100E29208B
:101CC600126E010E146E0D0E136E1AEC32F0020E29
:101CD600CFEC32F048C027F049C028F0296A000E40
:101CE6002724106E800E2820116E100E2920126EE9
:101CF600000E146E210E136E1AEC32F0020ECFECAB
:101D060032F048C027F049C028F0296A000E27247F
:101D1600106E800E2820116E100E2920126E000EF5
:101D2600146E1C0E136E1AEC32F0020ECFEC32F06B
:101D360048C027F049C028F0296A000E2724106EF3
:101D4600800E2820116E100E2920126E000E146EC1
:101D5600000E136E1AEC32F0020ECFEC32F048C0D1
:101D660027F049C028F0296A000E2724156E800E38
:101D76002820166E100E2920176E6C0E186E0F0E88
:101D8600196E13EC30F0CFEC32F00C0E1E6EFF0E17
:101D96001F6EFF0E206EFF0E216E55EC32F048C00E
:101DA60027F049C028F0296A000E2724106E800EFD
:101DB6002820116E100E2920126E010E146E2A0EA6
:101DC600136E1AEC32F0020ECFEC32F048C027F058
:101DD60049C028F0296A000E2724106E800E28209C
:101DE600116E100E2920126E000E146E3A0E136E2E
:101DF6001AEC32F0020ECFEC32F048C027F049C0A0
:101E060028F0296A000E2724106E800E2820116EF5
:101E1600100E2920126E000E146E1C0E136E1AEC94
:101E260032F0020ECFEC32F048C027F049C028F05D
:101E3600296A000E2724106E800E2820116E100EBF
:101E46002920126E000E146E000E136E1AEC32F07C
:101E5600020ECFEC32F048C027F049C028F0296ABC
:101E6600000E2724156E800E2820166E100E2920CF
:101E7600176E6E0E186E0F0E196E13EC30F0CFEC57
:101E860032F00C0E1E6EFF0E1F6EFF0E206EFF0E42
:101E9600216E55EC32F048C027F049C028F0296A77
:101EA600000E2724106E800E2820116E100E292099
:101EB600126E010E146E2D0E136E1AEC32F0020E17
:101EC600CFEC32F048C027F049C028F0296A000E4E
:101ED6002724106E800E2820116E100E2920126EF7
:101EE600000E146E5C0E136E1AEC32F0020ECFEC7E
:101EF60032F048C027F049C028F0296A000E27248E
:101F0600106E800E2820116E100E2920126E000E03
:101F1600146E1C0E136E1AEC32F0020ECFEC32F079
:101F260048C027F049C028F0296A000E2724106E01
:101F3600800E2820116E100E2920126E000E146ECF
:101F4600000E136E1AEC32F0020ECFEC32F048C0DF
:101F560027F049C028F0296A000E2724156E800E46
:101F66002820166E100E2920176E520E186E0F0EB0
:101F7600196E13EC30F0CFEC32F00C0E1E6EFF0E25
:101F86001F6EFF0E206EFF0E216E55EC32F048C01C
:101F960027F049C028F0296A000E2724106E800E0B
:101FA6002820116E100E2920126E010E146E2B0EB3
:101FB600136E1AEC32F0020ECFEC32F048C027F066
:101FC60049C028F0296A000E2724106E800E2820AA
:101FD600116E100E2920126E000E146E820E136EF4
:101FE6001AEC32F0020ECFEC32F048C027F049C0AE
:101FF60028F0296A000E2724106E800E2820116E04
:10200600100E2920126E000E146E1C0E136E1AECA2
:1020160032F0020ECFEC32F048C027F049C028F06B
:10202600296A000E2724106E800E2820116E100ECD
:102036002920126E000E146E000E136E1AEC32F08A
:10204600020ECFEC32F048C027F049C028F0296ACA
:10205600000E2724156E800E2820166E100E2920DD
:10206600176E550E186E0F0E196E13EC30F0CFEC7E
:1020760032F00C0E1E6EFF0E1F6EFF0E206EFF0E50
:10208600216E55EC32F048C027F049C028F0296A85
:10209600000E2724106E800E2820116E100E2920A7
:1020A600126E010E146E120E136E1AEC32F0020E40
:1020B600CFEC32F048C027F049C028F0296A000E5C
:1020C6002724106E800E2820116E100E2920126E05
:1020D600000E146EA10E136E1AEC32F0020ECFEC47
:1020E60032F048C027F049C028F0296A000E27249C
:1020F600106E800E2820116E100E2920126E000E12
:10210600146E1C0E136E1AEC32F0020ECFEC32F087
:1021160048C027F049C028F0296A000E2724106E0F
:10212600800E2820116E100E2920126E000E146EDD
:10213600000E136E1AEC32F0020ECFEC32F048C0ED
:1021460027F049C028F0296A000E2724156E800E54
:102156002820166E100E2920176E580E186E0F0EB8
:10216600196E13EC30F0CFEC32F00C0E1E6EFF0E33
:102176001F6EFF0E206EFF0E216E55EC32F048C02A
:1021860027F049C028F0296A000E2724106E800E19
:102196002820116E100E2920126E000E146EF10EFC
:1021A600136E1AEC32F0020ECFEC32F048C027F074
:1021B60049C028F0296A000E2724106E800E2820B8
:1021C600116E100E2920126E000E146E720E136E12
:1021D6001AEC32F0020ECFEC32F048C027F049C0BC
:1021E60028F0296A000E2724106E800E2820116E12
:1021F600100E2920126E000E146E1F0E136E1AECAE
:1022060032F0020ECFEC32F048C027F049C028F079
:10221600296A000E2724106E800E2820116E100EDB
:102226002920126E060E146E000E136E1AEC32F092
:10223600020ECFEC32F048C027F049C028F0296AD8
:10224600000E2724156E800E2820166E100E2920EB
:10225600176E600E186E0F0E196E13EC30F0CFEC81
:1022660032F00C0E1E6EFF0E1F6EFF0E206EFF0E5E
:10227600216E55EC32F048C027F049C028F0296A93
:10228600000E2724106E800E2820116E100E2920B5
:10229600126E010E146E0B0E136E1AEC32F0020E55
:1022A600CFEC32F048C027F049C028F0296A000E6A
:1022B6002724106E800E2820116E100E2920126E13
:1022C600000E146E6C0E136E1AEC32F0020ECFEC8A
:1022D60032F048C027F049C028F0296A000E2724AA
:1022E600106E800E2820116E100E2920126E000E20
:1022F600146E1C0E136E1AEC32F0020ECFEC32F096
:1023060048C027F049C028F0296A000E2724106E1D
:10231600800E2820116E100E2920126E000E146EEB
:10232600000E136E1AEC32F0020ECFEC32F048C0FB
:1023360027F049C028F0296A000E2724156E800E62
:102346002820166E100E2920176E720E186E0F0EAC
:10235600196E13EC30F0CFEC32F00C0E1E6EFF0E41
:102366001F6EFF0E206EFF0E216E55EC32F048C038
:1023760027F049C028F0296A000E2724106E800E27
:102386002820116E100E2920126E000E146EE30E18
:10239600136E1AEC32F0020ECFEC32F048C027F082
:1023A60049C028F0296A000E2724106E800E2820C6
:1023B600116E100E2920126E000E146E840E136E0E
:1023C6001AEC32F0020ECFEC32F048C027F049C0CA
:1023D60028F0296A000E2724106E800E2820116E20
:1023E600100E2920126E000E146E1A0E136E1AECC1
:1023F60032F0020ECFEC32F048C027F049C028F088
:10240600296A000E2724106E800E2820116E100EE9
:102416002920126E000E146E000E136E1AEC32F0A6
:10242600020ECFEC32F048C027F049C028F0296AE6
:10243600000E2724156E800E2820166E100E2920F9
:10244600176E4A0E186E0F0E196E13EC30F0CFECA5
:1024560032F01200000E1E6E000E1F6EFF0E206E72
:10246600040E216E55EC32F0080E1E6E000E1F6E25
:10247600000E206E1F0E216E55EC32F0000E1E6E01
:10248600800E1F6E0C0E206E800E216E55EC32F003
:10249600000E1E6E800E1F6E6C0E206E970E216E45
:1024A60055EC32F0000E1E6ED00E1F6E0A0E206E18
:1024B6009B0E216E55EC32F0000E1E6ED00E1F6E76
:1024C600EA0E206EA00E216E55EC32F0000E1E6E46
:1024D600800E1F6E8C0E206EA40E216E55EC32F00F
:1024E600000E1E6E800E1F6E0C0E206EBC0E216E30
:1024F60055EC32F0000E1E6E000E1F6E000E206EA2
:10250600040E216E55EC32F0080E1E6E000E1F6E84
:10251600000E206E1F0E216E55EC32F0000E1E6E60
:10252600D00E1F6E0C0E206E800E216E55EC32F012
:10253600000E1E6EC00E1F6EAC0E206E970E216E24
:1025460055EC32F0000E1E6E100E1F6E2B0E206E16
:102556009B0E216E55EC32F0000E1E6E100E1F6E95
:10256600AB0E206EA00E216E55EC32F0000E1E6EE4
:10257600C00E1F6E2C0E206EA40E216E55EC32F08E
:10258600000E1E6ED00E1F6E6C0E206EBC0E216EDF
:1025960055EC32F0000E1E6E7D0E1F6EFF0E206E85
:1025A600040E216E55EC32F00C0E1E6EFF0E1F6EE1
:1025B600FF0E206EFF0E216E55EC32F048C035F04E
:1025C60049C036F0376A000E3524106E800E36206C
:1025D600116E100E3720126E000E146E050E136E5D
:1025E6001AEC32F0020ECFEC32F048C035F049C09A
:1025F60036F0376A000E3524106E800E3620116EC6
:10260600100E3720126E000E146ECF0E136E1AECDB
:1026160032F0020ECFEC32F048C035F049C036F049
:10262600376A000E3524106E800E3620116E100E9D
:102636003720126E000E146E1B0E136E1AEC32F05B
:10264600020ECFEC32F048C035F049C036F0376A9A
:10265600000E3524106E800E3620116E100E3720B7
:10266600126E000E146E000E136E1AEC32F0020E8D
:10267600CFEC32F048C035F049C036F0376A000E6C
:102686003524156E800E3620166E100E3720176E06
:10269600330E186E0F0E196E13EC30F0CFEC32F0CD
:1026A6002E0E1E6EFF0E1F6EFF0E206EFF0E216E8B
:1026B60055EC32F048C035F049C036F0376A000EA6
:1026C6003524106E800E3620116E100E3720126ED5
:1026D600000E146E420E136E1AEC32F0020ECFECA0
:1026E60032F048C035F049C036F0376A000E35245E
:1026F600106E800E3620116E100E3720126E000EF0
:10270600146ED90E136E1AEC32F0020ECFEC32F0C4
:1027160048C035F049C036F0376A000E3524106ED1
:10272600800E3620116E100E3720126E000E146EBB
:102736001B0E136E1AEC32F0020ECFEC32F048C0CC
:1027460035F049C036F0376A000E3524106E800E1B
:102756003620116E100E3720126E060E146E000E05
:10276600136E1AEC32F0020ECFEC32F0FF0E356E1D
:10277600FF0E366E31C037F032C038F0355037268E
:102786003650382237C01EF038C01FF0000E1FBE6C
:10279600FF0E206E216E55EC32F00C0E1E6EFF0EF3
:1027A6001F6EFF0E206EFF0E216E55EC32F048C0F4
:1027B60035F049C036F0376A000E3524106E800EAB
:1027C6003620116E100E3720126E010E146EC00EDA
:1027D600136E1AEC32F0020ECFEC32F048C035F030
:1027E60049C036F0376A000E3524106E800E36204A
:1027F600116E100E3720126E000E146ECF0E136E71
:102806001AEC32F0020ECFEC32F048C035F049C077
:1028160036F0376A000E3524106E800E3620116EA3
:10282600100E3720126E000E146E1B0E136E1AEC6D
:1028360032F0020ECFEC32F048C035F049C036F027
:10284600376A000E3524106E800E3620116E100E7B
:102856003720126E080E146E000E136E1AEC32F04C
:10286600020ECFEC32F048C035F049C036F0376A78
:10287600000E3524156E800E3620166E100E37208B
:10288600176E380E186E0F0E196E13EC30F0CFEC73
:1028960032F02E0E1E6EFF0E1F6EFF0E206EFF0E06
:1028A600216E55EC32F048C035F049C036F0376A33
:1028B600000E3524106E800E3620116E100E372055
:1028C600126E010E146EDB0E136E1AEC32F0020E4F
:1028D600CFEC32F048C035F049C036F0376A000E0A
:1028E6003524106E800E3620116E100E3720126EB3
:1028F600000E146ECF0E136E1AEC32F0020ECFECF1
:1029060032F048C035F049C036F0376A000E35243B
:10291600106E800E3620116E100E3720126E000ECD
:10292600146E1B0E136E1AEC32F0020ECFEC32F060
:1029360048C035F049C036F0376A000E3524106EAF
:10294600800E3620116E100E3720126E080E146E91
:10295600000E136E1AEC32F0020ECFEC32F033C0DA
:102966001EF034C01FF0000E1FBEFF0E206E216E3B
:1029760055EC32F00C0E1E6EFF0E1F6EFF0E206E13
:10298600FF0E216E55EC32F048C035F049C036F0E6
:10299600376A000E3524106E800E3620116E100E2A
:1029A6003720126E000E146EF00E136E1AEC32F013
:1029B600020ECFEC32F048C035F049C036F0376A27
:1029C600000E3524106E800E3620116E100E372044
:1029D600126E000E146EA50E136E1AEC32F0020E75
:1029E600CFEC32F048C035F049C036F0376A000EF9
:1029F6003524106E800E3620116E100E3720126EA2
:102A0600000E146E1B0E136E1AEC32F0020ECFEC93
:102A160032F048C035F049C036F0376A000E35242A
:102A2600106E800E3620116E100E3720126E060EB6
:102A3600146E000E136E1AEC32F0020ECFEC32F06A
:102A460048C035F049C036F0376A000E3524156E99
:102A5600800E3620166E100E3720176E4E0E186E2C
:102A66000F0E196E13EC30F0CFEC32F02E0E1E6EF8
:102A7600FF0E1F6EFF0E206EFF0E216E55EC32F01C
:102A860048C035F049C036F0376A000E3524106E5E
:102A9600800E3620116E100E3720126E000E146E48
:102AA600F00E136E1AEC32F0020ECFEC32F048C084
:102AB60035F049C036F0376A000E3524106E800EA8
:102AC6003620116E100E3720126E000E146EBE0EDA
:102AD600136E1AEC32F0020ECFEC32F048C035F02D
:102AE60049C036F0376A000E3524106E800E362047
:102AF600116E100E3720126E000E146E1D0E136E20
:102B06001AEC32F0020ECFEC32F048C035F049C074
:102B160036F0376A000E3524106E800E3620116EA0
:102B2600100E3720126E060E146E000E136E1AEC7F
:102B360032F0020ECFEC32F031C01EF032C01FF080
:102B4600000E1FBEFF0E206E216E55EC32F0FF0EFA
:102B56001E6EFF0E1F6EFF0E206E040E216E55ECCC
:102B660032F02E0E1E6EFF0E1F6EFF0E206EFF0E33
:102B7600216E55EC32F048C035F049C036F0376A60
:102B8600000E3524106E800E3620116E100E372082
:102B9600126E000E146E240E136E1AEC32F0020E34
:102BA600CFEC32F048C035F049C036F0376A000E37
:102BB6003524106E800E3620116E100E3720126EE0
:102BC600000E146EDE0E136E1AEC32F0020ECFEC0F
:102BD60032F048C035F049C036F0376A000E352469
:102BE600106E800E3620116E100E3720126E000EFB
:102BF600146E1E0E136E1AEC32F0020ECFEC32F08B
:102C060048C035F049C036F0376A000E3524106EDC
:102C1600800E3620116E100E3720126E080E146EBE
:102C2600000E136E1AEC32F0020ECFEC32F02DC00D
:102C36001EF02EC01FF0000E1FBEFF0E206E216E6E
:102C460055EC32F00C0E1E6EFF0E1F6EFF0E206E40
:102C5600FF0E216E55EC32F048C035F049C036F013
:102C6600376A000E3524106E800E3620116E100E57
:102C76003720126E000E146E270E136E1AEC32F009
:102C8600020ECFEC32F048C035F049C036F0376A54
:102C9600000E3524106E800E3620116E100E372071
:102CA600126E000E146EEE0E136E1AEC32F0020E59
:102CB600CFEC32F048C035F049C036F0376A000E26
:102CC6003524106E800E3620116E100E3720126ECF
:102CD600000E146E1C0E136E1AEC32F0020ECFECC0
:102CE60032F048C035F049C036F0376A000E352458
:102CF600106E800E3620116E100E3720126E060EE4
:102D0600146E000E136E1AEC32F0020ECFEC32F097
:102D160048C035F049C036F0376A000E3524156EC6
:102D2600800E3620166E100E3720176E700E186E37
:102D36000F0E196E13EC30F0CFEC32F02E0E1E6E25
:102D4600FF0E1F6EFF0E206EFF0E216E55EC32F049
:102D560048C035F049C036F0376A000E3524106E8B
:102D6600800E3620116E100E3720126E000E146E75
:102D76002A0E136E1AEC32F0020ECFEC32F048C077
:102D860035F049C036F0376A000E3524106E800ED5
:102D96003620116E100E3720126E000E146EDE0EE7
:102DA600136E1AEC32F0020ECFEC32F048C035F05A
:102DB60049C036F0376A000E3524106E800E362074
:102DC600116E100E3720126E000E146E1E0E136E4C
:102DD6001AEC32F0020ECFEC32F048C035F049C0A2
:102DE60036F0376A000E3524106E800E3620116ECE
:102DF600100E3720126E000E146E020E136E1AECB1
:102E060032F0020ECFEC32F02FC01EF030C01FF0B1
:102E1600000E1FBEFF0E206E216E55EC32F02E0EF8
:102E26001E6EFF0E1F6EFF0E206EFF0E216E55ECFE
:102E360032F048C035F049C036F0376A000E352406
:102E4600106E800E3620116E100E3720126E010E97
:102E5600146EB20E136E1AEC32F0020ECFEC32F094
:102E660048C035F049C036F0376A000E3524106E7A
:102E7600800E3620116E100E3720126E000E146E64
:102E8600DE0E136E1AEC32F0020ECFEC32F048C0B2
:102E960035F049C036F0376A000E3524106E800EC4
:102EA6003620116E100E3720126E000E146E1E0E96
:102EB600136E1AEC32F0020ECFEC32F048C035F049
:102EC60049C036F0376A000E3524106E800E362063
:102ED600116E100E3720126E080E146E000E136E51
:102EE6001AEC32F0020ECFEC32F029C01EF02AC0E6
:102EF6001FF0000E1FBEFF0E206E216E55EC32F045
:102F06000C0E1E6EFF0E1F6EFF0E206EFF0E216E44
:102F160055EC32F048C035F049C036F0376A000E3D
:102F26003524106E800E3620116E100E3720126E6C
:102F3600010E146EB50E136E1AEC32F0020ECFECC3
:102F460032F048C035F049C036F0376A000E3524F5
:102F5600106E800E3620116E100E3720126E000E87
:102F6600146EEF0E136E1AEC32F0020ECFEC32F046
:102F760048C035F049C036F0376A000E3524106E69
:102F8600800E3620116E100E3720126E000E146E53
:102F96001C0E136E1AEC32F0020ECFEC32F048C063
:102FA60035F049C036F0376A000E3524106E800EB3
:102FB6003620116E100E3720126E060E146E000E9D
:102FC600136E1AEC32F0020ECFEC32F048C035F038
:102FD60049C036F0376A000E3524156E800E36204D
:102FE600166E100E3720176E700E186E0F0E196EB5
:102FF60013EC30F0CFEC32F02E0E1E6EFF0E1F6E6D
:10300600FF0E206EFF0E216E55EC32F048C035F0F3
:1030160049C036F0376A000E3524106E800E362011
:10302600116E100E3720126E010E146EB80E136E4E
:103036001AEC32F0020ECFEC32F048C035F049C03F
:1030460036F0376A000E3524106E800E3620116E6B
:10305600100E3720126E000E146EDE0E136E1AEC72
:1030660032F0020ECFEC32F048C035F049C036F0EF
:10307600376A000E3524106E800E3620116E100E43
:103086003720126E000E146E1E0E136E1AEC32F0FE
:10309600020ECFEC32F048C035F049C036F0376A40
:1030A600000E3524106E800E3620116E100E37205D
:1030B600126E000E146E020E136E1AEC32F0020E31
:1030C600CFEC32F02BC01EF02CC01FF0000E1FBE3E
:1030D600FF0E206E216E55EC32F02E0E1E6EFF0E88
:1030E6001F6EFF0E206EFF0E216E55EC32F048C0AB
:1030F60035F049C036F0376A000E3524106E800E62
:103106003620116E100E3720126E000E146EE90E68
:10311600136E1AEC32F0020ECFEC32F048C035F0E6
:1031260049C036F0376A000E3524106E800E362000
:10313600116E100E3720126E000E146EEB0E136E0B
:103146001AEC32F0020ECFEC32F048C035F049C02E
:1031560036F0376A000E3524106E800E3620116E5A
:10316600100E3720126E000E146E1E0E136E1AEC21
:1031760032F0020ECFEC32F048C035F049C036F0DE
:10318600376A000E3524106E800E3620116E100E32
:103196003720126E080E146E000E136E1AEC32F003
:1031A600020ECFEC32F025C01EF026C01FF0000E36
:1031B6001FBEFF0E206E216E55EC32F00C0E1E6EF9
:1031C600FF0E1F6EFF0E206EFF0E216E55EC32F0C5
:1031D60048C035F049C036F0376A000E3524106E07
:1031E600800E3620116E100E3720126E000E146EF1
:1031F600ED0E136E1AEC32F0020ECFEC32F048C030
:1032060035F049C036F0376A000E3524106E800E50
:103216003620116E100E3720126E000E146EFC0E44
:10322600136E1AEC32F0020ECFEC32F048C035F0D5
:1032360049C036F0376A000E3524106E800E3620EF
:10324600116E100E3720126E000E146E1C0E136EC9
:103256001AEC32F0020ECFEC32F048C035F049C01D
:1032660036F0376A000E3524106E800E3620116E49
:10327600100E3720126E060E146E000E136E1AEC28
:1032860032F0020ECFEC32F048C035F049C036F0CD
:10329600376A000E3524156E800E3620166E100E17
:1032A6003720176E700E186E0F0E196E13EC30F075
:1032B600CFEC32F02E0E1E6EFF0E1F6EFF0E206E2E
:1032C600FF0E216E55EC32F048C035F049C036F09D
:1032D600376A000E3524106E800E3620116E100EE1
:1032E6003720126E000E146EF00E136E1AEC32F0CA
:1032F600020ECFEC32F048C035F049C036F0376ADE
:10330600000E3524106E800E3620116E100E3720FA
:10331600126E000E146EEB0E136E1AEC32F0020EE5
:10332600CFEC32F048C035F049C036F0376A000EAF
:103336003524106E800E3620116E100E3720126E58
:10334600000E146E1E0E136E1AEC32F0020ECFEC47
:1033560032F048C035F049C036F0376A000E3524E1
:10336600106E800E3620116E100E3720126E000E73
:10337600146E020E136E1AEC32F0020ECFEC32F01F
:1033860027C01EF028C01FF0000E1FBEFF0E206EC5
:10339600216E55EC32F01200000E296E050E286ED5
:1033A600FF0E1E6EFF0E1F6EFF0E206E040E216EA8
:1033B60055EC32F00C0E1E6EFF0E1F6EFF0E206EC9
:1033C600FF0E216E55EC32F048C025F049C026F0BC
:1033D600276A000E2524106E800E2620116E100E10
:1033E6002720126E000E146E050E136E1AEC32F0C4
:1033F600020ECFEC32F048C025F049C026F0276A0D
:10340600000E2524106E800E2620116E100E272029
:10341600126E28C013F029C014F01AEC32F0020E16
:10342600CFEC32F048C025F049C026F0276A000EDE
:103436002524106E800E2620116E100E2720126E87
:10344600000E146E1A0E136E1AEC32F0020ECFEC4A
:1034560032F048C025F049C026F0276A000E252420
:10346600106E800E2620116E100E2720126E000E92
:10347600146E000E136E1AEC32F0020ECFEC32F020
:1034860048C025F049C026F0276A000E2524156E8F
:10349600800E2620166E100E2720176E070E186E49
:1034A6000F0E196E13EC30F0CFEC32F00C0E1E6ED0
:1034B600FF0E1F6EFF0E206EFF0E216E55EC32F0D2
:1034C60048C025F049C026F0276A000E2524106E54
:1034D600800E2620116E100E2720126E000E146E1E
:1034E600050E136E1AEC32F0020ECFEC32F048C025
:1034F60025F049C026F0276A000E2524106E800E9E
:103506002620116E100E2720126E0F0E2826000E92
:10351600292228C013F029C014F01AEC32F0020E4A
:10352600CFEC32F048C025F049C026F0276A000EDD
:103536002524106E800E2620116E100E2720126E86
:10354600000E146E1A0E136E1AEC32F0020ECFEC49
:1035560032F048C025F049C026F0276A000E25241F
:10356600106E800E2620116E100E2720126E000E91
:10357600146E000E136E1AEC32F0020ECFEC32F01F
:1035860048C025F049C026F0276A000E2524156E8E
:10359600800E2620166E100E2720176E2E0E186E21
:1035A6000F0E196E13EC30F0CFEC32F00C0E1E6ECF
:1035B600FF0E1F6EFF0E206EFF0E216E55EC32F0D1
:1035C60048C025F049C026F0276A000E2524106E53
:1035D600800E2620116E100E2720126E000E146E1D
:1035E600050E136E1AEC32F0020ECFEC32F048C024
:1035F60025F049C026F0276A000E2524106E800E9D
:103606002620116E100E2720126E190E2826000E87
:10361600292228C013F029C014F01AEC32F0020E49
:10362600CFEC32F048C025F049C026F0276A000EDC
:103636002524106E800E2620116E100E2720126E85
:10364600000E146E1A0E136E1AEC32F0020ECFEC48
:1036560032F048C025F049C026F0276A000E25241E
:10366600106E800E2620116E100E2720126E000E90
:10367600146E000E136E1AEC32F0020ECFEC32F01E
:1036860048C025F049C026F0276A000E2524156E8D
:10369600800E2620166E100E2720176E460E186E08
:1036A6000F0E196E13EC30F0CFEC32F00C0E1E6ECE
:1036B600FF0E1F6EFF0E206EFF0E216E55EC32F0D0
:1036C60048C025F049C026F0276A000E2524106E52
:1036D600800E2620116E100E2720126E000E146E1C
:1036E600050E136E1AEC32F0020ECFEC32F048C023
:1036F60025F049C026F0276A000E2524106E800E9C
:103706002620116E100E2720126E0F0E2826000E90
:10371600292228C013F029C014F01AEC32F0020E48
:10372600CFEC32F048C025F049C026F0276A000EDB
:103736002524106E800E2620116E100E2720126E84
:10374600000E146E1A0E136E1AEC32F0020ECFEC47
:1037560032F048C025F049C026F0276A000E25241D
:10376600106E800E2620116E100E2720126E000E8F
:10377600146E000E136E1AEC32F0020ECFEC32F01D
:1037860048C025F049C026F0276A000E2524156E8C
:10379600800E2620166E100E2720176E2E0E186E1F
:1037A6000F0E196E13EC30F0CFEC32F00C0E1E6ECD
:1037B600FF0E1F6EFF0E206EFF0E216E55EC32F0CF
:1037C60048C025F049C026F0276A000E2524106E51
:1037D600800E2620116E100E2720126E000E146E1B
:1037E600050E136E1AEC32F0020ECFEC32F048C022
:1037F60025F049C026F0276A000E2524106E800E9B
:103806002620116E100E2720126E190E2826000E85
:10381600292228C013F029C014F01AEC32F0020E47
:10382600CFEC32F048C025F049C026F0276A000EDA
:103836002524106E800E2620116E100E2720126E83
:10384600000E146E1A0E136E1AEC32F0020ECFEC46
:1038560032F048C025F049C026F0276A000E25241C
:10386600106E800E2620116E100E2720126E000E8E
:10387600146E000E136E1AEC32F0020ECFEC32F01C
:1038860048C025F049C026F0276A000E2524156E8B
:10389600800E2620166E100E2720176E290E186E23
:1038A6000F0E196E13EC30F0CFEC32F00C0E1E6ECC
:1038B600FF0E1F6EFF0E206EFF0E216E55EC32F0CE
:1038C60048C025F049C026F0276A000E2524106E50
:1038D600800E2620116E100E2720126E000E146E1A
:1038E600050E136E1AEC32F0020ECFEC32F048C021
:1038F60025F049C026F0276A000E2524106E800E9A
:103906002620116E100E2720126E0F0E2826000E8E
:10391600292228C013F029C014F01AEC32F0020E46
:10392600CFEC32F048C025F049C026F0276A000ED9
:103936002524106E800E2620116E100E2720126E82
:10394600000E146E1A0E136E1AEC32F0020ECFEC45
:1039560032F048C025F049C026F0276A000E25241B
:10396600106E800E2620116E100E2720126E000E8D
:10397600146E000E136E1AEC32F0020ECFEC32F01B
:1039860048C025F049C026F0276A000E2524156E8A
:10399600800E2620166E100E2720176E240E186E27
:1039A6000F0E196E13EC30F0CFEC32F00C0E1E6ECB
:1039B600FF0E1F6EFF0E206EFF0E216E55EC32F0CD
:1039C60048C025F049C026F0276A000E2524106E4F
:1039D600800E2620116E100E2720126E000E146E19
:1039E600050E136E1AEC32F0020ECFEC32F048C020
:1039F60025F049C026F0276A000E2524106E800E99
:103A06002620116E100E2720126E190E2826000E83
:103A1600292228C013F029C014F01AEC32F0020E45
:103A2600CFEC32F048C025F049C026F0276A000ED8
:103A36002524106E800E2620116E100E2720126E81
:103A4600000E146E1A0E136E1AEC32F0020ECFEC44
:103A560032F048C025F049C026F0276A000E25241A
:103A6600106E800E2620116E100E2720126E000E8C
:103A7600146E000E136E1AEC32F0020ECFEC32F01A
:103A860048C025F049C026F0276A000E2524156E89
:103A9600800E2620166E100E2720176E3D0E186E0D
:103AA6000F0E196E13EC30F0CFEC32F00C0E1E6ECA
:103AB600FF0E1F6EFF0E206EFF0E216E55EC32F0CC
:103AC60048C025F049C026F0276A000E2524106E4E
:103AD600800E2620116E100E2720126E000E146E18
:103AE600050E136E1AEC32F0020ECFEC32F048C01F
:103AF60025F049C026F0276A000E2524106E800E98
:103B06002620116E100E2720126E0F0E2826000E8C
:103B1600292228C013F029C014F01AEC32F0020E44
:103B2600CFEC32F048C025F049C026F0276A000ED7
:103B36002524106E800E2620116E100E2720126E80
:103B4600000E146E1A0E136E1AEC32F0020ECFEC43
:103B560032F048C025F049C026F0276A000E252419
:103B6600106E800E2620116E100E2720126E000E8B
:103B7600146E000E136E1AEC32F0020ECFEC32F019
:103B860048C025F049C026F0276A000E2524156E88
:103B9600800E2620166E100E2720176E130E186E36
:103BA6000F0E196E13EC30F0CFEC32F00C0E1E6EC9
:103BB600FF0E1F6EFF0E206EFF0E216E55EC32F0CB
:103BC60048C025F049C026F0276A000E2524106E4D
:103BD600800E2620116E100E2720126E000E146E17
:103BE600050E136E1AEC32F0020ECFEC32F048C01E
:103BF60025F049C026F0276A000E2524106E800E97
:103C06002620116E100E2720126E190E2826000E81
:103C1600292228C013F029C014F01AEC32F0020E43
:103C2600CFEC32F048C025F049C026F0276A000ED6
:103C36002524106E800E2620116E100E2720126E7F
:103C4600000E146E1A0E136E1AEC32F0020ECFEC42
:103C560032F048C025F049C026F0276A000E252418
:103C6600106E800E2620116E100E2720126E000E8A
:103C7600146E000E136E1AEC32F0020ECFEC32F018
:103C860048C025F049C026F0276A000E2524156E87
:103C9600800E2620166E100E2720176E460E186E02
:103CA6000F0E196E13EC30F0CFEC32F00C0E1E6EC8
:103CB600FF0E1F6EFF0E206EFF0E216E55EC32F0CA
:103CC60048C025F049C026F0276A000E2524106E4C
:103CD600800E2620116E100E2720126E000E146E16
:103CE600050E136E1AEC32F0020ECFEC32F048C01D
:103CF60025F049C026F0276A000E2524106E800E96
:103D06002620116E100E2720126E0F0E2826000E8A
:103D1600292228C013F029C014F01AEC32F0020E42
:103D2600CFEC32F048C025F049C026F0276A000ED5
:103D36002524106E800E2620116E100E2720126E7E
:103D4600000E146E1A0E136E1AEC32F0020ECFEC41
:103D560032F048C025F049C026F0276A000E252417
:103D6600106E800E2620116E100E2720126E000E89
:103D7600146E000E136E1AEC32F0020ECFEC32F017
:103D860048C025F049C026F0276A000E2524156E86
:103D9600800E2620166E100E2720176E0D0E186E3A
:103DA6000F0E196E13EC30F0CFEC32F00C0E1E6EC7
:103DB600FF0E1F6EFF0E206EFF0E216E55EC32F0C9
:103DC60048C025F049C026F0276A000E2524106E4B
:103DD600800E2620116E100E2720126E010E146E14
:103DE600680E136E1AEC32F0020ECFEC32F048C0B9
:103DF60025F049C026F0276A000E2524106E800E95
:103E06002620116E100E2720126E000E146E820EE2
:103E1600136E1AEC32F0020ECFEC32F048C025F0E9
:103E260049C026F0276A000E2524106E800E262033
:103E3600116E100E2720126E000E146E1A0E136EDF
:103E46001AEC32F0020ECFEC32F048C025F049C031
:103E560026F0276A000E2524106E800E2620116E8D
:103E6600100E2720126E000E146E000E136E1AEC42
:103E760032F0020ECFEC32F048C025F049C026F0F1
:103E8600276A000E2524156E800E2620166E100E4B
:103E96002720176E010E186E0F0E196E13EC30F0F8
:103EA600CFEC32F00C0E1E6EFF0E1F6EFF0E206E54
:103EB600FF0E216E55EC32F048C025F049C026F0C1
:103EC600276A000E2524106E800E2620116E100E15
:103ED6002720126E010E146E680E136E1AEC32F065
:103EE600020ECFEC32F048C025F049C026F0276A12
:103EF600000E2524106E800E2620116E100E27202F
:103F0600126E000E146E910E136E1AEC32F0020E43
:103F1600CFEC32F048C025F049C026F0276A000EE3
:103F26002524106E800E2620116E100E2720126E8C
:103F3600000E146E1A0E136E1AEC32F0020ECFEC4F
:103F460032F048C025F049C026F0276A000E252425
:103F5600106E800E2620116E100E2720126E000E97
:103F6600146E000E136E1AEC32F0020ECFEC32F025
:103F760048C025F049C026F0276A000E2524156E94
:103F8600800E2620166E100E2720176E420E186E13
:103F96000F0E196E13EC30F0CFEC32F00C0E1E6ED5
:103FA600FF0E1F6EFF0E206EFF0E216E55EC32F0D7
:103FB60048C025F049C026F0276A000E2524106E59
:103FC600800E2620116E100E2720126E010E146E22
:103FD6007C0E136E1AEC32F0020ECFEC32F048C0B3
:103FE60025F049C026F0276A000E2524106E800EA3
:103FF6002620116E100E2720126E000E146EB40EBF
:10400600136E1AEC32F0020ECFEC32F048C025F0F7
:1040160049C026F0276A000E2524106E800E262041
:10402600116E100E2720126E000E146E1A0E136EED
:104036001AEC32F0020ECFEC32F048C025F049C03F
:1040460026F0276A000E2524106E800E2620116E9B
:10405600100E2720126E000E146E000E136E1AEC50
:1040660032F0020ECFEC32F048C025F049C026F0FF
:10407600276A000E2524156E800E2620166E100E59
:104086002720176E5B0E186E0F0E196E13EC30F0AC
:10409600CFEC32F00C0E1E6EFF0E1F6EFF0E206E62
:1040A600FF0E216E55EC32F048C025F049C026F0CF
:1040B600276A000E2524106E800E2620116E100E23
:1040C6002720126E010E146ECB0E136E1AEC32F010
:1040D600020ECFEC32F048C025F049C026F0276A20
:1040E600000E2524106E800E2620116E100E27203D
:1040F600126E000E146EAE0E136E1AEC32F0020E35
:10410600CFEC32F048C025F049C026F0276A000EF1
:104116002524106E800E2620116E100E2720126E9A
:10412600000E146E1C0E136E1AEC32F0020ECFEC5B
:1041360032F048C025F049C026F0276A000E252433
:10414600106E800E2620116E100E2720126E000EA5
:10415600146E000E136E1AEC32F0020ECFEC32F033
:1041660048C025F049C026F0276A000E2524156EA2
:10417600800E2620166E100E2720176E5E0E186E05
:104186000F0E196E13EC30F0CFEC32F0020E1E6EED
:10419600000E1F6E000E206E1F0E216E55EC32F0C3
:1041A600140E1E6E140E1F6E140E206E040E216E5B
:1041B60055EC32F0D60E1E6E060E1F6E000E206EE9
:1041C6000D0E216E55EC32F0000E1E6E300E1F6E77
:1041D600070E206E9E0E216E55EC32F03C0E1E6EC2
:1041E6003C0E1F6E3C0E206E040E216E55EC32F016
:1041F600720E1E6E060E1F6E000E206E0D0E216EC6
:1042060055EC32F0000E1E6E300E1F6E070E206E3D
:104216009E0E216E55EC32F01200600E1E6E000EE0
:104226001F6E000E206E0E0E216E55EC32F0000E43
:104236001E6E7D0E1F6ECA0E206E040E216E55EC8C
:1042460032F0030E1E6E000E1F6E000E206E1F0E45
:10425600216E55EC32F037D2000E1E6EF00E1F6E38
:10426600800E206EAF0E216E55EC32F0000E1E6EE3
:10427600300E1F6E870E206EAF0E216E55EC32F09B
:10428600000E1E6EF00E1F6E800E206EAF0E216E9B
:1042960055EC32F0000E1E6E300E1F6E870E206E2D
:1042A600B90E216E55EC32F0000E1E6E400E1F6EDA
:1042B600870E206EB90E216E55EC32F0000E1E6E82
:1042C600F00E1F6E800E206EB90E216E55EC32F088
:1042D6001200000E1E6EF00E1F6E800E206EB40EC3
:1042E600216E55EC32F0000E1E6E300E1F6E870EDC
:1042F600206EB40E216E55EC32F0000E1E6EF00EDE
:104306001F6E600E206EB40E216E55EC32F0000E5C
:104316001E6EE00E1F6E010E206EB20E216E55EC63
:1043260032F0000E1E6E400E1F6EA70E206EB20EED
:10433600216E55EC32F0000E1E6E400E1F6E670E9B
:10434600206EB60E216E55EC32F01200000E1E6E77
:10435600F00E1F6E800E206EAF0E216E55EC32F001
:10436600000E1E6EF00E1F6E800E206EB90E216EB0
:1043760055EC32F0000E1E6E000E1F6E810E206E82
:10438600B90E216E55EC32F0000E1E6E000E1F6E39
:10439600840E206EB90E216E55EC32F0000E1E6EA4
:1043A600100E1F6E840E206EB90E216E55EC32F083
:1043B600000E1E6E100E1F6E840E206EAF0E216E46
:1043C60055EC32F0000E1E6E200E1F6E840E206E0F
:1043D600AF0E216E55EC32F0000E1E6E300E1F6EC3
:1043E600870E206EAF0E216E55EC32F0000E1E6E5B
:1043F600300E1F6EA70E206EAF0E216E55EC32F0FA
:10440600000E1E6E300E1F6E870E206EB90E216EC8
:1044160055EC32F01200000E1E6EF00E1F6E800E6E
:10442600206EAF0E216E55EC32F0000E1E6EF00EB1
:104436001F6E600E206EB90E216E55EC32F0000E26
:104446001E6E000E1F6E810E206EB90E216E55EC8B
:1044560032F0000E1E6E300E1F6E870E206EB90EE5
:10446600216E55EC32F0000E1E6E100E1F6E640E9D
:10447600206EB90E216E55EC32F0000E1E6E100E37
:104486001F6E840E206EAF0E216E55EC32F0000EBC
:104496001E6E300E1F6EA70E206EAF0E216E55ECEF
:1044A60032F0000E1E6E300E1F6E670E206EB90EB5
:1044B600216E55EC32F01200000E1E6EF00E1F6ECD
:1044C600800E206EAF0E216E55EC32F0000E1E6E81
:1044D600000E1F6E840E206EAF0E216E55EC32F06C
:1044E600000E1E6E000E1F6E810E206EB90E216E1E
:1044F60055EC32F0000E1E6E300E1F6E870E206ECB
:10450600B90E216E55EC32F0000E1E6E100E1F6EA7
:10451600240E206EB90E216E55EC32F0000E1E6E82
:10452600100E1F6EA40E206EAF0E216E55EC32F0EB
:104536001200000E1E6EF00E1F6E800E206EAF0E65
:10454600216E55EC32F0000E1E6EF00E1F6E600EE0
:10455600206EB90E216E55EC32F0000E1E6E000E66
:104566001F6E810E206EAF0E216E55EC32F0000EDE
:104576001E6E000E1F6E840E206EAF0E216E55EC61
:1045860032F0000E1E6E100E1F6E840E206EB90ED7
:10459600216E55EC32F0000E1E6E200E1F6E870E39
:1045A600206EB90E216E55EC32F0000E1E6E100E06
:1045B6001F6E240E206EB90E216E55EC32F0000EE1
:1045C6001E6E100E1F6EA40E206EAF0E216E55ECE1
:1045D60032F0000E1E6E300E1F6EA70E206EAF0E4E
:1045E600216E55EC32F0000E1E6E300E1F6E670EF9
:1045F600206EB90E216E55EC32F01200000E1E6EC2
:10460600F00E1F6E800E206EAF0E216E55EC32F04E
:10461600000E1E6EF00E1F6E600E206EB90E216E1D
:1046260055EC32F0000E1E6E000E1F6E810E206ECF
:10463600AF0E216E55EC32F0000E1E6E300E1F6E60
:10464600870E206EAF0E216E55EC32F0000E1E6EF8
:10465600100E1F6E840E206EB90E216E55EC32F0D0
:10466600000E1E6E200E1F6E870E206EB90E216E76
:1046760055EC32F0000E1E6E100E1F6E240E206ECC
:10468600B90E216E55EC32F0000E1E6E100E1F6E26
:10469600A40E206EAF0E216E55EC32F0000E1E6E8B
:1046A600300E1F6EA70E206EAF0E216E55EC32F047
:1046B600000E1E6E300E1F6E670E206EB90E216E36
:1046C60055EC32F0120025C027F026C028F02850FD
:1046D600000AD8A412002750000AD8B4BDD5010A92
:1046E600D8B4F7D5030AD8B431D6010AD8B493D6CC
:1046F600070AD8B4E1D6010AD8B41BD7030AD8A44E
:1047060012007CD720EE88F010EE72F0150EDBCF8B
:10471600E3FFE806FCE2000E0001636F000E626F25
:10472600000E0001656F000E646F000E0001616FE0
:10473600000E606F000E0001676F000E666F000EC0
:104746000001696F000E686F000E00016B6F000EAE
:104756006A6F000E00016D6F000E6C6F000E000197
:104766006F6F000E6E6F000E0001716F000E706F9E
:10477600DDEC32F0EAEC32F07080708A709E708C5C
:10478600608A609C609476907692779A779CC80E41
:104796000E01E86F400E0E01E96F0E01F869DF0E9B
:1047A6000E01F96F0E01FC69110E0E01FD6FC79E19
:1047B600C78CC68AC688C650F00B0209C66E84EC42
:1047C60028F0DDEC32F0C650F00B0109C66E899276
:1047D6008C9889908A8A8C9A8C8662C030F063C0E5
:1047E60031F064C032F065C033F060C034F061C0AF
:1047F60035F066C036F067C037F068C038F069C07B
:1048060039F06AC03AF06BC03BF06CC03CF06DC04A
:104816003DF06EC03EF06FC03FF070C040F071C01A
:1048260041F0C8EC2FF0620E0F6E660E106E2CEC87
:1048360033F0F28EF28C9F0E226E000E236ED1ECB8
:1048460029F00009D8B411D1400E0001A0194BE19E
:10485600060E0001A1190001A2110001A311D8A49E
:1048660042D00001A651A5C042F0436A42C043F0BF
:10487600426A42100001626F43500001636F0001FB
:10488600A851A7C042F0436A42C043F0426A4210B0
:104896000F6E4350106E000E126E0A0E116E9DECD6
:1048A60030F00FC064F010C065F00001A551426EF3
:1048B600436A423A433AF00E431642500F0B4312F4
:1048C600F00E42160001AA5142100001606F4350DB
:1048D6000001616FABC066F00001676BACC068F0A9
:1048E6000001696BC2D0410E0001A0190EE1060E4F
:1048F6000001A1190001A2110001A311D8A405D03D
:10490600ABC06AF000016B6BB0D0420E0001A0197B
:1049160016E1060E0001A1190001A2110001A31162
:10492600D8A40DD0A5C06CF000016D6BA6C06EF0CA
:1049360000016F6BA7C070F00001716B96D0430E3B
:104946000001A01909E1060E0001A1190001A2113A
:104956000001A311D8B489D0440E0001A01908E1C2
:10496600060E0001A1190001A2110001A311D8A48D
:104976007CD00001A651A5C042F0436A42C043F074
:10498600426A421000017A6F435000017B6F0001BA
:10499600A851A7C042F0436A42C043F0426A42109F
:1049A6000001726F43500001736F0001AA51A9C044
:1049B60042F0436A42C043F0426A42100001746FFB
:1049C60043500001756F7AC00FF07BC010F0000EE7
:1049D600126E640E116E9DEC30F00FC07CF010C0AC
:1049E6007DF07AC017F07BC018F0000E1A6E640EC8
:1049F600196E1BEC31F017C07EF018C07FF072C044
:104A06000FF073C010F0000E126E640E116E9DEC66
:104A160030F00FC076F010C077F072C017F073C098
:104A260018F0000E1A6E640E196E1BEC31F017C0EA
:104A360078F018C079F0000180510001725D000124
:104A46007351800A426E00018151800A4258D8B0E3
:104A56000CD072C080F073C081F076C084F077C04D
:104A660085F078C086F079C087F000019E51D8B4F1
:104A7600E2D6DDEC31F0CFEC19F06CC025F06DC05C
:104A860026F039EC2CF06EC025F06FC026F0FFEC56
:104A96002EF0000E266E040E256E27EC27F070C051
:104AA60025F071C026F0B4EC25F064C017F065C09F
:104AB60018F071EC32F017C025F018C026F019C0B6
:104AC60027F02FEC2DF06AC025F06BC026F010EC15
:104AD60021F062C025F063C026F0BBEC07F068C089
:104AE60025F069C026F08DEC2EF066C025F067C073
:104AF60026F01BEC2EF076C025F077C026F078C0A5
:104B060027F079C028F084C029F085C02AF086C035
:104B16002BF087C02CF07CC02DF07DC02EF07EC01F
:104B26002FF07FC030F074C031F075C032F082C013
:104B360033F083C034F02DEC12F0190E256E0F0EF3
:104B4600266EE6EC2AF09CEC31F089928C988990DE
:104B56008A9A8C9A8C96000E00019E6F27EC33F091
:104B66006AD62E0E1E6EFF0E1F6EFF0E206EFF0EF5
:104B7600216E55EC32F048C027F049C028F0296A6A
:104B8600000E2724106E800E2820116E100E29208C
:104B9600126E000E146E420E136E1AEC32F0020EF6
:104BA600CFEC32F048C027F049C028F0296A000E41
:104BB6002724106E800E2820116E100E2920126EEA
:104BC600000E146E820E136E1AEC32F0020ECFEC4B
:104BD60032F048C027F049C028F0296A000E272481
:104BE600106E800E2820116E100E2920126E000EF7
:104BF600146E1C0E136E1AEC32F0020ECFEC32F06D
:104C060048C027F049C028F0296A000E2724106EF4
:104C1600800E2820116E100E2920126E000E146EC2
:104C2600000E136E1AEC32F0020ECFEC32F025C0F5
:104C36000FF026C010F0000E126E0A0E116E9DECDB
:104C460030F00FC01EF010C01FF0000E1FBEFF0E8A
:104C5600206E216E55EC32F00C0E1E6EFF0E1F6E8E
:104C6600FF0E206EFF0E216E55EC32F048C027F085
:104C760049C028F0296A000E2724106E800E2820CD
:104C8600116E100E2920126E000E146E5A0E136E3F
:104C96001AEC32F0020ECFEC32F048C027F049C0D1
:104CA60028F0296A000E2724106E800E2820116E27
:104CB600100E2920126E000E146E830E136E1AEC5F
:104CC60032F0020ECFEC32F048C027F049C028F08F
:104CD600296A000E2724106E800E2820116E100EF1
:104CE6002920126E000E146E1C0E136E1AEC32F092
:104CF600020ECFEC32F048C027F049C028F0296AEE
:104D0600000E2724106E800E2820116E100E29200A
:104D1600126E000E146E000E136E1AEC32F0020EB6
:104D2600CFEC32F048C027F049C028F0296A000EBF
:104D36002724156E800E2820166E100E2920176E59
:104D4600600E186E0F0E196E13EC30F0CFEC32F0C9
:104D56002E0E1E6EFF0E1F6EFF0E206EFF0E216EB4
:104D660055EC32F048C027F049C028F0296A000EF9
:104D76002724106E800E2820116E100E2920126E28
:104D8600000E146E600E136E1AEC32F0020ECFECAB
:104D960032F048C027F049C028F0296A000E2724BF
:104DA600106E800E2820116E100E2920126E000E35
:104DB600146E820E136E1AEC32F0020ECFEC32F045
:104DC60048C027F049C028F0296A000E2724106E33
:104DD600800E2820116E100E2920126E000E146E01
:104DE6001C0E136E1AEC32F0020ECFEC32F048C0F5
:104DF60027F049C028F0296A000E2724106E800E7D
:104E06002820116E100E2920126E000E146E000E50
:104E1600136E1AEC32F0020ECFEC32F025C017F00A
:104E260026C018F0000E1A6E0A0E196E1BEC31F031
:104E360017C01EF018C01FF0000E1FBEFF0E206E1A
:104E4600216E55EC32F012002E0E1E6EFF0E1F6EF6
:104E5600FF0E206EFF0E216E55EC32F048C027F093
:104E660049C028F0296A000E2724106E800E2820DB
:104E7600116E100E2920126E000E146E420E136E65
:104E86001AEC32F0020ECFEC32F048C027F049C0DF
:104E960028F0296A000E2724106E800E2820116E35
:104EA600100E2920126E000E146E590E136E1AEC97
:104EB60032F0020ECFEC32F048C027F049C028F09D
:104EC600296A000E2724106E800E2820116E100EFF
:104ED6002920126E000E146E1C0E136E1AEC32F0A0
:104EE600020ECFEC32F048C027F049C028F0296AFC
:104EF600000E2724106E800E2820116E100E292019
:104F0600126E000E146E000E136E1AEC32F0020EC4
:104F1600CFEC32F0030E1E6E000E1F6E000E206EDA
:104F2600000E216E55EC32F00C0E1E6EFF0E1F6E3B
:104F3600FF0E206EFF0E216E55EC32F048C027F0B2
:104F460049C028F0296A000E2724106E800E2820FA
:104F5600116E100E2920126E000E146E4E0E136E78
:104F66001AEC32F0020ECFEC32F048C027F049C0FE
:104F760028F0296A000E2724106E800E2820116E54
:104F8600100E2920126E000E146E5A0E136E1AECB5
:104F960032F0020ECFEC32F048C027F049C028F0BC
:104FA600296A000E2724106E800E2820116E100E1E
:104FB6002920126E000E146E1C0E136E1AEC32F0BF
:104FC600020ECFEC32F048C027F049C028F0296A1B
:104FD600000E2724106E800E2820116E100E292038
:104FE600126E000E146E000E136E1AEC32F0020EE4
:104FF600CFEC32F048C027F049C028F0296A000EED
:105006002724156E800E2820166E100E2920176E86
:10501600600E186E0F0E196E13EC30F0CFEC32F0F6
:105026002E0E1E6EFF0E1F6EFF0E206EFF0E216EE1
:1050360055EC32F048C027F049C028F0296A000E26
:105046002724106E800E2820116E100E2920126E55
:10505600000E146E530E136E1AEC32F0020ECFECE5
:1050660032F048C027F049C028F0296A000E2724EC
:10507600106E800E2820116E100E2920126E000E62
:10508600146E590E136E1AEC32F0020ECFEC32F09B
:1050960048C027F049C028F0296A000E2724106E60
:1050A600800E2820116E100E2920126E000E146E2E
:1050B6001C0E136E1AEC32F0020ECFEC32F048C022
:1050C60027F049C028F0296A000E2724106E800EAA
:1050D6002820116E100E2920126E000E146E000E7E
:1050E600136E1AEC32F0020ECFEC32F0030E1E6E87
:1050F600000E1F6E000E206E000E216E55EC32F073
:1051060012008B92020E1C6EA00E1B6E920EE82EE3
:10511600FED71B2EFCD71C2EFAD700D08B82020E90
:105126001C6EA00E1B6E920EE82EFED71B2EFCD711
:105136001C2EFAD700D0000EF7EC32F0440EF7EC36
:1051460032F0620EF7EC32F0300E106E240E116E55
:10515600100E126E010E146EE00E136E1AEC32F083
:10516600440E106E240E116E100E126E010E146E89
:10517600100E136E1AEC32F0280E106E240E116EFD
:10518600100E126E020E146E0D0E136E1AEC32F025
:10519600340E106E240E116E100E126E000E146E6A
:1051A600000E136E1AEC32F0380E106E240E116ECD
:1051B600100E126E000E146E290E136E1AEC32F0DB
:1051C6002C0E106E240E116E100E126E000E146E42
:1051D6002B0E136E1AEC32F03C0E106E240E116E6E
:1051E600100E126E010E146E1E0E136E1AEC32F0B5
:1051F600480E106E240E116E100E126E000E146EF6
:10520600000E136E1AEC32F04C0E106E240E116E58
:10521600100E126E000E146E0A0E136E1AEC32F099
:10522600400E106E240E116E100E126E000E146ECD
:105236000C0E136E1AEC32F0640E106E240E116E04
:10524600100E126E000E136E8DEC32F05C0E106EA8
:10525600240E116E100E126E000E136E8DEC32F0CF
:10526600580E106E240E116E100E126E010E146E74
:10527600B60E136E1AEC32F0600E106E240E116E1E
:10528600100E126E000E136E8DEC32F0680E106E5C
:10529600240E116E100E126E000E136E8DEC32F08F
:1052A600540E106E240E116E100E126E000E136E3A
:1052B6008DEC32F0000E106E000E116E100E126E96
:1052C600000E136E1A0E146E000E156E020E166E7A
:1052D600DFEC30F0040E106E000E116E100E126E22
:1052E600070E136E000E146E000E156E260E166E49
:1052F600DFEC30F0080E106E000E116E100E126EFE
:10530600000E136E000E146E000E156E000E166E55
:10531600DFEC30F0500E106E240E116E100E126E71
:10532600020E136E8DEC32F08C0E106E240E116E82
:10533600100E126EFC0E136E8DEC32F0900E106E87
:10534600240E116E100E126EFF0E136E8DEC32F0DF
:105356006C0E106E240E116E100E126E050E136E6C
:105366008DEC32F0E80E106E240E116E100E126ED9
:1053760053EC31F010C048F011C049F0E40E106E45
:10538600240E116E100E126E53EC31F048501018A8
:10539600F5E149501118D8B41200F0D7000E246E6A
:1053A60060AE83D062A61ED022C0D9FF23C0DAFF2A
:1053B600020EDF6E64CF0FF061CF10F062CF11F0F6
:1053C600635095EC2BF020EE01F02250D9262350A5
:1053D600DA220FC0DEFF10C0DEFF11C0DEFF12C0F2
:1053E600DEFF19D022C0D9FF23C0DAFF010EDF6E1F
:1053F60062CF0FF061505AEC30F020EE01F02250EF
:10540600D9262350DA220FC0DEFF10C0DEFF11C0FE
:10541600DEFF12C0DEFF20EE05F02250D926235013
:10542600DA2265CFDFFF20EE06F02250D926235080
:10543600DA2266CFDFFF20EE07F02250D92623506E
:10544600DA2267CFDFFF20EE08F02250D92623505C
:10545600DA2268CFDFFF20EE09F02250D92623504A
:10546600DA2269CFDFFF20EE0AF02250D926235038
:10547600DA226ACFDFFF20EE0BF02250D926235026
:10548600DA226BCFDFFF20EE0CF02250D926235014
:10549600DA226CCFDFFF20EE0DF02250D926235002
:1054A600DA226DCFDFFF609E89D00F0130AF88D042
:1054B6000F0132A71FD022C0D9FF23C0DAFF020E88
:1054C600DF6E34CF0FF031CF10F032CF11F00F0175
:1054D600335195EC2BF020EE01F02250D9262350C3
:1054E600DA220FC0DEFF10C0DEFF11C0DEFF12C0E1
:1054F600DEFF1AD022C0D9FF23C0DAFF010EDF6E0D
:1055060032CF0FF00F0131515AEC30F020EE01F09E
:105516002250D9262350DA220FC0DEFF10C0DEFF4C
:1055260011C0DEFF12C0DEFF20EE05F02250D926A4
:105536002350DA2235CFDFFF20EE06F02250D9269F
:105546002350DA2236CFDFFF20EE07F02250D9268D
:105556002350DA2237CFDFFF20EE08F02250D9267B
:105566002350DA2238CFDFFF20EE09F02250D92669
:105576002350DA2239CFDFFF20EE0AF02250D92657
:105586002350DA223ACFDFFF20EE0BF02250D92645
:105596002350DA223BCFDFFF20EE0CF02250D92633
:1055A6002350DA223CCFDFFF20EE0DF02250D92621
:1055B6002350DA223DCFDFFF0F01309F010E246E0C
:1055C600779224501200090E1E6E000E1F6E000EFA
:1055D600206E1F0E216E55EC32F03C0E1E6E3C0EF8
:1055E6001F6E3C0E206E040E216E55EC32F0000E3E
:1055F6001E6E700E1F6ECD0E206EAB0E216E55EC1C
:1056060032F0000E1E6E600E1F6ECE0E206E900ED5
:10561600216E55EC32F0FF0E1E6EFF0E1F6EFF0E52
:10562600206E040E216E55EC32F00C0E1E6EFF0E2F
:105636001F6EFF0E206EFF0E216E55EC32F048C035
:1056460027F049C028F0296A000E2724106E800E24
:105656002820116E100E2920126E000E146EF00E08
:10566600136E1AEC32F0020ECFEC32F048C027F07F
:1056760049C028F0296A000E2724106E800E2820C3
:10568600116E100E2920126E000E146EDE0E136EB1
:105696001AEC32F0020ECFEC32F048C027F049C0C7
:1056A60028F0296A000E2724106E800E2820116E1D
:1056B600100E2920126E000E146E1C0E136E1AECBC
:1056C60032F0020ECFEC32F048C027F049C028F085
:1056D600296A000E2724106E800E2820116E100EE7
:1056E6002920126E060E146E000E136E1AEC32F09E
:1056F600020ECFEC32F048C027F049C028F0296AE4
:10570600000E2724156E800E2820166E100E2920F6
:10571600176E1F0E186E0F0E196E13EC30F0CFECCD
:1057260032F01200176E000E186E000E196E000E83
:105736001A6E000E1B6E000E1E6E000E1F6E000E01
:10574600206E000E216E1150030B1C6E1138E842BC
:10575600070B1D6E1050136E146AD890133614364C
:10576600D89013361436D8901336143613C01EF05C
:1057760014C01FF0000E1FBEFF0E206E216E1D50BE
:105786001E241E6E000E1F201F6E000E2020206E8F
:10579600000E2120216E1EC013F01FC014F020C081
:1057A60015F021C016F0020ED890133614361536B1
:1057B6001636E82EF9D713C01EF014C01FF015C018
:1057C60020F016C021F01C501E241E6E000E1F2055
:1057D6001F6E000E2020206E000E2120216E1EC09E
:1057E60014F01FC015F020C016F0136A13C01EF087
:1057F60014C01FF015C020F016C021F017501E244B
:105806001E6E000E1F201F6E000E2020206E000E42
:105816002120216E1EC014F01FC015F020C016F006
:10582600136A13C01EF014C01FF015C020F016C076
:1058360021F00F501E241E6E000E1F201F6E000E3C
:105846002020206E000E2120216E1EC018F01FC0E1
:1058560019F020C01AF021C01BF018C00FF019C0B3
:1058660010F01AC011F01BC012F01200FF0E1E6ECF
:10587600FF0E1F6EFF0E206E040E216E55EC32F0E9
:105886002E0E1E6EFF0E1F6EFF0E206EFF0E216E79
:1058960055EC32F048C027F049C028F0296A000EBE
:1058A6002724106E800E2820116E100E2920126EED
:1058B600000E146E400E136E1AEC32F0020ECFEC90
:1058C60032F048C027F049C028F0296A000E272484
:1058D600106E800E2820116E100E2920126E000EFA
:1058E600146E070E136E1AEC32F0020ECFEC32F085
:1058F60048C027F049C028F0296A000E2724106EF8
:10590600800E2820116E100E2920126E000E146EC5
:105916001C0E136E1AEC32F0020ECFEC32F048C0B9
:1059260027F049C028F0296A000E2724106E800E41
:105936002820116E100E2920126E000E146E000E15
:10594600136E1AEC32F0020ECFEC32F025C01EF0C8
:1059560026C01FF0000E1FBEFF0E206E216E55ECF6
:1059660032F0120011C013F0146A156A103413369F
:1059760001E3148013501D6E1D50D8A409D0000EEB
:105986000F6E000E106E000E116E000E126E1200DB
:10599600170E136E0FC014F010C015F011C016F0DC
:1059A6001328176E04D0D890163215321432172EDB
:1059B600FAD71450186E108EFF0E0F16FF0E101623
:1059C600000E11160F50196E10501A6E11501B6EE4
:1059D6001C6A8E0E1D5E1DAE16D01D50800A8F0FDE
:1059E600D8B009D0000E0F6E000E106E000E116EAC
:1059F600000E126E1200D8901C321B321A32193267
:105A06001D3EF9D715D0170E1D640FD0000E0F6E70
:105A1600000E106E000E116E000E126E1200D8905F
:105A260019361A361B361C361D061D50D8A4F7D754
:105A36001850D8B408D01C1E1B1E1A1E196C000E56
:105A46001A221B221C2219C00FF01AC010F01BC00C
:105A560011F01CC012F012002E0E1E6EFF0E1F6EED
:105A6600FF0E206EFF0E216E55EC32F048C028F076
:105A760049C029F02A6A000E2824106E800E2920BB
:105A8600116E100E2A20126E000E146E420E136E48
:105A96001AEC32F0020ECFEC32F048C028F049C0C2
:105AA60029F02A6A000E2824106E800E2920116E15
:105AB600100E2A20126E000E146EAB0E136E1AEC28
:105AC60032F0020ECFEC32F048C028F049C029F07F
:105AD6002A6A000E2824106E800E2920116E100EE0
:105AE6002A20126E000E146E1C0E136E1AEC32F083
:105AF600020ECFEC32F048C028F049C029F02A6ADD
:105B0600000E2824106E800E2920116E100E2A20F9
:105B1600126E000E146E000E136E1AEC32F0020EA8
:105B2600CFEC32F025C00FF026C010F027C011F0E0
:105B3600B5EC2CF00FC01EF010C01FF011C020F005
:105B460012C021F055EC32F01200800E6F6E6E50CE
:105B5600E00B800AD8A4FBD7000E726E0E01FA691C
:105B66000E01FB690E01F8690E01F9690E01FE6965
:105B76000E01FF690E01FC690E01FD69000E0E01A2
:105B8600E26F000E0E01E36F000E0E01E06F000ED5
:105B96000E01E16F000E0E01E66F000E0E01E76FBB
:105BA600000E0E01E46F000E0E01E56F000E0E01F1
:105BB600EA6F000E0E01EB6F000E0E01E86F000E8D
:105BC6000E01E96F000E0E01EE6F000E0E01EF6F73
:105BD600000E0E01EC6F000E0E01ED6F000E0E01B1
:105BE600F26F000E0E01F36F000E0E01F06F000E45
:105BF6000E01F16F000E0E01F66F000E0E01F76F2B
:105C0600000E0E01F46F000E0E01F56F030E0E016D
:105C1600436F980E0E01446F010E0E01456F000E84
:105C26006F6E6ECF0FF0E00E0F16D8B41200F9D7D4
:105C36002E0E1E6EFF0E1F6EFF0E206EFF0E216EC5
:105C460055EC32F048C027F049C028F0296A000E0A
:105C56002724106E800E2820116E100E2920126E39
:105C6600010E146EC70E136E1AEC32F0020ECFEC54
:105C760032F048C027F049C028F0296A000E2724D0
:105C8600106E800E2820116E100E2920126E000E46
:105C9600146EA60E136E1AEC32F0020ECFEC32F032
:105CA60048C027F049C028F0296A000E2724106E44
:105CB600800E2820116E100E2920126E000E146E12
:105CC6001E0E136E1AEC32F0020ECFEC32F048C004
:105CD60027F049C028F0296A000E2724106E800E8E
:105CE6002820116E100E2920126E080E146E000E5A
:105CF600136E1AEC32F0020ECFEC32F025C01EF015
:105D060026C01FF0000E1FBEFF0E206E216E55EC42
:105D160032F012002E0E1E6EFF0E1F6EFF0E206E4C
:105D2600FF0E216E55EC32F048C027F049C028F02E
:105D3600296A000E2724106E800E2820116E100E80
:105D46002920126E010E146EDB0E136E1AEC32F061
:105D5600020ECFEC32F048C027F049C028F0296A7D
:105D6600000E2724106E800E2820116E100E29209A
:105D7600126E000E146E780E136E1AEC32F0020ECE
:105D8600CFEC32F048C027F049C028F0296A000E4F
:105D96002724106E800E2820116E100E2920126EF8
:105DA600000E146E1F0E136E1AEC32F0020ECFECBC
:105DB60032F048C027F049C028F0296A000E27248F
:105DC600106E800E2820116E100E2920126E080EFD
:105DD600146E000E136E1AEC32F0020ECFEC32F097
:105DE60025C01EF026C01FF0000E1FBEFF0E206E3F
:105DF600216E55EC32F012002E0E1E6EFF0E1F6E37
:105E0600FF0E206EFF0E216E55EC32F048C027F0D3
:105E160049C028F0296A000E2724106E800E28201B
:105E2600116E100E2920126E000E146E420E136EA5
:105E36001AEC32F0020ECFEC32F048C027F049C01F
:105E460028F0296A000E2724106E800E2820116E75
:105E5600100E2920126E000E146E300E136E1AEC00
:105E660032F0020ECFEC32F048C027F049C028F0DD
:105E7600296A000E2724106E800E2820116E100E3F
:105E86002920126E000E146E1C0E136E1AEC32F0E0
:105E9600020ECFEC32F048C027F049C028F0296A3C
:105EA600000E2724106E800E2820116E100E292059
:105EB600126E000E146E000E136E1AEC32F0020E05
:105EC600CFEC32F025C01EF026C01FF0000E1FBE1C
:105ED600FF0E206E216E55EC32F012001250D8B42F
:105EE60005D00F5010101110D8A40CD0000E0F6E54
:105EF600000E106E000E116E1200122AD89011328A
:105F060010320F32000E0F14146E000E1014156EA0
:105F1600FE0E1114166E145015101610D8B40CD0AF
:105F2600ECD7122A010E0F26000E1022000E1122A7
:105F3600D890113210320F32000E0F14146E000E6C
:105F46001014156EFF0E1114166E1450151016103F
:105F5600D8B406D0E6D71206D8900F3610361136CA
:105F660010BE03D0020E1260F6D712A0109ED89073
:105F76001232125011121350D8A4118E0FC00FF006
:105F860010C010F011C011F01200DDEC31F0CFECB2
:105F960019F03CC025F03DC026F039EC2CF03EC08F
:105FA60025F03FC026F0FFEC2EF0000E266E040E04
:105FB600256E27EC27F040C025F041C026F0B4EC52
:105FC60025F032C017F033C018F071EC32F017C06C
:105FD60025F018C026F019C027F02FEC2DF03AC096
:105FE60025F03BC026F010EC21F030C025F031C082
:105FF60026F0BBEC07F038C025F039C026F08DEC52
:106006002EF036C025F037C026F01BEC2EF0190E08
:10601600256E0F0E266EE6EC2AF09CEC31F012008F
:106026008C901750800918EC33F015C01AF016C082
:106036001BF017C01CF01BC01AF01CC01BF01C6A1A
:106046001A5018EC33F0155018EC33F018C00FF056
:1060560019C010F0BDEC31F00F501D6E000E1E6E13
:1060660014D01E50010D18C01AF019C01BF0F350C1
:106076001A26F4501B221AC0F6FF1BC0F7FFF86A57
:106086000800F55018EC33F01E2A1E501D5CD8A0EF
:1060960005D0E7D7000E18EC33F01E2A1EC01AF002
:1060A600030E1A16D8A4F6D78C801E501200156E51
:1060B600000E166E000E176E000E186E000E196E8C
:1060C6001550136E146AD89013361436D8901336BA
:1060D6001436D8901336143613C01AF014C01BF0B9
:1060E600000E1BBEFF0E1C6E1D6E0FC013F0050EBC
:1060F600146ED8901332142EFCD713501A241A6E2D
:10610600000E1B201B6E000E1C201C6E000E1D2098
:106116001D6E1AC016F01BC017F01CC018F01DC06B
:1061260019F016C00FF017C010F018C011F019C002
:1061360012F01200000E146E12AE06D0116C121E72
:10614600D8B0122A010E146E10AE06D00F6C101EB7
:10615600D8B0102A010E141A000E166E000E156E17
:1061660011501210D8B41CD0010E136E04D0D89062
:1061760011361236132A12AEFAD7D89015361636BD
:1061860011500F5C12501058D8A005D011500F5E58
:106196001250105A1580D89012321132132EEDD7A4
:1061A6001450D8B404D0156C161ED8B0162A15C0D3
:1061B6000FF016C010F012008C901250800918ECE7
:1061C60033F010C017F011C018F012C019F018C043
:1061D60017F019C018F0196A175018EC33F0105060
:1061E60018EC33F0135018EC33F0145018EC33F06D
:1061F600155018EC33F013C017F014C018F015C082
:1062060019F016C01AF0110E05D0D8901A321932AC
:1062160018321732E82EF9D718C017F019C018F03F
:106226001AC019F01A6A175018EC33F08C80120055
:10623600000E1C6E18AE06D0176C181ED8B0182AA1
:10624600010E1C6E1AAE04D0196C1A1ED8B01A2A8A
:1062560019501A10D8B418D0010E1B6E04D0D8905D
:1062660019361A361B2A1AAEFAD71950175C1A5065
:106276001858D8A004D01950175E1A50185AD8903A
:106286001A3219321B2EF1D71C50D8B404D0176C11
:10629600181ED8B0182A17C017F018C018F0120028
:1062A6008C90125018EC33F010C013F011C014F09B
:1062B60012C015F014C013F015C014F0156A13506F
:1062C60018EC33F0105018EC33F0000E18EC33F0E5
:1062D600000E18EC33F0C9CF16F0000E18EC33F0B0
:1062E6008C80C950136E1650106E13C011F0120038
:1062F600080EF66E660EF76E000EF86E00EE88F06B
:1063060010EE16F00900F5CFEEFFE550E150FAE188
:1063160000EE9EF00F0EEE6AE806FDE100EE44F098
:10632600080EEE6AE806FDE14C904C92000185EFFE
:1063360023F0000E1E6E000E1F6E000E206E000E65
:10634600216E55EC32F0010E1E6EFF0E1F6EFF0E13
:10635600206EFF0E216E55EC32F0E80E106E240E04
:10636600116E100E126E48C013F049C014F01AECEC
:1063760032F012000FC013F010C014F002D0134A0E
:10638600142A13C0F6FF14C0F7FFF86A0800F55088
:106396000009D8A4F4D70FC011F010C012F0111ED6
:1063A600121E114A122A135011240F6E1450122075
:1063B600106E1200000E1E6EFF0E1F6EFF0E206E78
:1063C600FF0E216E55EC32F0140E1E6E140E1F6E6B
:1063D600140E206E020E216E55EC32F0070E1E6E64
:1063E600000E1F6E000E206E260E216E55EC32F04A
:1063F6001200300ECD6E000EAA6E150ECF6EA00ED8
:10640600CE6ECE50CFCF11F0126A11C012F0116AC3
:106416001110466E1250476E9E909D80720E0F6E42
:10642600660E106E2CEC33F035EC33F012008C90C7
:106436001250800918EC33F010C015F011C016F098
:1064460012C017F016C015F017C016F0176A1550CF
:1064560018EC33F0105018EC33F0135018EC33F0FE
:10646600145018EC33F08C801200000E8D6E000E66
:106476008C6E000E896E000E8A6E000E8B6E070EF5
:10648600966EEC0E926EDB0E936ED50E946EC20E69
:10649600956E0F015D697D0E0F015C6FCF0E0F01CA
:1064A6005B6F120048C022F049C023F0246A000E38
:1064B6002224106E800E2320116E100E2420126EE0
:1064C6001EC013F01FC014F020C015F021C016F036
:1064D600DFEC30F0040ECFEC32F01200000E1A6E34
:1064E60018AE06D0176C181ED8B0182A010E1A6EF0
:1064F60017C00FF018C010F0116A8E0E126E1AC077
:1065060013F071EC2FF00FC017F010C018F011C087
:1065160019F012008C901250800918EC33F010C05C
:1065260014F011C015F012C016F015C014F016C004
:1065360015F0166A145018EC33F0105018EC33F0BE
:10654600135018EC33F08C8012009E904750CF6E9B
:1065560046C0CEFF44504510D8B4120001D81200F0
:106566000500FA6E4450FD6E4550FE6EFF6AFA5005
:1065760012000F501102F3CF13F0F4CF14F00F50A6
:106586001202F350142610501102F350142613C0B1
:106596000FF014C010F01200116E115048240F6E47
:1065A600000E4920106EFF0E0F14486E0F0E1014C9
:1065B600496E1200A30E106E570E0F6E020EE82ED5
:1065C600FED70F2EFCD7102EFAD700D0120037ECCC
:1065D60033F038EC32F00FEC33F020EC33F0FCEC17
:1065E60031F0A8EC2DF01200106E8C90105018ECC3
:1065F60033F0000E18EC33F0000E18EC33F08C80FC
:106606001200000001000000000000000000000071
:106616000F27000063006300600ED36E000ED26E7B
:10662600000E9B6E000E9A6E12000F6EC69E0FC075
:10663600C9FFC7A0FED7C9501200000EC76E200EB4
:10664600C66E000EC86E12004750CF6E46C0CEFF13
:1066560012000FC044F010C045F01200010E0001F8
:0E6666009E6F1200CD801200D09E1200120016
:020000040020DA
:08000000FFFFFFFFFFFFFFFF00
:020000040030CA
:0E00000015127F7CFF8991FF0FC00FE00F40AB
:00000001FF
