:040000004BEF00F0D2
:100008004F82FACF02F0FBCF03F0E9CF04F0EACF3A
:1000180005F0E1CF06F0E2CF07F0D9CF08F0DACF4C
:1000280009F0F3CF0AF0F4CF0BF0F6CF0CF0F7CFCE
:100038000DF0F8CF0EF0F5CF0FF0F2BAF2A403D01E
:1000480086EC31F006D0F2BC9DA003D09EB072ECD5
:1000580031F00FC0F5FF0EC0F8FF0DC0F7FF0CC060
:10006800F6FF0BC0F4FF0AC0F3FF09C0DAFF08C0AF
:10007800D9FF07C0E2FF06C0E1FF05C0EAFF04C0E0
:10008800E9FF03C0FBFF02C0FAFF4F9211002CEFFB
:0200980030F046
:100F0000004452532026204175746F5368696674FB
:100F1000204F4E00526164696F204F4E0053504580
:100F200045440057415445520050524553530056D2
:100F30004F4C54530068656C6C6F00523138200080
:100F40004655454C0054454D50004C4153540042C9
:100F50004553540042415454004B5048004F494CB3
:100F60000052504D004C41500031300031310031C1
:100F7000320054500025002E003300340035003676
:100F8000003700380039003A006B000025C010F02F
:100F900026C011F0030E136EE80E126E4EEC2FF009
:100FA00010C02EF011C02FF0000E136E640E126EE2
:100FB00025C010F026C011F04EEC2FF010C018F034
:100FC00011C019F0000E1B6E0A0E1A6ECCEC2FF039
:100FD00018C02CF019C02DF0FF0E1E6EFF0E1F6EF4
:100FE000FF0E206E040E216E06EC31F0090E1E6E0F
:100FF000FF0E1F6EFF0E206EFF0E216E06EC31F00D
:10100000320E1E6E320E1F6E320E206E000E216EDC
:1010100006EC31F0130E1E6EFF0E1F6EFF0E206EDB
:10102000FF0E216E06EC31F04AC027F04BC028F0CD
:10103000296A000E2724116E800E2820126E100ED1
:101040002920136E000E156EF00E146ECBEC30F0EE
:10105000020EBCEC31F04AC027F04BC028F0296AE0
:10106000000E2724116E800E2820126E100E2920EB
:10107000136E000E156E730E146ECBEC30F0020E74
:10108000BCEC31F04AC027F04BC028F0296A000EB2
:101090002724116E800E2820126E100E2920136E48
:1010A000000E156E820E146ECBEC30F0020EBCEC0E
:1010B00031F04AC027F04BC028F0296A000E2724DF
:1010C000116E800E2820126E100E2920136E510E04
:1010D000156E000E146ECBEC30F0020EBCEC31F04D
:1010E0004AC027F04BC028F0296A000E2724116E51
:1010F000800E2820126E100E2920136E000E156E21
:101100000A0E146ECBEC30F0020EBCEC31F04AC08B
:1011100027F04BC028F0296A000E2724116E800E9C
:101120002820126E100E2920136E000E156E050E6B
:10113000146ECBEC30F0020EBCEC31F04AC027F05C
:101140004BC028F0296A000E2724116E800E28203B
:10115000126E100E2920136E000E156E000E146E06
:10116000CBEC30F0020EBCEC31F04AC027F04BC0A3
:1011700028F0296A000E2724116E800E2820126E96
:10118000100E2920136E000E156E320E146ECBEC6D
:1011900030F0020EBCEC31F0000E1E6E000E1F6E21
:1011A000FF0E206E040E216E06EC31F02FBE06D02D
:1011B0002F5003E1020E2E5CD8B0C3D0130E1E6E6A
:1011C000FF0E1F6EFF0E206EFF0E216E06EC31F03B
:1011D0004AC027F04BC028F0296A000E2724116E60
:1011E000800E2820126E100E2920136E000E156E30
:1011F000F00E146ECBEC30F0020EBCEC31F04AC0B5
:1012000027F04BC028F0296A000E2724116E800EAB
:101210002820126E100E2920136E000E156E730E0C
:10122000146ECBEC30F0020EBCEC31F04AC027F06B
:101230004BC028F0296A000E2724116E800E28204A
:10124000126E100E2920136E000E156E820E146E93
:10125000CBEC30F0020EBCEC31F04AC027F04BC0B2
:1012600028F0296A000E2724116E800E2820126EA5
:10127000100E2920136E310E156E000E146ECBEC7D
:1012800030F0020EBCEC31F04AC027F04BC028F021
:10129000296A000E2724116E800E2820126E100E6F
:1012A0002920136E000E156E0A0E146ECBEC30F072
:1012B000020EBCEC31F04AC027F04BC028F0296A7E
:1012C000000E2724116E800E2820126E100E292089
:1012D000136E000E156E050E146ECBEC30F0020E80
:1012E000BCEC31F04AC027F04BC028F0296A000E50
:1012F0002724116E800E2820126E100E2920136EE6
:101300002EC014F02FC015F0CBEC30F0020EBCEC68
:1013100031F04AC027F04BC028F0296A000E27247C
:10132000116E800E2820126E100E2920136E000EF2
:10133000156E320E146ECBEC30F0020EBCEC31F0B8
:10134000E2D0FE0E2E24106EFF0E2F20116E000E26
:10135000136E050E126E9AEC31F010C027F011C01A
:1013600028F02CC010F02DC011F0000E136E020EEC
:10137000126E4EEC2FF0105027242A6E11502820A8
:101380002B6E130E1E6EFF0E1F6EFF0E206EFF0ED5
:10139000216E06EC31F04AC027F04BC028F0296AD4
:1013A000000E2724116E800E2820126E100E2920A8
:1013B000136E000E156EF00E146ECBEC30F0020EB4
:1013C000BCEC31F04AC027F04BC028F0296A000E6F
:1013D0002724116E800E2820126E100E2920136E05
:1013E000000E156E730E146ECBEC30F0020EBCECDA
:1013F00031F04AC027F04BC028F0296A000E27249C
:10140000116E800E2820126E100E2920136E000E11
:10141000156E820E146ECBEC30F0020EBCEC31F087
:101420004AC027F04BC028F0296A000E2724116E0D
:10143000800E2820126E100E2920136E310E156EAC
:10144000000E146ECBEC30F0020EBCEC31F04AC052
:1014500027F04BC028F0296A000E2724116E800E59
:101460002820126E100E2920136E000E156E0A0E23
:10147000146ECBEC30F0020EBCEC31F04AC027F019
:101480004BC028F0296A000E2724116E800E2820F8
:10149000126E100E2920136E000E156E050E146EBE
:1014A000CBEC30F0020EBCEC31F04AC027F04BC060
:1014B00028F0296A000E2724116E800E2820126E53
:1014C000100E2920136E2AC014F02BC015F0CBEC9F
:1014D00030F0020EBCEC31F04AC027F04BC028F0CF
:1014E000296A000E2724116E800E2820126E100E1D
:1014F0002920136E000E156E320E146ECBEC30F0F8
:10150000020EBCEC31F0FF0E1E6EFF0E1F6EFF0EC2
:10151000206E040E216E06EC31F02E0E1E6EFF0EB4
:101520001F6EFF0E206EFF0E216E06EC31F04AC0DA
:1015300027F04BC028F0296A000E2724116E800E78
:101540002820126E100E2920136E000E156EED0E5F
:10155000146ECBEC30F0020EBCEC31F04AC027F038
:101560004BC028F0296A000E2724116E800E282017
:10157000126E100E2920136E000E156E590E146E89
:10158000CBEC30F0020EBCEC31F04AC027F04BC07F
:1015900028F0296A000E2724116E800E2820126E72
:1015A000100E2920136E000E156E1F0E146ECBEC5C
:1015B00030F0020EBCEC31F04AC027F04BC028F0EE
:1015C000296A000E2724116E800E2820126E100E3C
:1015D0002920136E080E156E000E146ECBEC30F041
:1015E000020EBCEC31F02EC01EF02FC01FF0000E1A
:1015F0001FBEFF0E206E216E06EC31F02E0E1E6E09
:10160000FF0E1F6EFF0E206EFF0E216E06EC31F0F6
:101610004AC027F04BC028F0296A000E2724116E1B
:10162000800E2820126E100E2920136E000E156EEB
:10163000F30E146ECBEC30F0020EBCEC31F04AC06D
:1016400027F04BC028F0296A000E2724116E800E67
:101650002820126E100E2920136E000E156E590EE2
:10166000146ECBEC30F0020EBCEC31F04AC027F027
:101670004BC028F0296A000E2724116E800E282006
:10168000126E100E2920136E000E156E1F0E146EB2
:10169000CBEC30F0020EBCEC31F04AC027F04BC06E
:1016A00028F0296A000E2724116E800E2820126E61
:1016B000100E2920136E000E156E000E146ECBEC6A
:1016C00030F0020EBCEC31F02CC01EF02DC01FF02B
:1016D000000E1FBEFF0E206E216E06EC31F00C0EC8
:1016E0001E6EFF0E1F6EFF0E206EFF0E216E06ECAB
:1016F00031F04AC027F04BC028F0296A000E272499
:10170000116E800E2820126E100E2920136E000E0E
:10171000156EB70E146ECBEC30F0020EBCEC31F04F
:101720004AC027F04BC028F0296A000E2724116E0A
:10173000800E2820126E100E2920136E000E156EDA
:10174000A10E146ECBEC30F0020EBCEC31F04AC0AE
:1017500027F04BC028F0296A000E2724116E800E56
:101760002820126E100E2920136E000E156E1C0E0E
:10177000146ECBEC30F0020EBCEC31F04AC027F016
:101780004BC028F0296A000E2724116E800E2820F5
:10179000126E100E2920136E000E156E000E146EC0
:1017A000CBEC30F0020EBCEC31F04AC027F04BC05D
:1017B00028F0296A000E2724166E800E2820176E46
:1017C000100E2920186E700E196E0F0E1A6E81EC15
:1017D0002EF0BCEC31F00C0E1E6EFF0E1F6EFF0ED5
:1017E000206EFF0E216E06EC31F04AC027F04BC090
:1017F00028F0296A000E2724116E800E2820126E10
:10180000100E2920136E000E156EA00E146ECBEC78
:1018100030F0020EBCEC31F04AC027F04BC028F08B
:10182000296A000E2724116E800E2820126E100ED9
:101830002920136E000E156E820E146ECBEC30F064
:10184000020EBCEC31F04AC027F04BC028F0296AE8
:10185000000E2724116E800E2820126E100E2920F3
:10186000136E000E156E1C0E146ECBEC30F0020ED3
:10187000BCEC31F04AC027F04BC028F0296A000EBA
:101880002724116E800E2820126E100E2920136E50
:10189000000E156E000E146ECBEC30F0020EBCEC98
:1018A00031F04AC027F04BC028F0296A000E2724E7
:1018B000166E800E2820176E100E2920186E790ED5
:1018C000196E0F0E1A6E81EC2EF0BCEC31F00C0E7E
:1018D0001E6EFF0E1F6EFF0E206EFF0E216E06ECB9
:1018E00031F04AC027F04BC028F0296A000E2724A7
:1018F000116E800E2820126E100E2920136E000E1D
:10190000156E9B0E146ECBEC30F0020EBCEC31F079
:101910004AC027F04BC028F0296A000E2724116E18
:10192000800E2820126E100E2920136E000E156EE8
:101930005C0E146ECBEC30F0020EBCEC31F04AC001
:1019400027F04BC028F0296A000E2724116E800E64
:101950002820126E100E2920136E000E156E1C0E1C
:10196000146ECBEC30F0020EBCEC31F04AC027F024
:101970004BC028F0296A000E2724116E800E282003
:10198000126E100E2920136E000E156E000E146ECE
:10199000CBEC30F0020EBCEC31F04AC027F04BC06B
:1019A00028F0296A000E2724166E800E2820176E54
:1019B000100E2920186E7B0E196E0F0E1A6E81EC18
:1019C0002EF0BCEC31F00C0E1E6EFF0E1F6EFF0EE3
:1019D000206EFF0E216E06EC31F04AC027F04BC09E
:1019E00028F0296A000E2724116E800E2820126E1E
:1019F000100E2920136E000E156EAB0E146ECBEC7C
:101A000030F0020EBCEC31F04AC027F04BC028F099
:101A1000296A000E2724116E800E2820126E100EE7
:101A20002920136E000E156E3A0E146ECBEC30F0BA
:101A3000020EBCEC31F04AC027F04BC028F0296AF6
:101A4000000E2724116E800E2820126E100E292001
:101A5000136E000E156E1C0E146ECBEC30F0020EE1
:101A6000BCEC31F04AC027F04BC028F0296A000EC8
:101A70002724116E800E2820126E100E2920136E5E
:101A8000000E156E000E146ECBEC30F0020EBCECA6
:101A900031F04AC027F04BC028F0296A000E2724F5
:101AA000166E800E2820176E100E2920186E7D0EDF
:101AB000196E0F0E1A6E81EC2EF0BCEC31F00C0E8C
:101AC0001E6EFF0E1F6EFF0E206EFF0E216E06ECC7
:101AD00031F04AC027F04BC028F0296A000E2724B5
:101AE000116E800E2820126E100E2920136E000E2B
:101AF000156EC90E146ECBEC30F0020EBCEC31F05A
:101B00004AC027F04BC028F0296A000E2724116E26
:101B1000800E2820126E100E2920136E000E156EF6
:101B2000210E146ECBEC30F0020EBCEC31F04AC04A
:101B300027F04BC028F0296A000E2724116E800E72
:101B40002820126E100E2920136E000E156E1C0E2A
:101B5000146ECBEC30F0020EBCEC31F04AC027F032
:101B60004BC028F0296A000E2724116E800E282011
:101B7000126E100E2920136E000E156E000E146EDC
:101B8000CBEC30F0020EBCEC31F04AC027F04BC079
:101B900028F0296A000E2724166E800E2820176E62
:101BA000100E2920186E7F0E196E0F0E1A6E81EC22
:101BB0002EF0BCEC31F00C0E1E6EFF0E1F6EFF0EF1
:101BC000206EFF0E216E06EC31F04AC027F04BC0AC
:101BD00028F0296A000E2724116E800E2820126E2C
:101BE000100E2920136E000E156EEB0E146ECBEC4A
:101BF00030F0020EBCEC31F04AC027F04BC028F0A8
:101C0000296A000E2724116E800E2820126E100EF5
:101C10002920136E000E156E1A0E146ECBEC30F0E8
:101C2000020EBCEC31F04AC027F04BC028F0296A04
:101C3000000E2724116E800E2820126E100E29200F
:101C4000136E000E156E1C0E146ECBEC30F0020EEF
:101C5000BCEC31F04AC027F04BC028F0296A000ED6
:101C60002724116E800E2820126E100E2920136E6C
:101C7000000E156E000E146ECBEC30F0020EBCECB4
:101C800031F04AC027F04BC028F0296A000E272403
:101C9000166E800E2820176E100E2920186E810EE9
:101CA000196E0F0E1A6E81EC2EF0BCEC31F00C0E9A
:101CB0001E6EFF0E1F6EFF0E206EFF0E216E06ECD5
:101CC00031F04AC027F04BC028F0296A000E2724C3
:101CD000116E800E2820126E100E2920136E010E38
:101CE000156E0D0E146ECBEC30F0020EBCEC31F024
:101CF0004AC027F04BC028F0296A000E2724116E35
:101D0000800E2820126E100E2920136E000E156E04
:101D1000210E146ECBEC30F0020EBCEC31F04AC058
:101D200027F04BC028F0296A000E2724116E800E80
:101D30002820126E100E2920136E000E156E1C0E38
:101D4000146ECBEC30F0020EBCEC31F04AC027F040
:101D50004BC028F0296A000E2724116E800E28201F
:101D6000126E100E2920136E000E156E000E146EEA
:101D7000CBEC30F0020EBCEC31F04AC027F04BC087
:101D800028F0296A000E2724166E800E2820176E70
:101D9000100E2920186E830E196E0F0E1A6E81EC2C
:101DA0002EF0BCEC31F00C0E1E6EFF0E1F6EFF0EFF
:101DB000206EFF0E216E06EC31F04AC027F04BC0BA
:101DC00028F0296A000E2724116E800E2820126E3A
:101DD000100E2920136E010E156E2A0E146ECBEC18
:101DE00030F0020EBCEC31F04AC027F04BC028F0B6
:101DF000296A000E2724116E800E2820126E100E04
:101E00002920136E000E156E3A0E146ECBEC30F0D6
:101E1000020EBCEC31F04AC027F04BC028F0296A12
:101E2000000E2724116E800E2820126E100E29201D
:101E3000136E000E156E1C0E146ECBEC30F0020EFD
:101E4000BCEC31F04AC027F04BC028F0296A000EE4
:101E50002724116E800E2820126E100E2920136E7A
:101E6000000E156E000E146ECBEC30F0020EBCECC2
:101E700031F04AC027F04BC028F0296A000E272411
:101E8000166E800E2820176E100E2920186E850EF3
:101E9000196E0F0E1A6E81EC2EF0BCEC31F00C0EA8
:101EA0001E6EFF0E1F6EFF0E206EFF0E216E06ECE3
:101EB00031F04AC027F04BC028F0296A000E2724D1
:101EC000116E800E2820126E100E2920136E010E46
:101ED000156E2D0E146ECBEC30F0020EBCEC31F012
:101EE0004AC027F04BC028F0296A000E2724116E43
:101EF000800E2820126E100E2920136E000E156E13
:101F00005C0E146ECBEC30F0020EBCEC31F04AC02B
:101F100027F04BC028F0296A000E2724116E800E8E
:101F20002820126E100E2920136E000E156E1C0E46
:101F3000146ECBEC30F0020EBCEC31F04AC027F04E
:101F40004BC028F0296A000E2724116E800E28202D
:101F5000126E100E2920136E000E156E000E146EF8
:101F6000CBEC30F0020EBCEC31F04AC027F04BC095
:101F700028F0296A000E2724166E800E2820176E7E
:101F8000100E2920186E690E196E0F0E1A6E81EC54
:101F90002EF0BCEC31F00C0E1E6EFF0E1F6EFF0E0D
:101FA000206EFF0E216E06EC31F04AC027F04BC0C8
:101FB00028F0296A000E2724116E800E2820126E48
:101FC000100E2920136E010E156E2B0E146ECBEC25
:101FD00030F0020EBCEC31F04AC027F04BC028F0C4
:101FE000296A000E2724116E800E2820126E100E12
:101FF0002920136E000E156E820E146ECBEC30F09D
:10200000020EBCEC31F04AC027F04BC028F0296A20
:10201000000E2724116E800E2820126E100E29202B
:10202000136E000E156E1C0E146ECBEC30F0020E0B
:10203000BCEC31F04AC027F04BC028F0296A000EF2
:102040002724116E800E2820126E100E2920136E88
:10205000000E156E000E146ECBEC30F0020EBCECD0
:1020600031F04AC027F04BC028F0296A000E27241F
:10207000166E800E2820176E100E2920186E6C0E1A
:10208000196E0F0E1A6E81EC2EF0BCEC31F00C0EB6
:102090001E6EFF0E1F6EFF0E206EFF0E216E06ECF1
:1020A00031F04AC027F04BC028F0296A000E2724DF
:1020B000116E800E2820126E100E2920136E010E54
:1020C000156E120E146ECBEC30F0020EBCEC31F03B
:1020D0004AC027F04BC028F0296A000E2724116E51
:1020E000800E2820126E100E2920136E000E156E21
:1020F000A10E146ECBEC30F0020EBCEC31F04AC0F5
:1021000027F04BC028F0296A000E2724116E800E9C
:102110002820126E100E2920136E000E156E1C0E54
:10212000146ECBEC30F0020EBCEC31F04AC027F05C
:102130004BC028F0296A000E2724116E800E28203B
:10214000126E100E2920136E000E156E000E146E06
:10215000CBEC30F0020EBCEC31F04AC027F04BC0A3
:1021600028F0296A000E2724166E800E2820176E8C
:10217000100E2920186E6F0E196E0F0E1A6E81EC5C
:102180002EF0BCEC31F00C0E1E6EFF0E1F6EFF0E1B
:10219000206EFF0E216E06EC31F04AC027F04BC0D6
:1021A00028F0296A000E2724116E800E2820126E56
:1021B000100E2920136E000E156EF10E146ECBEC6E
:1021C00030F0020EBCEC31F04AC027F04BC028F0D2
:1021D000296A000E2724116E800E2820126E100E20
:1021E0002920136E000E156E720E146ECBEC30F0BB
:1021F000020EBCEC31F04AC027F04BC028F0296A2F
:10220000000E2724116E800E2820126E100E292039
:10221000136E000E156E1F0E146ECBEC30F0020E16
:10222000BCEC31F04AC027F04BC028F0296A000E00
:102230002724116E800E2820126E100E2920136E96
:10224000060E156E000E146ECBEC30F0020EBCECD8
:1022500031F04AC027F04BC028F0296A000E27242D
:10226000166E800E2820176E100E2920186E770E1D
:10227000196E0F0E1A6E81EC2EF0BCEC31F00C0EC4
:102280001E6EFF0E1F6EFF0E206EFF0E216E06ECFF
:1022900031F04AC027F04BC028F0296A000E2724ED
:1022A000116E800E2820126E100E2920136E010E62
:1022B000156E0B0E146ECBEC30F0020EBCEC31F050
:1022C0004AC027F04BC028F0296A000E2724116E5F
:1022D000800E2820126E100E2920136E000E156E2F
:1022E0006C0E146ECBEC30F0020EBCEC31F04AC038
:1022F00027F04BC028F0296A000E2724116E800EAB
:102300002820126E100E2920136E000E156E1C0E62
:10231000146ECBEC30F0020EBCEC31F04AC027F06A
:102320004BC028F0296A000E2724116E800E282049
:10233000126E100E2920136E000E156E000E146E14
:10234000CBEC30F0020EBCEC31F04AC027F04BC0B1
:1023500028F0296A000E2724166E800E2820176E9A
:10236000100E2920186E890E196E0F0E1A6E81EC50
:102370002EF0BCEC31F00C0E1E6EFF0E1F6EFF0E29
:10238000206EFF0E216E06EC31F04AC027F04BC0E4
:1023900028F0296A000E2724116E800E2820126E64
:1023A000100E2920136E000E156EE30E146ECBEC8A
:1023B00030F0020EBCEC31F04AC027F04BC028F0E0
:1023C000296A000E2724116E800E2820126E100E2E
:1023D0002920136E000E156E840E146ECBEC30F0B7
:1023E000020EBCEC31F04AC027F04BC028F0296A3D
:1023F000000E2724116E800E2820126E100E292048
:10240000136E000E156E1A0E146ECBEC30F0020E29
:10241000BCEC31F04AC027F04BC028F0296A000E0E
:102420002724116E800E2820126E100E2920136EA4
:10243000000E156E000E146ECBEC30F0020EBCECEC
:1024400031F04AC027F04BC028F0296A000E27243B
:10245000166E800E2820176E100E2920186E610E41
:10246000196E0F0E1A6E81EC2EF0BCEC31F01200DA
:10247000000E1E6E000E1F6EFF0E206E040E216EEB
:1024800006EC31F0080E1E6E000E1F6E000E206E60
:102490001F0E216E06EC31F0000E1E6E800E1F6EB8
:1024A0000C0E206E800E216E06EC31F0000E1E6EBA
:1024B000800E1F6E6C0E206E970E216E06EC31F0B2
:1024C000000E1E6ED00E1F6E0A0E206E9B0E216E29
:1024D00006EC31F0000E1E6ED00E1F6EEA0E206E5E
:1024E000A00E216E06EC31F0000E1E6E800E1F6EE7
:1024F0008C0E206EA40E216E06EC31F0000E1E6EC6
:10250000800E1F6E0C0E206EBC0E216E06EC31F09C
:10251000000E1E6E000E1F6E000E206E040E216E49
:1025200006EC31F0080E1E6E000E1F6E000E206EBF
:102530001F0E216E06EC31F0000E1E6ED00E1F6EC7
:102540000C0E206E800E216E06EC31F0000E1E6E19
:10255000C00E1F6EAC0E206E970E216E06EC31F091
:10256000000E1E6E100E1F6E2B0E206E9B0E216E27
:1025700006EC31F0000E1E6E100E1F6EAB0E206EBC
:10258000A00E216E06EC31F0000E1E6EC00E1F6E06
:102590002C0E206EA40E216E06EC31F0000E1E6E85
:1025A000D00E1F6E6C0E206EBC0E216E06EC31F04C
:1025B000000E1E6E7D0E1F6EFF0E206E040E216E2D
:1025C00006EC31F00C0E1E6EFF0E1F6EFF0E206E1D
:1025D000FF0E216E06EC31F04AC035F04BC036F0EC
:1025E000376A000E3524116E800E3620126E100EE2
:1025F0003720136E000E156E050E146ECBEC30F006
:10260000020EBCEC31F04AC035F04BC036F0376AF0
:10261000000E3524116E800E3620126E100E3720FB
:10262000136E000E156ECF0E146ECBEC30F0020E52
:10263000BCEC31F04AC035F04BC036F0376A000EC2
:102640003524116E800E3620126E100E3720136E58
:10265000000E156E1B0E146ECBEC30F0020EBCECAF
:1026600031F04AC035F04BC036F0376A000E3524E1
:10267000116E800E3620126E100E3720136E000E73
:10268000156E000E146ECBEC30F0020EBCEC31F087
:102690004AC035F04BC036F0376A000E3524166E4E
:1026A000800E3620176E100E3720186E4A0E196EE7
:1026B0000F0E1A6E81EC2EF0BCEC31F02E0E1E6E59
:1026C000FF0E1F6EFF0E206EFF0E216E06EC31F026
:1026D0004AC035F04BC036F0376A000E3524116E13
:1026E000800E3620126E100E3720136E000E156EFF
:1026F000420E146ECBEC30F0020EBCEC31F04AC04E
:1027000035F04BC036F0376A000E3524116E800E5E
:102710003620126E100E3720136E000E156ED90E75
:10272000146ECBEC30F0020EBCEC31F04AC035F048
:102730004BC036F0376A000E3524116E800E3620FD
:10274000126E100E3720136E000E156E1B0E146ED7
:10275000CBEC30F0020EBCEC31F04AC035F04BC08F
:1027600036F0376A000E3524116E800E3620126E58
:10277000100E3720136E060E156E000E146ECBEC85
:1027800030F0020EBCEC31F031C01EF032C01FF050
:10279000000E1FBEFF0E206E216E06EC31F00C0EF7
:1027A0001E6EFF0E1F6EFF0E206EFF0E216E06ECDA
:1027B00031F04AC035F04BC036F0376A000E352490
:1027C000116E800E3620126E100E3720136E010E21
:1027D000156EC00E146ECBEC30F0020EBCEC31F076
:1027E0004AC035F04BC036F0376A000E3524116E02
:1027F000800E3620126E100E3720136E000E156EEE
:10280000CF0E146ECBEC30F0020EBCEC31F04AC0AF
:1028100035F04BC036F0376A000E3524116E800E4D
:102820003620126E100E3720136E000E156E1B0E22
:10283000146ECBEC30F0020EBCEC31F04AC035F037
:102840004BC036F0376A000E3524116E800E3620EC
:10285000126E100E3720136E080E156E000E146ED9
:10286000CBEC30F0020EBCEC31F04AC035F04BC07E
:1028700036F0376A000E3524166E800E3620176E3D
:10288000100E3720186E4F0E196E0F0E1A6E81EC57
:102890002EF0BCEC31F02E0E1E6EFF0E1F6EFF0EE2
:1028A000206EFF0E216E06EC31F04AC035F04BC0B1
:1028B00036F0376A000E3524116E800E3620126E07
:1028C000100E3720136E010E156EDB0E146ECBEC5E
:1028D00030F0020EBCEC31F04AC035F04BC036F09F
:1028E000376A000E3524116E800E3620126E100EDF
:1028F0003720136E000E156ECF0E146ECBEC30F039
:10290000020EBCEC31F04AC035F04BC036F0376AED
:10291000000E3524116E800E3620126E100E3720F8
:10292000136E000E156E1B0E146ECBEC30F0020E03
:10293000BCEC31F04AC035F04BC036F0376A000EBF
:102940003524116E800E3620126E100E3720136E55
:10295000080E156E000E146ECBEC30F0020EBCECBF
:1029600031F033C01EF034C01FF0000E1FBEFF0E4A
:10297000206E216E06EC31F00C0E1E6EFF0E1F6EE7
:10298000FF0E206EFF0E216E06EC31F04AC035F0CE
:102990004BC036F0376A000E3524116E800E36209B
:1029A000126E100E3720136E000E156EF00E146EA0
:1029B000CBEC30F0020EBCEC31F04AC035F04BC02D
:1029C00036F0376A000E3524116E800E3620126EF6
:1029D000100E3720136E000E156EA50E146ECBEC84
:1029E00030F0020EBCEC31F04AC035F04BC036F08E
:1029F000376A000E3524116E800E3620126E100ECE
:102A00003720136E000E156E1B0E146ECBEC30F0DB
:102A1000020EBCEC31F04AC035F04BC036F0376ADC
:102A2000000E3524116E800E3620126E100E3720E7
:102A3000136E060E156E000E146ECBEC30F0020E07
:102A4000BCEC31F04AC035F04BC036F0376A000EAE
:102A50003524166E800E3620176E100E3720186E35
:102A6000650E196E0F0E1A6E81EC2EF0BCEC31F073
:102A70002E0E1E6EFF0E1F6EFF0E206EFF0E216EBD
:102A800006EC31F04AC035F04BC036F0376A000E24
:102A90003524116E800E3620126E100E3720136E04
:102AA000000E156EF00E146ECBEC30F0020EBCEC86
:102AB00031F04AC035F04BC036F0376A000E35248D
:102AC000116E800E3620126E100E3720136E000E1F
:102AD000156EBE0E146ECBEC30F0020EBCEC31F075
:102AE0004AC035F04BC036F0376A000E3524116EFF
:102AF000800E3620126E100E3720136E000E156EEB
:102B00001D0E146ECBEC30F0020EBCEC31F04AC05E
:102B100035F04BC036F0376A000E3524116E800E4A
:102B20003620126E100E3720136E060E156E000E34
:102B3000146ECBEC30F0020EBCEC31F0010E3124FF
:102B4000356E000E3220366E35C01EF036C01FF0D6
:102B5000000E1FBEFF0E206E216E06EC31F0FF0E40
:102B60001E6EFF0E1F6EFF0E206E040E216E06EC11
:102B700031F02E0E1E6EFF0E1F6EFF0E206EFF0E2A
:102B8000216E06EC31F04AC035F04BC036F0376AA2
:102B9000000E3524116E800E3620126E100E372076
:102BA000136E000E156E240E146ECBEC30F0020E78
:102BB000BCEC31F04AC035F04BC036F0376A000E3D
:102BC0003524116E800E3620126E100E3720136ED3
:102BD000000E156EDE0E146ECBEC30F0020EBCEC67
:102BE00031F04AC035F04BC036F0376A000E35245C
:102BF000116E800E3620126E100E3720136E000EEE
:102C0000156E1E0E146ECBEC30F0020EBCEC31F0E3
:102C10004AC035F04BC036F0376A000E3524116ECD
:102C2000800E3620126E100E3720136E080E156EB1
:102C3000000E146ECBEC30F0020EBCEC31F02DC067
:102C40001EF02EC01FF0000E1FBEFF0E206E216E64
:102C500006EC31F00C0E1E6EFF0E1F6EFF0E206E86
:102C6000FF0E216E06EC31F04AC035F04BC036F055
:102C7000376A000E3524116E800E3620126E100E4B
:102C80003720136E000E156E270E146ECBEC30F04D
:102C9000020EBCEC31F04AC035F04BC036F0376A5A
:102CA000000E3524116E800E3620126E100E372065
:102CB000136E000E156EEE0E146ECBEC30F0020E9D
:102CC000BCEC31F04AC035F04BC036F0376A000E2C
:102CD0003524116E800E3620126E100E3720136EC2
:102CE000000E156E1C0E146ECBEC30F0020EBCEC18
:102CF00031F04AC035F04BC036F0376A000E35244B
:102D0000116E800E3620126E100E3720136E060ED6
:102D1000156E000E146ECBEC30F0020EBCEC31F0F0
:102D20004AC035F04BC036F0376A000E3524166EB7
:102D3000800E3620176E100E3720186E870E196E13
:102D40000F0E1A6E81EC2EF0BCEC31F02E0E1E6EC2
:102D5000FF0E1F6EFF0E206EFF0E216E06EC31F08F
:102D60004AC035F04BC036F0376A000E3524116E7C
:102D7000800E3620126E100E3720136E000E156E68
:102D80002A0E146ECBEC30F0020EBCEC31F04AC0CF
:102D900035F04BC036F0376A000E3524116E800EC8
:102DA0003620126E100E3720136E000E156EDE0EDA
:102DB000146ECBEC30F0020EBCEC31F04AC035F0B2
:102DC0004BC036F0376A000E3524116E800E362067
:102DD000126E100E3720136E000E156E1E0E146E3E
:102DE000CBEC30F0020EBCEC31F04AC035F04BC0F9
:102DF00036F0376A000E3524116E800E3620126EC2
:102E0000100E3720136E000E156E020E146ECBECF2
:102E100030F0020EBCEC31F02FC01EF030C01FF0BD
:102E2000000E1FBEFF0E206E216E06EC31F02E0E3E
:102E30001E6EFF0E1F6EFF0E206EFF0E216E06EC43
:102E400031F04AC035F04BC036F0376A000E3524F9
:102E5000116E800E3620126E100E3720136E010E8A
:102E6000156EB20E146ECBEC30F0020EBCEC31F0ED
:102E70004AC035F04BC036F0376A000E3524116E6B
:102E8000800E3620126E100E3720136E000E156E57
:102E9000DE0E146ECBEC30F0020EBCEC31F04AC00A
:102EA00035F04BC036F0376A000E3524116E800EB7
:102EB0003620126E100E3720136E000E156E1E0E89
:102EC000146ECBEC30F0020EBCEC31F04AC035F0A1
:102ED0004BC036F0376A000E3524116E800E362056
:102EE000126E100E3720136E080E156E000E146E43
:102EF000CBEC30F0020EBCEC31F029C01EF02AC041
:102F00001FF0000E1FBEFF0E206E216E06EC31F08A
:102F10000C0E1E6EFF0E1F6EFF0E206EFF0E216E3A
:102F200006EC31F04AC035F04BC036F0376A000E7F
:102F30003524116E800E3620126E100E3720136E5F
:102F4000010E156EB50E146ECBEC30F0020EBCEC1B
:102F500031F04AC035F04BC036F0376A000E3524E8
:102F6000116E800E3620126E100E3720136E000E7A
:102F7000156EEF0E146ECBEC30F0020EBCEC31F09F
:102F80004AC035F04BC036F0376A000E3524116E5A
:102F9000800E3620126E100E3720136E000E156E46
:102FA0001C0E146ECBEC30F0020EBCEC31F04AC0BB
:102FB00035F04BC036F0376A000E3524116E800EA6
:102FC0003620126E100E3720136E060E156E000E90
:102FD000146ECBEC30F0020EBCEC31F04AC035F090
:102FE0004BC036F0376A000E3524166E800E362040
:102FF000176E100E3720186E870E196E0F0E1A6E90
:1030000081EC2EF0BCEC31F02E0E1E6EFF0E1F6E0A
:10301000FF0E206EFF0E216E06EC31F04AC035F037
:103020004BC036F0376A000E3524116E800E362004
:10303000126E100E3720136E010E156EB80E146E40
:10304000CBEC30F0020EBCEC31F04AC035F04BC096
:1030500036F0376A000E3524116E800E3620126E5F
:10306000100E3720136E000E156EDE0E146ECBECB4
:1030700030F0020EBCEC31F04AC035F04BC036F0F7
:10308000376A000E3524116E800E3620126E100E37
:103090003720136E000E156E1E0E146ECBEC30F042
:1030A000020EBCEC31F04AC035F04BC036F0376A46
:1030B000000E3524116E800E3620126E100E372051
:1030C000136E000E156E020E146ECBEC30F0020E75
:1030D000BCEC31F02BC01EF02CC01FF0000E1FBE48
:1030E000FF0E206E216E06EC31F02E0E1E6EFF0ECE
:1030F0001F6EFF0E206EFF0E216E06EC31F04AC0EF
:1031000035F04BC036F0376A000E3524116E800E54
:103110003620126E100E3720136E000E156EE90E5B
:10312000146ECBEC30F0020EBCEC31F04AC035F03E
:103130004BC036F0376A000E3524116E800E3620F3
:10314000126E100E3720136E000E156EEB0E146EFD
:10315000CBEC30F0020EBCEC31F04AC035F04BC085
:1031600036F0376A000E3524116E800E3620126E4E
:10317000100E3720136E000E156E1E0E146ECBEC63
:1031800030F0020EBCEC31F04AC035F04BC036F0E6
:10319000376A000E3524116E800E3620126E100E26
:1031A0003720136E080E156E000E146ECBEC30F047
:1031B000020EBCEC31F025C01EF026C01FF0000E40
:1031C0001FBEFF0E206E216E06EC31F00C0E1E6E3F
:1031D000FF0E1F6EFF0E206EFF0E216E06EC31F00B
:1031E0004AC035F04BC036F0376A000E3524116EF8
:1031F000800E3620126E100E3720136E000E156EE4
:10320000ED0E146ECBEC30F0020EBCEC31F04AC087
:1032100035F04BC036F0376A000E3524116E800E43
:103220003620126E100E3720136E000E156EFC0E37
:10323000146ECBEC30F0020EBCEC31F04AC035F02D
:103240004BC036F0376A000E3524116E800E3620E2
:10325000126E100E3720136E000E156E1C0E146EBB
:10326000CBEC30F0020EBCEC31F04AC035F04BC074
:1032700036F0376A000E3524116E800E3620126E3D
:10328000100E3720136E060E156E000E146ECBEC6A
:1032900030F0020EBCEC31F04AC035F04BC036F0D5
:1032A000376A000E3524166E800E3620176E100E0B
:1032B0003720186E870E196E0F0E1A6E81EC2EF0E5
:1032C000BCEC31F02E0E1E6EFF0E1F6EFF0E206E38
:1032D000FF0E216E06EC31F04AC035F04BC036F0DF
:1032E000376A000E3524116E800E3620126E100ED5
:1032F0003720136E000E156EF00E146ECBEC30F00E
:10330000020EBCEC31F04AC035F04BC036F0376AE3
:10331000000E3524116E800E3620126E100E3720EE
:10332000136E000E156EEB0E146ECBEC30F0020E29
:10333000BCEC31F04AC035F04BC036F0376A000EB5
:103340003524116E800E3620126E100E3720136E4B
:10335000000E156E1E0E146ECBEC30F0020EBCEC9F
:1033600031F04AC035F04BC036F0376A000E3524D4
:10337000116E800E3620126E100E3720136E000E66
:10338000156E020E146ECBEC30F0020EBCEC31F078
:1033900027C01EF028C01FF0000E1FBEFF0E206EBB
:1033A000216E06EC31F01200000E296E050E286E1B
:1033B000FF0E1E6EFF0E1F6EFF0E206E040E216E9E
:1033C00006EC31F00C0E1E6EFF0E1F6EFF0E206E0F
:1033D000FF0E216E06EC31F04AC025F04BC026F0FE
:1033E000276A000E2524116E800E2620126E100E04
:1033F0002720136E000E156E050E146ECBEC30F008
:10340000020EBCEC31F04AC025F04BC026F0276A12
:10341000000E2524116E800E2620126E100E27201D
:10342000136E28C014F029C015F0CBEC30F0020E5A
:10343000BCEC31F04AC025F04BC026F0276A000EE4
:103440002524116E800E2620126E100E2720136E7A
:10345000000E156E1A0E146ECBEC30F0020EBCECA2
:1034600031F04AC025F04BC026F0276A000E252413
:10347000116E800E2620126E100E2720136E000E85
:10348000156E000E146ECBEC30F0020EBCEC31F079
:103490004AC025F04BC026F0276A000E2524166E80
:1034A000800E2620176E100E2720186E230E196E20
:1034B0000F0E1A6E81EC2EF0BCEC31F00C0E1E6E6D
:1034C000FF0E1F6EFF0E206EFF0E216E06EC31F018
:1034D0004AC025F04BC026F0276A000E2524116E45
:1034E000800E2620126E100E2720136E000E156E11
:1034F000050E146ECBEC30F0020EBCEC31F04AC07D
:1035000025F04BC026F0276A000E2524116E800E90
:103510002620126E100E2720136E0F0E2826000E86
:10352000292228C014F029C015F0CBEC30F0020E8F
:10353000BCEC31F04AC025F04BC026F0276A000EE3
:103540002524116E800E2620126E100E2720136E79
:10355000000E156E1A0E146ECBEC30F0020EBCECA1
:1035600031F04AC025F04BC026F0276A000E252412
:10357000116E800E2620126E100E2720136E000E84
:10358000156E000E146ECBEC30F0020EBCEC31F078
:103590004AC025F04BC026F0276A000E2524166E7F
:1035A000800E2620176E100E2720186E450E196EFD
:1035B0000F0E1A6E81EC2EF0BCEC31F00C0E1E6E6C
:1035C000FF0E1F6EFF0E206EFF0E216E06EC31F017
:1035D0004AC025F04BC026F0276A000E2524116E44
:1035E000800E2620126E100E2720136E000E156E10
:1035F000050E146ECBEC30F0020EBCEC31F04AC07C
:1036000025F04BC026F0276A000E2524116E800E8F
:103610002620126E100E2720136E190E2826000E7B
:10362000292228C014F029C015F0CBEC30F0020E8E
:10363000BCEC31F04AC025F04BC026F0276A000EE2
:103640002524116E800E2620126E100E2720136E78
:10365000000E156E1A0E146ECBEC30F0020EBCECA0
:1036600031F04AC025F04BC026F0276A000E252411
:10367000116E800E2620126E100E2720136E000E83
:10368000156E000E146ECBEC30F0020EBCEC31F077
:103690004AC025F04BC026F0276A000E2524166E7E
:1036A000800E2620176E100E2720186E5D0E196EE4
:1036B0000F0E1A6E81EC2EF0BCEC31F00C0E1E6E6B
:1036C000FF0E1F6EFF0E206EFF0E216E06EC31F016
:1036D0004AC025F04BC026F0276A000E2524116E43
:1036E000800E2620126E100E2720136E000E156E0F
:1036F000050E146ECBEC30F0020EBCEC31F04AC07B
:1037000025F04BC026F0276A000E2524116E800E8E
:103710002620126E100E2720136E0F0E2826000E84
:10372000292228C014F029C015F0CBEC30F0020E8D
:10373000BCEC31F04AC025F04BC026F0276A000EE1
:103740002524116E800E2620126E100E2720136E77
:10375000000E156E1A0E146ECBEC30F0020EBCEC9F
:1037600031F04AC025F04BC026F0276A000E252410
:10377000116E800E2620126E100E2720136E000E82
:10378000156E000E146ECBEC30F0020EBCEC31F076
:103790004AC025F04BC026F0276A000E2524166E7D
:1037A000800E2620176E100E2720186E450E196EFB
:1037B0000F0E1A6E81EC2EF0BCEC31F00C0E1E6E6A
:1037C000FF0E1F6EFF0E206EFF0E216E06EC31F015
:1037D0004AC025F04BC026F0276A000E2524116E42
:1037E000800E2620126E100E2720136E000E156E0E
:1037F000050E146ECBEC30F0020EBCEC31F04AC07A
:1038000025F04BC026F0276A000E2524116E800E8D
:103810002620126E100E2720136E190E2826000E79
:10382000292228C014F029C015F0CBEC30F0020E8C
:10383000BCEC31F04AC025F04BC026F0276A000EE0
:103840002524116E800E2620126E100E2720136E76
:10385000000E156E1A0E146ECBEC30F0020EBCEC9E
:1038600031F04AC025F04BC026F0276A000E25240F
:10387000116E800E2620126E100E2720136E000E81
:10388000156E000E146ECBEC30F0020EBCEC31F075
:103890004AC025F04BC026F0276A000E2524166E7C
:1038A000800E2620176E100E2720186E400E196EFF
:1038B0000F0E1A6E81EC2EF0BCEC31F00C0E1E6E69
:1038C000FF0E1F6EFF0E206EFF0E216E06EC31F014
:1038D0004AC025F04BC026F0276A000E2524116E41
:1038E000800E2620126E100E2720136E000E156E0D
:1038F000050E146ECBEC30F0020EBCEC31F04AC079
:1039000025F04BC026F0276A000E2524116E800E8C
:103910002620126E100E2720136E0F0E2826000E82
:10392000292228C014F029C015F0CBEC30F0020E8B
:10393000BCEC31F04AC025F04BC026F0276A000EDF
:103940002524116E800E2620126E100E2720136E75
:10395000000E156E1A0E146ECBEC30F0020EBCEC9D
:1039600031F04AC025F04BC026F0276A000E25240E
:10397000116E800E2620126E100E2720136E000E80
:10398000156E000E146ECBEC30F0020EBCEC31F074
:103990004AC025F04BC026F0276A000E2524166E7B
:1039A000800E2620176E100E2720186E290E196E15
:1039B0000F0E1A6E81EC2EF0BCEC31F00C0E1E6E68
:1039C000FF0E1F6EFF0E206EFF0E216E06EC31F013
:1039D0004AC025F04BC026F0276A000E2524116E40
:1039E000800E2620126E100E2720136E000E156E0C
:1039F000050E146ECBEC30F0020EBCEC31F04AC078
:103A000025F04BC026F0276A000E2524116E800E8B
:103A10002620126E100E2720136E190E2826000E77
:103A2000292228C014F029C015F0CBEC30F0020E8A
:103A3000BCEC31F04AC025F04BC026F0276A000EDE
:103A40002524116E800E2620126E100E2720136E74
:103A5000000E156E1A0E146ECBEC30F0020EBCEC9C
:103A600031F04AC025F04BC026F0276A000E25240D
:103A7000116E800E2620126E100E2720136E000E7F
:103A8000156E000E146ECBEC30F0020EBCEC31F073
:103A90004AC025F04BC026F0276A000E2524166E7A
:103AA000800E2620176E100E2720186E540E196EE9
:103AB0000F0E1A6E81EC2EF0BCEC31F00C0E1E6E67
:103AC000FF0E1F6EFF0E206EFF0E216E06EC31F012
:103AD0004AC025F04BC026F0276A000E2524116E3F
:103AE000800E2620126E100E2720136E000E156E0B
:103AF000050E146ECBEC30F0020EBCEC31F04AC077
:103B000025F04BC026F0276A000E2524116E800E8A
:103B10002620126E100E2720136E0F0E2826000E80
:103B2000292228C014F029C015F0CBEC30F0020E89
:103B3000BCEC31F04AC025F04BC026F0276A000EDD
:103B40002524116E800E2620126E100E2720136E73
:103B5000000E156E1A0E146ECBEC30F0020EBCEC9B
:103B600031F04AC025F04BC026F0276A000E25240C
:103B7000116E800E2620126E100E2720136E000E7E
:103B8000156E000E146ECBEC30F0020EBCEC31F072
:103B90004AC025F04BC026F0276A000E2524166E79
:103BA000800E2620176E100E2720186E2F0E196E0D
:103BB0000F0E1A6E81EC2EF0BCEC31F00C0E1E6E66
:103BC000FF0E1F6EFF0E206EFF0E216E06EC31F011
:103BD0004AC025F04BC026F0276A000E2524116E3E
:103BE000800E2620126E100E2720136E000E156E0A
:103BF000050E146ECBEC30F0020EBCEC31F04AC076
:103C000025F04BC026F0276A000E2524116E800E89
:103C10002620126E100E2720136E190E2826000E75
:103C2000292228C014F029C015F0CBEC30F0020E88
:103C3000BCEC31F04AC025F04BC026F0276A000EDC
:103C40002524116E800E2620126E100E2720136E72
:103C5000000E156E1A0E146ECBEC30F0020EBCEC9A
:103C600031F04AC025F04BC026F0276A000E25240B
:103C7000116E800E2620126E100E2720136E000E7D
:103C8000156E000E146ECBEC30F0020EBCEC31F071
:103C90004AC025F04BC026F0276A000E2524166E78
:103CA000800E2620176E100E2720186E5D0E196EDE
:103CB0000F0E1A6E81EC2EF0BCEC31F00C0E1E6E65
:103CC000FF0E1F6EFF0E206EFF0E216E06EC31F010
:103CD0004AC025F04BC026F0276A000E2524116E3D
:103CE000800E2620126E100E2720136E000E156E09
:103CF000050E146ECBEC30F0020EBCEC31F04AC075
:103D000025F04BC026F0276A000E2524116E800E88
:103D10002620126E100E2720136E0F0E2826000E7E
:103D2000292228C014F029C015F0CBEC30F0020E87
:103D3000BCEC31F04AC025F04BC026F0276A000EDB
:103D40002524116E800E2620126E100E2720136E71
:103D5000000E156E1A0E146ECBEC30F0020EBCEC99
:103D600031F04AC025F04BC026F0276A000E25240A
:103D7000116E800E2620126E100E2720136E000E7C
:103D8000156E000E146ECBEC30F0020EBCEC31F070
:103D90004AC025F04BC026F0276A000E2524166E77
:103DA000800E2620176E100E2720186E290E196E11
:103DB0000F0E1A6E81EC2EF0BCEC31F00C0E1E6E64
:103DC000FF0E1F6EFF0E206EFF0E216E06EC31F00F
:103DD0004AC025F04BC026F0276A000E2524116E3C
:103DE000800E2620126E100E2720136E010E156E07
:103DF000680E146ECBEC30F0020EBCEC31F04AC011
:103E000025F04BC026F0276A000E2524116E800E87
:103E10002620126E100E2720136E000E156E820ED5
:103E2000146ECBEC30F0020EBCEC31F04AC025F041
:103E30004BC026F0276A000E2524116E800E262026
:103E4000126E100E2720136E000E156E1A0E146ED1
:103E5000CBEC30F0020EBCEC31F04AC025F04BC088
:103E600026F0276A000E2524116E800E2620126E81
:103E7000100E2720136E000E156E000E146ECBEC84
:103E800030F0020EBCEC31F04AC025F04BC026F0F9
:103E9000276A000E2524166E800E2620176E100E3F
:103EA0002720186E1D0E196E0F0E1A6E81EC2EF063
:103EB000BCEC31F00C0E1E6EFF0E1F6EFF0E206E5E
:103EC000FF0E216E06EC31F04AC025F04BC026F003
:103ED000276A000E2524116E800E2620126E100E09
:103EE0002720136E010E156E680E146ECBEC30F0A9
:103EF000020EBCEC31F04AC025F04BC026F0276A18
:103F0000000E2524116E800E2620126E100E272022
:103F1000136E000E156E910E146ECBEC30F0020E87
:103F2000BCEC31F04AC025F04BC026F0276A000EE9
:103F30002524116E800E2620126E100E2720136E7F
:103F4000000E156E1A0E146ECBEC30F0020EBCECA7
:103F500031F04AC025F04BC026F0276A000E252418
:103F6000116E800E2620126E100E2720136E000E8A
:103F7000156E000E146ECBEC30F0020EBCEC31F07E
:103F80004AC025F04BC026F0276A000E2524166E85
:103F9000800E2620176E100E2720186E590E196EEF
:103FA0000F0E1A6E81EC2EF0BCEC31F00C0E1E6E72
:103FB000FF0E1F6EFF0E206EFF0E216E06EC31F01D
:103FC0004AC025F04BC026F0276A000E2524116E4A
:103FD000800E2620126E100E2720136E010E156E15
:103FE0007C0E146ECBEC30F0020EBCEC31F04AC00B
:103FF00025F04BC026F0276A000E2524116E800E96
:104000002620126E100E2720136E000E156EB40EB1
:10401000146ECBEC30F0020EBCEC31F04AC025F04F
:104020004BC026F0276A000E2524116E800E262034
:10403000126E100E2720136E000E156E1A0E146EDF
:10404000CBEC30F0020EBCEC31F04AC025F04BC096
:1040500026F0276A000E2524116E800E2620126E8F
:10406000100E2720136E000E156E000E146ECBEC92
:1040700030F0020EBCEC31F04AC025F04BC026F007
:10408000276A000E2524166E800E2620176E100E4D
:104090002720186E720E196E0F0E1A6E81EC2EF01C
:1040A000BCEC31F00C0E1E6EFF0E1F6EFF0E206E6C
:1040B000FF0E216E06EC31F04AC025F04BC026F011
:1040C000276A000E2524116E800E2620126E100E17
:1040D0002720136E010E156ECB0E146ECBEC30F054
:1040E000020EBCEC31F04AC025F04BC026F0276A26
:1040F000000E2524116E800E2620126E100E272031
:10410000136E000E156EAE0E146ECBEC30F0020E78
:10411000BCEC31F04AC025F04BC026F0276A000EF7
:104120002524116E800E2620126E100E2720136E8D
:10413000000E156E1C0E146ECBEC30F0020EBCECB3
:1041400031F04AC025F04BC026F0276A000E252426
:10415000116E800E2620126E100E2720136E000E98
:10416000156E000E146ECBEC30F0020EBCEC31F08C
:104170004AC025F04BC026F0276A000E2524166E93
:10418000800E2620176E100E2720186E750E196EE1
:104190000F0E1A6E81EC2EF0BCEC31F0020E1E6E8A
:1041A000000E1F6E000E206E1F0E216E06EC31F009
:1041B000140E1E6E140E1F6E140E206E040E216E51
:1041C00006EC31F0D60E1E6E060E1F6E000E206E2F
:1041D0000D0E216E06EC31F0000E1E6E300E1F6EBD
:1041E000070E206E9E0E216E06EC31F03C0E1E6E08
:1041F0003C0E1F6E3C0E206E040E216E06EC31F05C
:10420000720E1E6E060E1F6E000E206E0D0E216EBB
:1042100006EC31F0000E1E6E300E1F6E070E206E83
:104220009E0E216E06EC31F0120020EE8DF010EEA5
:1042300077F0150EDBCFE3FFE806FCE2000E00018D
:10424000666F000E0001766F000E756F000E0001A4
:10425000686F000E676F000E0001656F000E646FDF
:10426000000E00016A6F000E696F000E00016C6F96
:10427000000E6B6F000E00016E6F000E6D6F000E72
:104280000001706F000E6F6F000E0001726F000E64
:10429000716F000E0001746F000E736FCAEC31F085
:1042A000ADEC31F07080708A709E708C608A609C7A
:1042B000609476907692779A779CC80E0E01E86F9C
:1042C000400E0E01E96F0E01F869DF0E0E01F96F65
:1042D0000E01FC69110E0E01FD6FC79EC78CC68AC8
:1042E000C688C650F00B0209C66EA3EC27F0CAECD4
:1042F00031F0C650F00B0109C66E89928C988990F6
:104300008A8A8C9A8C8675C030F076C031F067C08E
:1043100032F068C033F064C034F065C035F069C075
:1043200036F06AC037F06BC038F06CC039F06DC041
:104330003AF06EC03BF06FC03CF070C03DF071C011
:104340003EF072C03FF073C040F074C041F0C8EC62
:104350002EF02C0E106E640E116E0CEC32F0B20EBC
:10436000106E620E116E11EC32F01AEC32F0F28E19
:10437000F28CA40E236E000E246EF0EC28F00009DF
:10438000D8B473D1400E0001A51958E1060E000102
:10439000A6190001A7110001A811D8A44FD000014F
:1043A000AB51AAC060F00001616B60C061F0000118
:1043B000606B000160110001756F00016151000127
:1043C000766F0001AD51ACC060F00001616B60C060
:1043D00061F00001606B00016011106E000161511D
:1043E000116E000E136E0A0E126E4EEC2FF010C0FE
:1043F00067F011C068F00001AF51AEC060F000017D
:10440000616B60C061F00001606B00016011106EB3
:1044100000016151116E000E136E0A0E126E4EEC09
:104420002FF010C064F011C065F0B0C069F0000159
:104430006A6BB1C06BF000016C6B17D1410E0001CB
:10444000A5190EE1060E0001A6190001A711000131
:10445000A811D8A405D0B0C06DF000016E6B05D1D5
:10446000420E0001A51916E1060E0001A619000171
:10447000A7110001A811D8A40DD0AAC06FF00001A7
:10448000706BABC071F00001726BACC073F00001D7
:10449000746BEBD0430E0001A51950E1060E00012C
:1044A000A6190001A7110001A811D8A447D0AAC0DD
:1044B00060F0050E0001616F0001D89060330001CB
:1044C000612FFAD7895000016019FE0B6019896EBF
:1044D000AAC060F00001603B0F0E60170001603B56
:1044E00060478A5000016019DF0B60198A6EAAC00C
:1044F00060F00001D89060330001D8906033000173
:10450000D890603300016047604760478C500001DD
:104510006019F70B60198C6EAAC060F00001D8908A
:1045200060330001D89060330001603B60478C50DD
:1045300000016019DF0B60198C6E97D0440E0001EA
:10454000A51908E1060E0001A6190001A711000136
:10455000A811D8A48AD00001AB51AAC060F0000114
:10456000616B60C061F00001606B000160110001CF
:104570007F6F000161510001806F0001AD51ACC03F
:1045800060F00001616B60C061F00001606B0001D0
:1045900060110001776F000161510001786F000127
:1045A000AF51AEC060F00001616B60C061F000010E
:1045B000606B000160110001796F00016151000121
:1045C0007A6F7FC010F080C011F0000E136E640E81
:1045D000126E4EEC2FF010C081F011C082F07FC03F
:1045E00018F080C019F0000E1B6E640E1A6ECCEC31
:1045F0002FF018C083F019C084F077C010F078C095
:1046000011F0000E136E640E126E4EEC2FF010C0FF
:104610007BF011C07CF077C018F078C019F0000E64
:104620001B6E640E1A6ECCEC2FF018C07DF019C012
:104630007EF0000185510001775D00017851800A0C
:104640000001606F00018651800A00016059D8B0F6
:104650000CD077C085F078C086F07BC089F07CC034
:104660008AF07DC08BF07EC08CF00001A351D8B4DD
:1046700080D68EEC30F0D4EC19F06FC025F070C00D
:1046800026F058EC2BF071C025F072C026F02BEC10
:104690002DF0000E266E040E256E0FEC2EF073C06A
:1046A00025F074C026F030EC26F067C025F068C015
:1046B00026F09DEC2DF06DC025F06EC026F0BBEC11
:1046C00023F075C025F076C026F0C6EC07F06BC06D
:1046D00025F06CC026F0B9EC2CF069C025F06AC05A
:1046E00026F047EC2CF07BC025F07CC026F07DC086
:1046F00027F07EC028F089C029F08AC02AF08BC03C
:104700002BF08CC02CF081C02DF082C02EF083C025
:104710002FF084C030F079C031F07AC032F087C019
:1047200033F088C034F038EC12F062C025F063C07A
:1047300026F005EC2AF04DEC30F000017551000137
:104740007611D8A40BD0000166510001D8A406D080
:104750001EEC32F0010E0001666F07D01AEC32F049
:10476000000E0001666F89928C98000E0001A36F05
:1047700007EC32F0FED5600E1E6E000E1F6E000EAE
:10478000206E0E0E216E06EC31F0000E1E6E7D0EB8
:104790001F6ECA0E206E040E216E06EC31F0030E61
:1047A0001E6E000E1F6E000E206E1F0E216E06EC98
:1047B00031F037D2000E1E6EF00E1F6E800E206E8E
:1047C000AF0E216E06EC31F0000E1E6E300E1F6E25
:1047D000870E206EAF0E216E06EC31F0000E1E6EBD
:1047E000F00E1F6E800E206EAF0E216E06EC31F0C3
:1047F000000E1E6E300E1F6E870E206EB90E216EDB
:1048000006EC31F0000E1E6E400E1F6E870E206EFD
:10481000B90E216E06EC31F0000E1E6EF00E1F6E0A
:10482000800E206EB90E216E06EC31F01200000EE3
:104830001E6EF00E1F6E800E206EB40E216E06EC02
:1048400031F0000E1E6E300E1F6E870E206EB40EFD
:10485000216E06EC31F0000E1E6EF00E1F6E600E23
:10486000206EB40E216E06EC31F0000E1E6EE00ECE
:104870001F6E010E206EB20E216E06EC31F0000E9E
:104880001E6E400E1F6EA70E206EB20E216E06EC3D
:1048900031F0000E1E6E400E1F6E670E206EB60EBB
:1048A000216E06EC31F01200000E1E6EF00E1F6E2F
:1048B000800E206EAF0E216E06EC31F0000E1E6EE3
:1048C000F00E1F6E800E206EB90E216E06EC31F0D8
:1048D000000E1E6E000E1F6E810E206EB90E216E30
:1048E00006EC31F0000E1E6E000E1F6E840E206E60
:1048F000B90E216E06EC31F0000E1E6E100E1F6E0A
:10490000840E206EB90E216E06EC31F0000E1E6E84
:10491000100E1F6E840E206EAF0E216E06EC31F06D
:10492000000E1E6E200E1F6E840E206EAF0E216EC6
:1049300006EC31F0000E1E6E300E1F6E870E206EDC
:10494000AF0E216E06EC31F0000E1E6E300E1F6EA3
:10495000A70E206EAF0E216E06EC31F0000E1E6E1B
:10496000300E1F6E870E206EB90E216E06EC31F0F0
:104970001200000E1E6EF00E1F6E800E206EAF0E27
:10498000216E06EC31F0000E1E6EF00E1F6E600EF2
:10499000206EB90E216E06EC31F0000E1E6E000E78
:1049A0001F6E810E206EB90E216E06EC31F0000EE6
:1049B0001E6E300E1F6E870E206EB90E216E06EC35
:1049C00031F0000E1E6E100E1F6E640E206EB90EBA
:1049D000216E06EC31F0000E1E6E100E1F6E840E5E
:1049E000206EAF0E216E06EC31F0000E1E6E300E02
:1049F0001F6EA70E206EAF0E216E06EC31F0000E7A
:104A00001E6E300E1F6E670E206EB90E216E06EC04
:104A100031F01200000E1E6EF00E1F6E800E206E22
:104A2000AF0E216E06EC31F0000E1E6E000E1F6EF2
:104A3000840E206EAF0E216E06EC31F0000E1E6E5D
:104A4000000E1F6E810E206EB90E216E06EC31F045
:104A5000000E1E6E300E1F6E870E206EB90E216E78
:104A600006EC31F0000E1E6E100E1F6E240E206E2E
:104A7000B90E216E06EC31F0000E1E6E100E1F6E88
:104A8000A40E206EAF0E216E06EC31F01200000E67
:104A90001E6EF00E1F6E800E206EAF0E216E06ECA5
:104AA00031F0000E1E6EF00E1F6E600E206EB90EFD
:104AB000216E06EC31F0000E1E6E000E1F6E810E90
:104AC000206EAF0E216E06EC31F0000E1E6E000E51
:104AD0001F6E840E206EAF0E216E06EC31F0000EBC
:104AE0001E6E100E1F6E840E206EB90E216E06EC27
:104AF00031F0000E1E6E200E1F6E870E206EB90E56
:104B0000216E06EC31F0000E1E6E100E1F6E240E8C
:104B1000206EB90E216E06EC31F0000E1E6E100EE6
:104B20001F6EA40E206EAF0E216E06EC31F0000E4B
:104B30001E6E300E1F6EA70E206EAF0E216E06EC9D
:104B400031F0000E1E6E300E1F6E670E206EB90E15
:104B5000216E06EC31F01200000E1E6EF00E1F6E7C
:104B6000800E206EAF0E216E06EC31F0000E1E6E30
:104B7000F00E1F6E600E206EB90E216E06EC31F045
:104B8000000E1E6E000E1F6E810E206EAF0E216E87
:104B900006EC31F0000E1E6E300E1F6E870E206E7A
:104BA000AF0E216E06EC31F0000E1E6E100E1F6E61
:104BB000840E206EB90E216E06EC31F0000E1E6ED2
:104BC000200E1F6E870E206EB90E216E06EC31F09E
:104BD000000E1E6E100E1F6E240E206EB90E216E7A
:104BE00006EC31F0000E1E6E100E1F6EA40E206E2D
:104BF000AF0E216E06EC31F0000E1E6E300E1F6EF1
:104C0000A70E206EAF0E216E06EC31F0000E1E6E68
:104C1000300E1F6E670E206EB90E216E06EC31F05D
:104C2000120025C027F026C028F02850000AD8A47A
:104C300012002750000AD8B4BDD5010AD8B4F7D560
:104C4000030AD8B431D6010AD8B493D6070AD8B427
:104C5000E1D6010AD8B41BD7030AD8A412007CD726
:104C60002E0E1E6EFF0E1F6EFF0E206EFF0E216EAB
:104C700006EC31F04AC027F04BC028F0296A000E3C
:104C80002724116E800E2820126E100E2920136E1C
:104C9000000E156E420E146ECBEC30F0020EBCEC22
:104CA00031F04AC027F04BC028F0296A000E2724B3
:104CB000116E800E2820126E100E2920136E000E29
:104CC000156E820E146ECBEC30F0020EBCEC31F09F
:104CD0004AC027F04BC028F0296A000E2724116E25
:104CE000800E2820126E100E2920136E000E156EF5
:104CF0001C0E146ECBEC30F0020EBCEC31F04AC04E
:104D000027F04BC028F0296A000E2724116E800E70
:104D10002820126E100E2920136E000E156E000E44
:104D2000146ECBEC30F0020EBCEC31F025C010F06C
:104D300026C011F0000E136E0A0E126E4EEC2FF00C
:104D400010C01EF011C01FF0000E1FBEFF0E206E1F
:104D5000216E06EC31F00C0E1E6EFF0E1F6EFF0E64
:104D6000206EFF0E216E06EC31F04AC027F04BC0DA
:104D700028F0296A000E2724116E800E2820126E5A
:104D8000100E2920136E000E156E5A0E146ECBEC09
:104D900030F0020EBCEC31F04AC027F04BC028F0D6
:104DA000296A000E2724116E800E2820126E100E24
:104DB0002920136E000E156E830E146ECBEC30F0AE
:104DC000020EBCEC31F04AC027F04BC028F0296A33
:104DD000000E2724116E800E2820126E100E29203E
:104DE000136E000E156E1C0E146ECBEC30F0020E1E
:104DF000BCEC31F04AC027F04BC028F0296A000E05
:104E00002724116E800E2820126E100E2920136E9A
:104E1000000E156E000E146ECBEC30F0020EBCECE2
:104E200031F04AC027F04BC028F0296A000E272431
:104E3000166E800E2820176E100E2920186E770E21
:104E4000196E0F0E1A6E81EC2EF0BCEC31F02E0EA6
:104E50001E6EFF0E1F6EFF0E206EFF0E216E06EC03
:104E600031F04AC027F04BC028F0296A000E2724F1
:104E7000116E800E2820126E100E2920136E000E67
:104E8000156E600E146ECBEC30F0020EBCEC31F0FF
:104E90004AC027F04BC028F0296A000E2724116E63
:104EA000800E2820126E100E2920136E000E156E33
:104EB000820E146ECBEC30F0020EBCEC31F04AC026
:104EC00027F04BC028F0296A000E2724116E800EAF
:104ED0002820126E100E2920136E000E156E1C0E67
:104EE000146ECBEC30F0020EBCEC31F04AC027F06F
:104EF0004BC028F0296A000E2724116E800E28204E
:104F0000126E100E2920136E000E156E000E146E18
:104F1000CBEC30F0020EBCEC31F025C018F026C00E
:104F200019F0000E1B6E0A0E1A6ECCEC2FF018C092
:104F30001EF019C01FF0000E1FBEFF0E206E216E66
:104F400006EC31F012008B92020E1D6EA00E1C6E4C
:104F5000920EE82EFED71C2EFCD71D2EFAD700D0BD
:104F60008B82020E1D6EA00E1C6E920EE82EFED7D6
:104F70001C2EFCD71D2EFAD700D0000ED7EC31F036
:104F8000440ED7EC31F0620ED7EC31F0300E116EDA
:104F9000240E126E100E136E010E156EE00E146EBE
:104FA000CBEC30F0440E116E240E126E100E136E08
:104FB000010E156E100E146ECBEC30F0280E116E33
:104FC000240E126E100E136E020E156E0D0E146E60
:104FD000CBEC30F0340E116E240E126E100E136EE8
:104FE000000E156E000E146ECBEC30F0380E116E04
:104FF000240E126E100E136E000E156E290E146E16
:10500000CBEC30F02C0E116E240E126E100E136EBF
:10501000000E156E2B0E146ECBEC30F03C0E116EA4
:10502000240E126E100E136E010E156E1E0E146EEF
:10503000CBEC30F0480E116E240E126E100E136E73
:10504000000E156E000E146ECBEC30F04C0E116E8F
:10505000240E126E100E136E000E156E0A0E146ED4
:10506000CBEC30F0400E116E240E126E100E136E4B
:10507000000E156E0C0E146ECBEC30F0640E116E3B
:10508000240E126E100E136E000E146E3EEC31F0F4
:105090005C0E116E240E126E100E136E000E146E46
:1050A0003EEC31F0580E116E240E126E100E136E7F
:1050B000010E156EB60E146ECBEC30F0600E116E54
:1050C000240E126E100E136E000E146E3EEC31F0B4
:1050D000680E116E240E126E100E136E000E146EFA
:1050E0003EEC31F0540E116E240E126E100E136E43
:1050F000000E146E3EEC31F0000E116E000E126EBA
:10510000100E136E000E146E1A0E156E000E166E33
:10511000020E176E90EC2FF0040E116E000E126E40
:10512000100E136E070E146E000E156E000E166E26
:10513000260E176E90EC2FF0080E116E000E126EF8
:10514000100E136E000E146E000E156E000E166E0D
:10515000000E176E90EC2FF0500E116E240E126E92
:10516000100E136E020E146E3EEC31F08C0E116EAA
:10517000240E126E100E136EFC0E146E3EEC31F007
:10518000900E116E240E126E100E136EFF0E146E22
:105190003EEC31F06C0E116E240E126E100E136E7A
:1051A000050E146E3EEC31F0E80E116E240E126EF8
:1051B000100E136E04EC30F011C04AF012C04BF028
:1051C000E40E116E240E126E100E136E04EC30F00D
:1051D0004A501118F5E14B501218D8B41200F0D70C
:1051E000000E256E60AE83D062A61ED023C0D9FF0C
:1051F00024C0DAFF020EDF6E64CF10F061CF11F031
:1052000062CF12F06350B4EC2AF020EE01F023508C
:10521000D9262450DA2210C0DEFF11C0DEFF12C0F2
:10522000DEFF13C0DEFF19D023C0D9FF24C0DAFF90
:10523000010EDF6E62CF10F061500BEC2FF020EE0C
:1052400001F02350D9262450DA2210C0DEFF11C00D
:10525000DEFF12C0DEFF13C0DEFF20EE05F023509C
:10526000D9262450DA2265CFDFFF20EE06F0235046
:10527000D9262450DA2266CFDFFF20EE07F0235034
:10528000D9262450DA2267CFDFFF20EE08F0235022
:10529000D9262450DA2268CFDFFF20EE09F0235010
:1052A000D9262450DA2269CFDFFF20EE0AF02350FE
:1052B000D9262450DA226ACFDFFF20EE0BF02350EC
:1052C000D9262450DA226BCFDFFF20EE0CF02350DA
:1052D000D9262450DA226CCFDFFF20EE0DF02350C8
:1052E000D9262450DA226DCFDFFF609E89D00F01CE
:1052F00030AF88D00F0132A71FD023C0D9FF24C000
:10530000DAFF020EDF6E34CF10F031CF11F032CF62
:1053100012F00F013351B4EC2AF020EE01F02350CB
:10532000D9262450DA2210C0DEFF11C0DEFF12C0E1
:10533000DEFF13C0DEFF1AD023C0D9FF24C0DAFF7E
:10534000010EDF6E32CF10F00F0131510BEC2FF058
:1053500020EE01F02350D9262450DA2210C0DEFFBF
:1053600011C0DEFF12C0DEFF13C0DEFF20EE05F02D
:105370002350D9262450DA2235CFDFFF20EE06F065
:105380002350D9262450DA2236CFDFFF20EE07F053
:105390002350D9262450DA2237CFDFFF20EE08F041
:1053A0002350D9262450DA2238CFDFFF20EE09F02F
:1053B0002350D9262450DA2239CFDFFF20EE0AF01D
:1053C0002350D9262450DA223ACFDFFF20EE0BF00B
:1053D0002350D9262450DA223BCFDFFF20EE0CF0F9
:1053E0002350D9262450DA223CCFDFFF20EE0DF0E7
:1053F0002350D9262450DA223DCFDFFF0F01309F02
:10540000010E256E779225501200090E1E6E000EB9
:105410001F6E000E206E1F0E216E06EC31F03C0E4A
:105420001E6E3C0E1F6E3C0E206E040E216E06ECAE
:1054300031F0000E1E6E700E1F6ECD0E206EAB0E84
:10544000216E06EC31F0000E1E6E600E1F6ECE0E49
:10545000206E900E216E06EC31F0FF0E1E6EFF0ED8
:105460001F6EFF0E206E040E216E06EC31F00C0E46
:105470001E6EFF0E1F6EFF0E206EFF0E216E06ECDD
:1054800031F04AC027F04BC028F0296A000E2724CB
:10549000116E800E2820126E100E2920136E000E41
:1054A000156EF00E146ECBEC30F0020EBCEC31F049
:1054B0004AC027F04BC028F0296A000E2724116E3D
:1054C000800E2820126E100E2920136E000E156E0D
:1054D000DE0E146ECBEC30F0020EBCEC31F04AC0A4
:1054E00027F04BC028F0296A000E2724116E800E89
:1054F0002820126E100E2920136E000E156E1C0E41
:10550000146ECBEC30F0020EBCEC31F04AC027F048
:105510004BC028F0296A000E2724116E800E282027
:10552000126E100E2920136E060E156E000E146EEC
:10553000CBEC30F0020EBCEC31F04AC027F04BC08F
:1055400028F0296A000E2724166E800E2820176E78
:10555000100E2920186E25C019F026C01AF081EC13
:105560002EF0BCEC31F01200186E000E196E000E19
:105570001A6E000E1B6E000E1C6E000E1F6E000ECB
:10558000206E000E216E000E226E1250030B1D6E57
:105590001238E842070B1E6E1150146E156AD8902F
:1055A00014361536D89014361536D890143615366C
:1055B00014C01FF015C020F0000E20BEFF0E216E9B
:1055C000226E1E501F241F6E000E2020206E000E23
:1055D0002120216E000E2220226E1FC014F020C058
:1055E00015F021C016F022C017F0020ED890143624
:1055F000153616361736E82EF9D714C01FF015C029
:1056000020F016C021F017C022F01D501F241F6E7D
:10561000000E2020206E000E2120216E000E222080
:10562000226E1FC015F020C016F021C017F0146ABA
:1056300014C01FF015C020F016C021F017C022F0D2
:1056400018501F241F6E000E2020206E000E2120F7
:10565000216E000E2220226E1FC015F020C016F011
:1056600021C017F0146A14C01FF015C020F016C036
:1056700021F017C022F010501F241F6E000E2020B2
:10568000206E000E2120216E000E2220226E1FC0EF
:1056900019F020C01AF021C01BF022C01CF019C064
:1056A00010F01AC011F01BC012F01CC013F0120051
:1056B000FF0E1E6EFF0E1F6EFF0E206E040E216E7B
:1056C00006EC31F02E0E1E6EFF0E1F6EFF0E206ECA
:1056D000FF0E216E06EC31F04AC027F04BC028F0D7
:1056E000296A000E2724116E800E2820126E100EDB
:1056F0002920136E000E156E400E146ECBEC30F0A8
:10570000020EBCEC31F04AC027F04BC028F0296AE9
:10571000000E2724116E800E2820126E100E2920F4
:10572000136E000E156E070E146ECBEC30F0020EE9
:10573000BCEC31F04AC027F04BC028F0296A000EBB
:105740002724116E800E2820126E100E2920136E51
:10575000000E156E1C0E146ECBEC30F0020EBCEC7D
:1057600031F04AC027F04BC028F0296A000E2724E8
:10577000116E800E2820126E100E2920136E000E5E
:10578000156E000E146ECBEC30F0020EBCEC31F056
:1057900025C01EF026C01FF0000E1FBEFF0E206E9B
:1057A000216E06EC31F01200800E6F6E6E50E00B31
:1057B000800AD8A4FBD7000E726E0E01FA690E01A2
:1057C000FB690E01F8690E01F9690E01FE690E010F
:1057D000FF690E01FC690E01FD69000E0E01E26F0A
:1057E000000E0E01E36F000E0E01E06F000E0E01C1
:1057F000E16F000E0E01E66F000E0E01E76F000E66
:105800000E01E46F000E0E01E56F000E0E01EA6F4F
:10581000000E0E01EB6F000E0E01E86F000E0E0180
:10582000E96F000E0E01EE6F000E0E01EF6F000E1D
:105830000E01EC6F000E0E01ED6F000E0E01F26F07
:10584000000E0E01F36F000E0E01F06F000E0E0140
:10585000F16F000E0E01F66F000E0E01F76F000ED5
:105860000E01F46F000E0E01F56F030E0E01436F73
:10587000980E0E01446F010E0E01456F000E6F6E03
:105880006ECF10F0E00E1016D8B41200F9D72E0E1D
:105890001E6EFF0E1F6EFF0E206EFF0E216E06ECB9
:1058A00031F04AC027F04BC028F0296A000E2724A7
:1058B000116E800E2820126E100E2920136E010E1C
:1058C000156EC70E146ECBEC30F0020EBCEC31F04E
:1058D0004AC027F04BC028F0296A000E2724116E19
:1058E000800E2820126E100E2920136E000E156EE9
:1058F000A60E146ECBEC30F0020EBCEC31F04AC0B8
:1059000027F04BC028F0296A000E2724116E800E64
:105910002820126E100E2920136E000E156E1E0E1A
:10592000146ECBEC30F0020EBCEC31F04AC027F024
:105930004BC028F0296A000E2724116E800E282003
:10594000126E100E2920136E080E156E000E146EC6
:10595000CBEC30F0020EBCEC31F025C01EF026C0BE
:105960001FF0000E1FBEFF0E206E216E06EC31F000
:1059700012002E0E1E6EFF0E1F6EFF0E206EFF0E0B
:10598000216E06EC31F04AC027F04BC028F0296A9E
:10599000000E2724116E800E2820126E100E292072
:1059A000136E010E156EDB0E146ECBEC30F0020E92
:1059B000BCEC31F04AC027F04BC028F0296A000E39
:1059C0002724116E800E2820126E100E2920136ECF
:1059D000000E156E780E146ECBEC30F0020EBCEC9F
:1059E00031F04AC027F04BC028F0296A000E272466
:1059F000116E800E2820126E100E2920136E000EDC
:105A0000156E1F0E146ECBEC30F0020EBCEC31F0B4
:105A10004AC027F04BC028F0296A000E2724116ED7
:105A2000800E2820126E100E2920136E080E156E9F
:105A3000000E146ECBEC30F0020EBCEC31F025C041
:105A40001EF026C01FF0000E1FBEFF0E206E216E3E
:105A500006EC31F012002E0E1E6EFF0E1F6EFF0EB2
:105A6000206EFF0E216E06EC31F04AC027F04BC0CD
:105A700028F0296A000E2724116E800E2820126E4D
:105A8000100E2920136E000E156E420E146ECBEC14
:105A900030F0020EBCEC31F04AC027F04BC028F0C9
:105AA000296A000E2724116E800E2820126E100E17
:105AB0002920136E000E156E300E146ECBEC30F0F4
:105AC000020EBCEC31F04AC027F04BC028F0296A26
:105AD000000E2724116E800E2820126E100E292031
:105AE000136E000E156E1C0E146ECBEC30F0020E11
:105AF000BCEC31F04AC027F04BC028F0296A000EF8
:105B00002724116E800E2820126E100E2920136E8D
:105B1000000E156E000E146ECBEC30F0020EBCECD5
:105B200031F025C01EF026C01FF0000E1FBEFF0E74
:105B3000206E216E06EC31F012002E0E1E6EFF0E4E
:105B40001F6EFF0E206EFF0E216E06EC31F04AC074
:105B500027F04BC028F0296A000E2724116E800E12
:105B60002820126E100E2920136E000E156E420EA4
:105B7000146ECBEC30F0020EBCEC31F04AC027F0D2
:105B80004BC028F0296A000E2724116E800E2820B1
:105B9000126E100E2920136E000E156EAB0E146ED1
:105BA000CBEC30F0020EBCEC31F04AC027F04BC019
:105BB00028F0296A000E2724116E800E2820126E0C
:105BC000100E2920136E000E156E1C0E146ECBECF9
:105BD00030F0020EBCEC31F04AC027F04BC028F088
:105BE000296A000E2724116E800E2820126E100ED6
:105BF0002920136E000E156E000E146ECBEC30F0E3
:105C0000020EBCEC31F025C01EF026C01FF0000EC5
:105C10001FBEFF0E206E216E06EC31F012002E0E1C
:105C20001E6EFF0E1F6EFF0E206EFF0E216E06EC25
:105C300031F04AC027F04BC028F0296A000E272413
:105C4000116E800E2820126E100E2920136E000E89
:105C5000156E420E146ECBEC30F0020EBCEC31F03F
:105C60004AC027F04BC028F0296A000E2724116E85
:105C7000800E2820126E100E2920136E000E156E55
:105C8000590E146ECBEC30F0020EBCEC31F04AC071
:105C900027F04BC028F0296A000E2724116E800ED1
:105CA0002820126E100E2920136E000E156E1C0E89
:105CB000146ECBEC30F0020EBCEC31F04AC027F091
:105CC0004BC028F0296A000E2724116E800E282070
:105CD000126E100E2920136E000E156E000E146E3B
:105CE000CBEC30F0020EBCEC31F025C01EF026C02B
:105CF0001FF0000E1FBEFF0E206E216E06EC31F06D
:105D000012008C9018508009F8EC31F016C01BF08E
:105D100017C01CF018C01DF01CC01BF01DC01CF0EB
:105D20001D6A1B50F8EC31F01650F8EC31F019C038
:105D300010F01AC011F06EEC30F010501E6E000E14
:105D40001F6E14D01F50010D19C01BF01AC01CF09B
:105D5000F3501B26F4501C221BC0F6FF1CC0F7FF9B
:105D6000F86A0800F550F8EC31F01F2A1F501E5C4D
:105D7000D8A005D0E7D7000EF8EC31F01F2A1FC0DD
:105D80001BF0030E1B16D8A4F6D78C801F501200F0
:105D90008EEC30F0D4EC19F03CC025F03DC026F07C
:105DA00058EC2BF03EC025F03FC026F02BEC2DF038
:105DB000000E266E040E256E0FEC2EF040C025F06E
:105DC00041C026F030EC26F032C025F033C026F07A
:105DD0009DEC2DF03AC025F03BC026F0BBEC23F043
:105DE00030C025F031C026F0C6EC07F038C025F0F1
:105DF00039C026F0B9EC2CF036C025F037C026F0BB
:105E000047EC2CF0350E256E0F0E266E05EC2AF0B1
:105E10004DEC30F01200166E000E176E000E186E6C
:105E2000000E196E000E1A6E1650146E156AD89078
:105E300014361536D89014361536D89014361536D3
:105E400014C01BF015C01CF0000E1CBEFF0E1D6E12
:105E50001E6E10C014F0050E156ED8901432152E5B
:105E6000FCD714501B241B6E000E1C201C6E000E51
:105E70001D201D6E000E1E201E6E1BC017F01CC0C4
:105E800018F01DC019F01EC01AF017C010F018C08D
:105E900011F019C012F01AC013F01200000E156EA6
:105EA00013AE06D0126C131ED8B0132A010E156E55
:105EB00011AE06D0106C111ED8B0112A010E151AA1
:105EC000000E176E000E166E12501310D8B41CD0B0
:105ED000010E146E04D0D89012361336142A13AE65
:105EE000FAD7D890163617361250105C1350115846
:105EF000D8A005D01250105E1350115A1680D890B9
:105F000013321232142EEDD71550D8B404D0166CBB
:105F1000171ED8B0172A16C010F017C011F01200C3
:105F20008C9013508009F8EC31F011C018F012C0B9
:105F300019F013C01AF019C018F01AC019F01A6A33
:105F40001850F8EC31F01150F8EC31F01450F8EC36
:105F500031F01550F8EC31F01650F8EC31F014C077
:105F600018F015C019F016C01AF017C01BF0110E6A
:105F700005D0D8901B321A3219321832E82EF9D7D0
:105F800019C018F01AC019F01BC01AF01B6A18507B
:105F9000F8EC31F08C801200000E1D6E19AE06D0A8
:105FA000186C191ED8B0192A010E1D6E1BAE04D034
:105FB0001A6C1B1ED8B01B2A1A501B10D8B418D04C
:105FC000010E1C6E04D0D8901A361B361C2A1BAE4C
:105FD000FAD71A50185C1B501958D8A004D01A5080
:105FE000185E1B50195AD8901B321A321C2EF1D74A
:105FF0001D50D8B404D0186C191ED8B0192A18C076
:1060000018F019C019F012008C901350F8EC31F010
:1060100011C014F012C015F013C016F015C014F022
:1060200016C015F0166A1450F8EC31F01150F8EC67
:1060300031F0000EF8EC31F0000EF8EC31F0C9CF81
:1060400017F0000EF8EC31F08C80C950146E175028
:10605000116E14C012F01200C80EF66E630EF76EC9
:10606000000EF86E00EE8DF010EE16F00900F5CF80
:10607000EEFFE550E150FAE100EEA3F00F0EEE6AFC
:10608000E806FDE100EE42F00D0EEE6AE806FDE1E5
:106090004F904F92000115EF21F0000E1E6E000E82
:1060A0001F6E000E206E000E216E06EC31F0010E08
:1060B0001E6EFF0E1F6EFF0E206EFF0E216E06EC91
:1060C00031F0E80E116E240E126E100E136E4AC0DF
:1060D00014F04BC015F0CBEC30F0120010C014F0EF
:1060E00011C015F002D0144A152A14C0F6FF15C0CD
:1060F000F7FFF86A0800F5500009D8A4F4D710C0DB
:1061000012F011C013F0121E131E124A132A14505B
:106110001224106E15501320116E1200000E1E6E08
:10612000FF0E1F6EFF0E206EFF0E216E06EC31F08B
:10613000140E1E6E140E1F6E140E206E020E216EB3
:1061400006EC31F0070E1E6E000E1F6E000E206E64
:10615000260E216E06EC31F01200300ECD6E000ED0
:10616000AA6E150ECF6EA00ECE6ECE50CFCF12F00F
:10617000136A12C013F0126A1210486E1350496E5F
:106180009E909D80440E106E640E116E0CEC32F0E9
:106190001CEC32F012008C9013508009F8EC31F0B6
:1061A00011C016F012C017F013C018F017C016F087
:1061B00018C017F0186A1650F8EC31F01150F8ECCE
:1061C00031F01450F8EC31F01550F8EC31F08C80CF
:1061D0001200000E8D6E000E8C6E000E896E000E89
:1061E0008A6E000E8B6E070E966EEC0E926EDB0EB4
:1061F000936ED50E946EC20E956E0F015D697D0E85
:106200000F015C6FCF0E0F015B6F12004AC022F0CE
:106210004BC023F0246A000E2224116E800E23202E
:10622000126E100E2420136E1EC014F01FC015F045
:1062300020C016F021C017F090EC2FF0040EBCEC3B
:1062400031F01200150ED56E9E0ED76E570ED66E1B
:10625000D650D7CF12F0136A12C013F0126A121080
:10626000426E1350436EF294F28A460E106E640E24
:10627000116E11EC32F01EEC32F012008C901350C3
:106280008009F8EC31F011C015F012C016F013C0FF
:1062900017F016C015F017C016F0176A1550F8EC75
:1062A00031F01150F8EC31F01450F8EC31F08C80F2
:1062B000120080B203D0016A012A01D0016A0146AE
:1062C00089500118FD0B0118896E83B803D0016A4B
:1062D000012A01D0016A013A8C500118EF0B011814
:1062E0008C6E12009E904950CF6E48C0CEFF465033
:1062F0004710D8B4120001D812000500FA6E4650BB
:10630000FD6E4750FE6EFF6AFA501200F294435041
:10631000D76E42C0D6FF44504510D8B4120001D801
:1063200012000500FA6E4450FD6E4550FE6EFF6A85
:10633000FA50120010501202F3CF14F0F4CF15F0FF
:1063400010501302F350152611501202F350152667
:1063500014C010F015C011F0120020EC32F0E9EC7E
:1063600030F0EFEC31F000EC32F0ADEC30F022EC3C
:1063700031F0D4EC2BF01200126E12504A24106E41
:10638000000E4B20116EFF0E10144A6E0F0E1114EA
:106390004B6E1200A30E116E570E106E020EE82EF9
:1063A000FED7102EFCD7112EFAD700D01200116E96
:1063B0008C901150F8EC31F0000EF8EC31F0000E3A
:1063C000F8EC31F08C8012000000010000000000A9
:1063D0000000000000000F27000063006300600E53
:1063E000D36E000ED26E000E9B6E000E9A6E1200DF
:1063F000106EC69E10C0C9FFC7A0FED7C9501200BC
:10640000000EC76E200EC66E000EC86E12004950F8
:10641000CF6E48C0CEFF120010C046F011C047F04A
:10642000120010C044F011C045F01200010E00012E
:10643000A36F1200D59E1200CD801200D58E1200DF
:08644000D09E120012001200B0
:020000040020DA
:08000000FFFFFFFFFFFFFFFF00
:020000040030CA
:0E00000015127F7CFF8991FF0FC00FE00F40AB
:00000001FF
